:020000040800F2
:1000000088040020D900000871080008A90600082B
:1000100000000000000000000000000000000000E0
:10002000000000000000000000000000E7080008D9
:100030000000000000000000B9080008E9080008FE
:10004000000000000000000000000000EB000008BD
:10005000EB00000899020008C1020008E90200084C
:100060000000000000000000000000000000000090
:10007000EB000008990A0008EB00000800000000EF
:1000800000000000EB00000800000000310900083B
:100090000000000000000000000000000000000060
:1000A0000000000000000000000000000000000050
:1000B0000000000000000000000000000000000040
:1000C0000448854600F03EF8004800472D0D000822
:1000D000C046C046880400200448804704480047C2
:1000E000FEE7FEE7FEE7FEE7FEE7FEE7ED080008B5
:1000F000C100000830B50B46014600202022012433
:1001000009E00D46D5409D4205D31D469540491B4B
:100110002546954040191546521E002DF1DC30BD94
:10012000D2B201E00270401C491EFBD2704700228F
:10013000F6E710B513460A4604461946FFF7F0FFE6
:10014000204610BD064C0125064E05E0E36807CCAD
:100150002B430C3C98471034B442F7D3FFF7B4FF5D
:10016000F40E0008140F0008FEE7000038B5012166
:100170001C4802680A4302600068084000900907B2
:1001800018484038C26B0A43C263C26B0A400092EF
:10019000016882151143016001684905C90F0029F2
:1001A000FAD081680F221202914381608168C908E8
:1001B000C90081603822816811400029FBD1816823
:1001C0000722120391438160074C204600F0EAFAAF
:1001D00006490A69022002430A61204600F008FB32
:1001E00038BD00004010024000366E0100E000E023
:1001F00010B520200B4CA06200220821204600F000
:10020000ADFA0820A06100F066FC2020A06100F09B
:1002100062FC2020A06201220821204600F09EFA04
:1002200010BD00000004005010B5024600210C4B28
:100230002020986200F04FFC100602D5082098613B
:1002400001E0082098625006020E2020986100F01C
:1002500042FC491CC9B20829EAD3FFF7C9FF10BD07
:100260000004005010B5044600F0B6FC7820FFF7FB
:10027000DBFF2046FFF7D8FF00F0BEFC10BD0000FA
:1002800008B504494843009000BF0098411E009102
:10029000FAD208BDB80B000010B5012000F04AFAF0
:1002A000064C002801D00120E060022000F042FA54
:1002B000002801D00220E06010BD000000180240BC
:1002C00010B5042000F036FA064C002801D00420B6
:1002D000E060082000F02EFA002801D00820E0603D
:1002E00010BD00000018024010B5102000F022FAE6
:1002F000064C002801D01020E060202000F01AFAFF
:10030000002801D02020E06010BD0000001802404D
:1003100010B5054B1A6AFF24204382430A43AA20E2
:1003200002431A6210BD00000020024070B504466E
:1003300000F0B4F90419084D05E000F0AFF9A0424F
:1003400001D3032070BD2869C043C003F5D503481D
:100350002861002070BD00000020024011800000D4
:1003600010B50948FF2164310068FFF7C3FE074953
:1003700008700878642801D364200870087800F0B9
:1003800009F80349486310BD000A0020200A002034
:100390003C0000200020704738B50021C943484880
:1003A000426B4163406B0090464D00220421284679
:1003B00000F0CAF900220421284600F0DFF980206D
:1003C00005242407A0614020A0610122802120464D
:1003D00000F0BAF900228021204600F0C9F901227C
:1003E0004021204600F0B0F900224021204600F0D4
:1003F000BFF901220821284600F0A6F900220821B1
:10040000284600F0B5F903220821284600F0C0F97B
:1004100001222021284600F097F9002220212846B9
:1004200000F0A6F903222021284600F0B1F90022AD
:100430000221204600F088F902221146204600F0F1
:100440009DF903220821204600F07EF900221021A8
:10045000204600F079F901221021204600F08EF9A3
:1004600000222021204600F06FF9012220212046A1
:1004700000F06AF900222021204600F079F90022DC
:100480002021204600F07AF903222021204600F0A6
:100490007FF90D4C01221146204600F055F900224B
:1004A0000121204600F064F903220221284600F0D1
:1004B0004BF903220121284600F046F938BD00001F
:1004C00000100240000400500008005001200549BF
:1004D0004A69C3071A434A614969002900DA0020C2
:1004E0007047000000200240F8B5474F39780129D5
:1004F0007ED001213970454949680904490F444BB0
:100500001D688A00434989580A68D405E40DA5424C
:100510002AD15D681601B60DB54225D11D69920339
:10052000D20D954220D19D684A68D605F60DB54298
:100530001AD1DD681201120D954215D15A698D68E4
:10054000AD03AD0BAA420FD19A69CD68AD03AD0BD7
:10055000AA4209D1DD690A6996B2B54204D11D6A81
:100560009200920C95421FD01C600A681201920DF5
:100570005A600A689203D20D1A618A88D205D20D98
:100580009A604A681201120DDA608A689203920B2F
:100590005A61CA689203920B9A610A8A92B2DA612E
:1005A00009698900890C196201781B4CC90703D0BD
:1005B0008188C94389B2E1620178890704D5C2689C
:1005C00081681202114361620178090703D541690C
:1005D0000069FFF79DFE60690121490408436061DD
:1005E0006069C901084360610949FF20803900E062
:1005F00007E008607D20C000FFF798FE00213970F9
:10060000F8BD0220F8BD00001800002000100240D4
:1006100000210240D40E0008002002400348416936
:100620000122D2061143416101207047002002409F
:10063000012005494A6983071A434A61496949000B
:1006400000D500207047000000200240012006492C
:100650004A69520007D5054ACA60054ACA60496915
:10066000490000D400207047002002403B2A1908AE
:100670007F6E5D4C002006494A69002A07DA054A68
:100680008A60054A8A604969002900DA01207047BA
:100690000020024023016745AB89EFCD0148806807
:1006A0007047000008000020FEE7000070B500223F
:1006B0008368DB07DB0F002B02D00122104670BDE0
:1006C0008C684B68C5682343CC68064E35402C4384
:1006D0002343C360036909681B011B090B430361C2
:1006E000ECE70000C7BFFFFF10B500228368DB07FF
:1006F000DB0F002B02D00122104610BD4C680B68A6
:1007000023438C68C9680C43C1682343024C2140D1
:100710000B43C360F0E700003FC2FEFF08B5044989
:100720000A6802430A6009680140009108BD0000A0
:10073000401002400349C968884301D00020704737
:10074000012070470018024010B5036849434C006F
:100750000C19A34351430B43036010BD10B503684C
:1007600049434C000C19A34351430B43036010BD94
:1007700043688B4351430B434360704710B5C368D4
:1007800049434C000C19A34351430B43C36010BDB4
:1007900010B5836849434C000C19A34351430B43E4
:1007A000836010BD10B57D21C900FFF7A3FC04498B
:1007B000401E4861002088610520086110BD0000CE
:1007C00000E000E010B500220369DB07DB0F002B1F
:1007D00001D0012207E00B6849680B43C168034C54
:1007E00021400B43C360104610BD0000FFF1BFFF66
:1007F00001490860704700000000002030B5026821
:10080000104B984203D17024A2434C6822430E4CF3
:10081000984201D0A04204D103252D02AA43CD68FD
:100820002A4302608A68C2620A888262984201D0C2
:10083000A04201D1097C0163416901221143416158
:10084000002030BD002C01400020004008B50749C1
:100850000A690092421C05D0401C03E00A69D203D9
:1008600000D5401E0028F9D108BD000000E000E0DE
:10087000704700008307FF22DB0E9A408907090EAC
:10088000994000280BDA0007000F08388308084851
:100890009B001818C36993430B43C36170478308D7
:1008A00004489B001818036893430B430360704788
:1008B00000ED00E000E400E0704710B54820FFF7CD
:1008C000D1FC00F089F97820FFF7AEFC6820FFF733
:1008D000ABFC00240020FFF7A7FC641C902CF9D38C
:1008E00000F08AF910BD70477047000010B50C4841
:1008F00041680C4A090C12680904114341604168BF
:10090000094A1140074A403292881204114341605B
:100910000649C00388606420FFF7B2FC10BD0000E8
:10092000001002400001FF1FFFFF00FE00ED00E08D
:10093000F8B552480169C90769D0C168C907C90F2C
:10094000002964D00121C94301614D480178491C47
:1009500001704C4D0522287812074B4E00210123CF
:10096000002825D02C7B002C05D0A87BC8280BD2D2
:10097000401CA87309E0F078FD242040F070A973B2
:10098000A9748020906113E0A973A87BA04202D2D1
:100990008027976201E080279761082800D12B7497
:1009A000012804D9641EA04201DAAB7400E0A974E6
:1009B0006878002825D06C7B002C05D0E87BC828FF
:1009C0000BD2401CE87309E0F078FD242040F07061
:1009D000E973E9744020906113E0E973E87BA04279
:1009E00002D24027976201E040279761082800D192
:1009F0006B74012804D9641EA04201DAEB7400E094
:100A0000E974224C60780A2802D2401C6070F8BD5C
:100A100063702371A0780A2802D2401CA070F8BD30
:100A2000A3706371E0780A2802D2401CE070F8BD20
:100A3000E370A371F078800711D515490868002884
:100A40000DD014480078012802D0022804D006E016
:100A50000868401E086002E00868801E0860FFF712
:100A60007FFC08492031087A002801D0401E087216
:100A700020780028DBD0401E2070F8BD0020004008
:100A8000040000203C0000207800002030000020FE
:100A9000000A00201400002006480169C90707D099
:100AA000C168C907C90F002902D00121C9430161EA
:100AB00070470000002C014002E008C8121F08C166
:100AC000002AFAD170477047002001E001C1121FCF
:100AD000002AFBD170470020401CC0B20028FBD088
:100AE0007047000030B58BB021490A6B012000052A
:100AF00002430A630A6B82430A631D4940310A6854
:100B000002430A6009680140019100240894099495
:100B10000A940394049405940694029400020790A6
:100B2000144D07A92846FFF7C1FD072069698143D5
:100B3000014369610594A81406900494039403A9E1
:100B40002846FFF7D1FDA868C007C00F00280CD1C8
:100B5000A86817218843C9070843A860A868C10F7F
:100B60000029FBD10120FFF771FE0BB030BD000062
:100B7000001002400024014000B50346002206E0B8
:100B80000021FFF7A8FF491C6429FAD3521C9A429E
:100B9000F6D300BD002207E0002100BF491C89B246
:100BA0002029FAD3521C92B28242F5D3704710B575
:100BB00000F012F87820FFF737FB6820FFF734FBCE
:100BC0000024FF20FFF730FB641CE4B2902CF8D324
:100BD00000F012F810BD000000B520200549886122
:100BE00008208861FFF777FF08208862FFF773FF0E
:100BF00000BD00000004005000B5082004498862D0
:100C000020208861FFF767FF0820886100BD000091
:100C1000000400500E48016A012211430162016A7A
:100C20008907C90F0029FAD00B490A4808600B4808
:100C30000860032048600A488860C868800705D0BB
:100C400000200028F9D00748086070470120F8E725
:100C500040100240CCCC0000003000405555000050
:100C6000B80B0000AAAA00003EB500220192029231
:100C7000012149071B4803688B43036043680B430A
:100C800043601948016A012319430162016A890717
:100C9000C90F0029FAD00124A4044169FF252D02BF
:100CA000294043692B409B08194343690325AD0440
:100CB000AB430C432343436169030B484038C36B88
:100CC0000B43C363C06B08400090072040020190B3
:100CD000029201A90548FFF775FD002801D0FFF732
:100CE00043FA3EBD8018024040100240007C0040A4
:100CF00010B50D48826802210A438260026901230F
:100D00001A43026143158269120C12041A4382616C
:100D1000026906239A430A43026142680A43426019
:100D20009620FFF737FF10BD007C0040FFF71EFA4A
:100D30007D24E4002046FFF789FD00F01FF8FFF74F
:100D40002BFBFFF7CFFEFFF765FF00F08FF800F0F9
:100D50005DF800F041F8FFF787FFFFF7C9FF0121B9
:100D60000548816200F038F8FFF7A7FDFFF71FFF85
:100D70002046FFF701FFF9E70008005000B587B0F3
:100D80001448016A4904890F022907D1016AC9057B
:100D900004D5006A0005400F042818D0182101A8C6
:100DA000FFF7C5F9FFF766FCFFF750FC082001903C
:100DB0007F200002059059200002069001A8FFF74D
:100DC00093FBFFF783FBFFF733FCFFF727FC07B02C
:100DD00000BD00000020024010B53F20FFF742FA9E
:100DE0004820FFF73FFA5320FFF73CFA6C20FFF74B
:100DF00039FA8320FFF736FA9120FFF733FAC02043
:100E0000FFF730FAE020FFF72DFA10BD10B586B0DD
:100E10000120C003FFF782FC142101A8FFF787F926
:100E200000200490029017216A469180632103916B
:100E300010750C4C01A92046FFF7E0FC0120C043CF
:100E40002061E16801200143E160216801432160E4
:100E50000549C004086001211320FFF70BFD06B00F
:100E600010BD00000020004000E100E010B586B099
:100E70000120C002FFF752FC142101A8FFF757F927
:100E800000200490029017216A469180312103913D
:100E900010750E4C01A92046FFF7B0FC606C0121D3
:100EA000C903084360640120C0432061E168012058
:100EB0000143E16021680143216005494003086066
:100EC00000210D20FFF7D6FC06B010BD002C01401C
:100ED00000E100E01C01FF1F1C01FF1F1C01FF1FA0
:100EE0001C01FF1F1C01FF1F3001FF1F1C01FF1F02
:100EF0001C01FF1F140F0008000000201800000054
:100F0000B80A00082C0F0008180000207004000028
:100F1000C80A000800366E0100000000040000004E
:0C0F2000010000000000000000000000C4
:04000005080000C12E
:00000001FF
