:020000040800F2
:10000000E0050020D90000084D190008451500083A
:1000100000000000000000000000000000000000E0
:10002000000000000000000000000000FD2A0008A1
:100030000000000000000000792000087D3000086A
:10004000000000000000000000000000EB000008BD
:10005000EB000008990D0008C10D0008E90D00082B
:100060000000000000000000000000000000000090
:10007000EB0000082D320008EB0000080000000033
:1000800000000000EB00000800000000C530000880
:100090000000000000000000000000000000000060
:1000A0000000000000000000000000000000000050
:1000B0000000000000000000000000000000000040
:1000C0000448854600F05CFB00480047054B0008EB
:1000D000C046C046E0050020044880470448004769
:1000E000FEE7FEE7FEE7FEE7FEE7FEE781300008F9
:1000F000C100000830B50B46014600202022012433
:1001000009E00D46D5409D4205D31D469540491B4B
:100110002546954040191546521E002DF1DC30BD94
:10012000D2B201E00270401C491EFBD2704700228F
:10013000F6E710B513460A4604461946FFF7F0FFE6
:10014000204610BD024670B54A40D30FDB07400081
:100150002DD04A002AD0010E140E000212020919F5
:10016000400A520A8418E50104465443000A120A60
:100170002E045043A4194219200CC543AA18120C8E
:100180000125AD03521C521912047F39240400D0FA
:10019000521C104301D44000491EC2B20C06C009D3
:1001A0002018401C4008802A02D003E0002070BDC7
:1001B00040084000002900DA0020184370BD00000C
:1001C000F0B507460846584087B0C00F0490480075
:1001D0000E46590040084908BC1A884105D23846E5
:1001E00031461E4617460B4602465800400810434B
:1001F0004DD0300D039040055900400D490D05903C
:10020000401A0290402873DA18030121000B0905F7
:100210000843019004980092002806D01146019AE4
:1002200049420020904100910190029840210A1A11
:100230000199009800F0D0F905460C466B4607CBB3
:1002400000F0EBF9C0197141039A0E0D0023D71786
:1002500056401A467A40164344D0049A002A2DD0BC
:10026000029A012A039A15DC1205C01A914101264F
:100270003605001C7141D20F059ED20700930192F2
:1002800002962A46234600F029FA07B0F0BD384608
:100290003146FAE71605234A0F46B218C01AB7418D
:1002A00001210905001C4F4100187F411146181813
:1002B0007941E20F10436D19644113E0E2076D08C4
:1002C00015436408C2071443039A01261205C01A95
:1002D00091413605001C7141CE0740083043490862
:1002E000C01851412A46234600F0EBF9CDE7FFE75D
:1002F000049801224000C117121A00238B41049870
:100300003146C417381AA141EEE730B40124E4079E
:10031000634030BC54E730B40124E407614030BC92
:100320004EE700000000E0FFF0B51FB488B00B9965
:100330000998002448400999C00F490049080991CB
:10034000C0070B990090490049080B91099908983A
:10035000A64608431CD00B990A98084318D0099860
:1003600001244000420D4800410D09982405000376
:10037000000B204309900B980003000B20430B90C7
:1003800050181C494018002201901446104605E000
:10039000002001460DB0F0BD032801DA034600E05D
:1003A00003239C46C11A0AAE0AE05F0008ADED5B6C
:1003B0004F00F75B7D430027AA187C41491C5B1E58
:1003C0006145F2DD410004AB5A522104120C0A438C
:1003D000240C401C0828DFDB01980290009970462D
:1003E00001910090059B049A0799069800F076F910
:1003F000D0E700000DFCFFFFF0B50C465C4085B077
:10040000E40FE40703944C00002664085900944666
:10041000490802460296224321D062460A431ED072
:100420006200570D4A000E032303550D01240246B6
:100430002C492405781B1B0B360B401823432643FD
:10044000614600901C46501AB44103D30098401CEA
:10045000009002E0921800985B41002803DA002027
:10046000014605B0F0BD002001210905074686467A
:1004700011E064461D46141BB54106D36546521B68
:10048000B341744607430C43A646CD0740084908CC
:10049000284392185B4105460D43EAD110461843A4
:1004A00013D06046194650407140084306D060465C
:1004B000101AB34106D20122002306E000220123D4
:1004C000DB0702E00122D243531000987446010575
:1004D000381C6141029C039D0019694100F0F1F84C
:1004E000BFE70000FD03000010B50022962311466F
:1004F00000F0AEF810BD00000EB5054902910021D4
:1005000000910A460B46019100F0E8F803B000BDE7
:1005100033040000410040020122400AD205090EC6
:1005200080187F2901DA00207047962903DC962283
:10053000511AC84070479639884070474A000903ED
:100540000123090B1B051943094B10B5520D9A42A3
:1005500001DA002010BD064B34339A4203DC9A1AAC
:1005600000F04AF810BD03495118884010BD000042
:10057000FF030000CDFBFFFFC20FD2074000400881
:100580000BD0C10D0723DB01C91840020905400A41
:100590001143C208400711437047002001467047CD
:1005A000CB0FDB07490010B5490802460A4307D0C4
:1005B0000A0D07240903E401090B121B002A01DCC0
:1005C000002010BDC900440F0C43C100E018D20543
:1005D000801800F035F810BD10B5202A04DB014664
:1005E000203A9140002010BD914020239C1A0346E0
:1005F000E3401943904010BD10B5202A04DB0846A3
:10060000203AD040002110BD0B46D340D0402024DA
:10061000A21A91400843194610BD10B5202A06DBE6
:10062000CB170846203A1041C1170B4306E00B4692
:100630001341D0402024A21A91400843194610BD0E
:10064000002904DA401C490001D1400840007047ED
:1006500070B40024050C05D11024000402D1002937
:1006600021D01124050E01D100020834050F01D15B
:100670000001241D850F01D18000A41C002801DB8E
:100680004000641C002908D020252E1B0D46F54093
:10069000A14000D001212943084301061B1B000A89
:1006A000DB1D02D5002070BC7047DB0518188018D0
:1006B0000029F8DA401C4900F5D170BC4008400020
:1006C000704710B5002B08DA0024401C61419218D5
:1006D0005B411A4301D14008400010BDF0B51FB482
:1006E00082B005460C0003D0084602F0AFFD02E0E0
:1006F00002F0ACFD20300246009021462846FFF76C
:100700006BFF049B059A04460F46184311430843A8
:1007100014D0184610431BD0009840210A1A1846DE
:100720000599FFF769FF05460E46009A059904985A
:10073000FFF752FF084305D0012004E02046394668
:1007400007B0F0BD0020C11705430E432C433743CB
:1007500000990E986305401A7905E40A00220C43BB
:10076000FD0A0A3002D500200146E9E7010510190B
:1007700069410C9C0D9D00196941FFF7A2FFDFE75D
:10078000064C0125064E05E0E36807CC2B430C3CE4
:1007900098471034B442F7D3FFF796FC385100085D
:1007A00058510008FEE7000038B501211C480268D6
:1007B0000A43026000680840009009071848403862
:1007C000C26B0A43C263C26B0A4000920168821581
:1007D0001143016001684905C90F0029FAD08168F9
:1007E0000F221202914381608168C908C9008160AB
:1007F0003822816811400029FBD181680722120349
:1008000091438160074C204601F03AF806490A6995
:10081000022002430A61204601F058F838BD00006A
:100820004010024000366E0100E000E0F8B5214BB8
:10083000D87800F0ADF80546987800F0A9F804469D
:100840000A212846FFF756FC0091FFF74DFE1A4E8D
:1008500007462046FFF750FE184A194BFFF764FD84
:1008600004460D460098FFF747FE164A164BFFF761
:100870005BFD22462B46FFF7A3FC04460D46384697
:10088000FFF77AFE22462B46FFF79AFCFFF788FE19
:100890000E49FFF757FC7060FFF73CFE80B23080D6
:1008A0000B494018C92802D34B2000013080308802
:1008B000F8BD00002000FF1F14000020FCA9F1D2A9
:1008C0004D62503F9A9999999999B93F00007A449D
:1008D000B4FBFFFF10B520200C4CA06200220821C1
:1008E000204600F08FFF0820A061012002F0E1FC0B
:1008F0002020A061012002F0DCFC2020A062012267
:100900000821204600F07EFF10BD000000040050CA
:1009100010B5034600220D4C2020A062012002F0F9
:10092000C8FC180602D50820A06101E00820A062DA
:100930005806030E2020A061012002F0BAFC521CD0
:10094000D2B2082AE8D3FFF7C5FF10BD000400505B
:1009500010B5044603F0D4FD7820FFF7D9FF2046F8
:10096000FFF7D6FF03F0DEFD10BD000010B5092033
:1009700000F076FA054C6060FFF758FFA0600203B4
:10098000101A6168FFF7B6FB206010BD9C010020C3
:1009900001090A2251430007000F4018C0B27047F6
:1009A000024900200860024908607047300A0020B0
:1009B000400A0020FEB5E849E84A084605464C7B57
:1009C00020304035D2780027E54E0190002C74D0BD
:1009D000086A401C08624B6A984205D20F70900763
:1009E00001D402F075F8FEBDDB498B6A097B9842A1
:1009F00016D9D94D2F62641EE0B268730028F2D177
:100A0000012908D02F7301988775900701D402F04F
:100A10005FF82F70FEBDD349052008702F73F2E7F1
:100A2000CD4F01243C70012924D0032925D004296D
:100A30002AD0052942D0082959D0062971D0072982
:100A4000E8D1C9480122FF21007802F0A7FF012266
:100A5000FF21307802F03AFDFF2002F055FFFF2021
:100A600002F02DFDFF2002F01FFD787B0128D1D17F
:100A70006C73FEBD02F004FDFEBD01F059FC787BF5
:100A80000128F9D16C73FEBDB7480022FF21007820
:100A900002F084FF0022FF21307802F017FDFF20D2
:100AA00002F032FFFF2002F00AFDFF2002F0FCFC02
:100AB000787B0128E7D16C73FEBD4BE0AA48002289
:100AC000FF21007802F06AFF0022FF21307802F057
:100AD000FDFCFF2002F018FFFF2002F0F0FCFF20D9
:100AE00002F0E2FC787B0128E6D16C73E4E79E48D3
:100AF0000122FF21007802F051FF0122FF2130780E
:100B000002F0E4FCFF2002F0FFFEFF2002F0D7FC21
:100B1000FF2002F0C9FC787B0128CDD16C73CBE7B4
:100B2000FFE791480122FF21007802F037FF012200
:100B3000FF21307802F0CAFCFF2002F0E5FEFF2022
:100B400002F0BDFCFF2002F0AFFC787B0128B3D19E
:100B50006C73B1E7854C697B207A012901D10028AB
:100B600005D0910710D57C4901200870A4E7804981
:100B70000120087004F098F80520002220210007C9
:100B800000F022FE6F7397E7510795D5774A203A18
:100B9000D16A00281BD07D20C00081428CD805205E
:100BA00000222021000700F00FFEA07A401CC0B2F6
:100BB000A072322808D36E48012101706D4881610E
:100BC00004F072F8A77227726348077074E76A48E6
:100BD000814230D3607A401CC0B26072322885D323
:100BE0000526360701222021304600F0EDFD2020A9
:100BF000B0616772012626725748182101735C4C58
:100C0000677001980775019886750198477604F01A
:100C10004BF800237D22D20019460120009701F0F5
:100C20007DFF67704C48076327702F7301F050FFFA
:100C30005048866240E7207F00282DD0FFF796FEBF
:100C40004A484122203801689201914222D301464C
:100C5000086B401C086314281ED301204549886195
:100C600004F022F805252D0701222021284600F056
:100C7000ABFD2020A86101F02BFF3D4807702777CE
:100C800064203070012020754B203849C000203985
:100C9000886301E007632777207D002815D033495A
:100CA0002039886B00284FD0401E88632E480022D0
:100CB000FF21007802F072FE0022FF21307802F05E
:100CC00005FC254901200870F6E6FFF74FFE274D89
:100CD0002A49203D2868884202D33078632802D20E
:100CE0003078642811D1286B401C28633C280CD331
:100CF00001F0EEFE64203070012020756775164803
:100D00000A2101734B20C000A86313490120087019
:100D1000A07D401CC0B2A075322813D2192808D972
:100D20000022FF21307802F0D1FBFF2002F0BCFB53
:100D3000C2E60022FF21307802F0C8FB002002F05A
:100D4000B3FBB9E6A775B7E601F0C2FE67750848C0
:100D5000077001480770AFE6F00000208C0100200A
:100D6000100A002044010020200A0020BC010020BD
:100D70001C000020000800507E0400004410000009
:100D800008B504494843009000BF0098411E0091F7
:100D9000FAD208BDB80B000010B5012000F082FCAB
:100DA000064C002801D00120E060022000F07AFC0F
:100DB000002801D00220E06010BD000000180240B1
:100DC00010B5042000F06EFC064C002801D0042071
:100DD000E060082000F066FC002801D00820E060F8
:100DE00010BD00000018024010B5102000F05AFCA1
:100DF000064C002801D01020E060202000F052FCBA
:100E0000002801D02020E06010BD00000018024042
:100E100010B5054B1A6AFF24204382430A43AA20D7
:100E200002431A6210BD00000020024070B5044663
:100E300000F082FB0419084D05E000F07DFBA042A4
:100E400001D3032070BD2869C043C003F5D5034812
:100E50002861002070BD00000020024011800000C9
:100E600010B5034602F092FAD8B202F02BFA02F063
:100E700099FA08488168084A1140091D8160016893
:100E80004907C90F0029FAD004210160006C80B223
:100E900010BD000000240140E8FFFF7FF8B5444882
:100EA000444DC07800268007434C00280BDA1920F7
:100EB0002075E661A069401CA061562802D9A66190
:100EC00001202870F8BD28783C4F002808D02E70EB
:100ED0003878002803D03878401E387000E03E7023
:100EE000207D002802D0401E2075F8BDFFF73EFD92
:100EF0002F48C078400756D539782F4820306329CD
:100F00002ED839785A2902D21E21697001E00A21AF
:100F100069703A7821682A4B92009A586B78D218F7
:100F2000914224D9FF22E169C332914202D2491C85
:100F3000E1611CE0E6613978632906D03978491C03
:100F400039702673A6612E7011E01E4A616A9142C3
:100F500002D2491C6162F4E73978491C3970F0E724
:100F6000E6616421397001210175A6612E7039781E
:100F7000642903D36421397001210175017D0029A1
:100F800011D0114A216891420DD2104A01211170ED
:100F900041776121397005221207116803239B02F2
:100FA000994311600675387800F012F82061F8BD99
:100FB0008C010020C80000209C010020100A0020A5
:100FC000A84F000870170000D20F00001C0000207E
:100FD0000020704710B50A4808490068FFF78AF8F2
:100FE000084908700878642801D3642008700878DC
:100FF00000F00CF80449486310BD000000E2040052
:10100000000A0020200A0020500100200020704724
:1010100070B50020FFF724FF074CA061074D296839
:101020004843000BE0610720FFF71AFFA061296821
:101030004843000B206270BD500100209C0100203D
:1010400070B5FFF793FCFFF791FCFFF78FFC134B94
:1010500000201873124C1968124AA14203D810706C
:101060000120187311E01048814202D964201070E9
:101070000BE001200D4C85006559A94201D210708A
:1010800003E0401CC0B26428F5D31078FFF7A0FF3E
:10109000186110780649486470BD00009C0100206A
:1010A0006C0C0000100A002018100000A84F000867
:1010B000F000002010B5FFF759FC0120FFF7D0FE2B
:1010C00002490A684243100BC86210BD9C0100200F
:1010D000F8B50021C9434948426B4163406B009019
:1010E000474D00220421284600F064FB0022042121
:1010F000284600F09DFB802005242407A0614020A5
:10110000A06101228021204600F054FB00228021B2
:10111000204600F081FB01224021204600F04AFBDE
:1011200000224021204600F077FB364E0122114676
:10113000304600F03FFB00220121304600F06CFBFE
:101140000120B06101220821284600F033FB002273
:101150000821284600F060FB03220821284600F001
:101160007BFB01222021284600F024FB00222021C5
:10117000284600F051FB03222021284600F06CFB9A
:1011800000220221204600F015FB022211462046D3
:1011900000F04EFB03220821204600F00BFB00224A
:1011A0001021204600F006FB01221021204600F00D
:1011B0003FFB00222021204600F0FCFA01222021E2
:1011C000204600F0F7FA00222021204600F024FB00
:1011D00000222021204600F02BFB03222021204664
:1011E00000F03AFB03220221284600F0E3FA032232
:1011F0000121284600F0DEFAF8BD00000010024090
:10120000000400500008005070B50120534EB0613A
:10121000C00200F0DDF9300100F0DAF95048016851
:10122000012421430160B000016821430160802056
:1012300005252D07A86101228021284600F0D8FA53
:1012400000228021284600F0EDFA4020A86101220A
:101250004021284600F0CCFA00224021284600F028
:10126000E1FA01221146304600F0C2FA00220121C3
:10127000304600F0D7FAB46103F016FD394C032272
:101280000221204600F0B4FA00220221204600F09C
:10129000D9FA03220121204600F0AAFA00220121F6
:1012A000204600F0CFFA00220421204600F0A0FAE8
:1012B00000220421204600F0C5FA01220821204620
:1012C00000F096FA00220821204600F0ABFA032233
:1012D0000821204600F0CAFA01222021204600F011
:1012E00087FA00222021204600F09CFA03222021C8
:1012F000204600F0BBFA00220221284600F078FACE
:1013000003220821284600F073FA00221021284603
:1013100000F06EFA01221021284600F093FA002214
:101320002021284600F064FA01222021284600F0FE
:101330005FFA00222021284600F074FA03222021BF
:10134000284600F093FA02220421284600F07AFA97
:1013500001224021204600F075FA70BD00080050BF
:10136000002C014000040050012005494A69C307D0
:101370001A434A614969002900DA002070470000D9
:1013800000200240F8B5474F397801297ED001216D
:101390003970454949680904490F444B1D688A0062
:1013A000434989580A68D405E40DA5422AD15D68ED
:1013B0001601B60DB54225D11D699203D20D954295
:1013C00020D19D684A68D605F60DB5421AD1DD6870
:1013D0001201120D954215D15A698D68AD03AD0BFE
:1013E000AA420FD19A69CD68AD03AD0BAA4209D1CB
:1013F000DD690A6996B2B54204D11D6A9200920C69
:1014000095421FD01C600A681201920D5A600A684A
:101410009203D20D1A618A88D205D20D9A604A6869
:101420001201120DDA608A689203920B5A61CA683F
:101430009203920B9A610A8A92B2DA610969890071
:10144000890C196201781B4CC90703D08188C943F4
:1014500089B2E1620178890704D5C2688168120205
:10146000114361620178090703D541690069FFF7FB
:10147000CFFC606901214904084360616069C901CA
:10148000084360610949FF20803900E007E00860F7
:101490007D20C000FFF7CAFC00213970F8BD022092
:1014A000F8BD0000D80000200010024000210240DA
:1014B000704E000800200240034841690122D20614
:1014C000114341610120704700200240012005497D
:1014D0004A6983071A434A614969490000D50020D7
:1014E0007047000000200240012006494A6952006E
:1014F00007D5054ACA60054ACA604969490000D44F
:1015000000207047002002403B2A19087F6E5D4C86
:10151000002006494A69002A07DA054A8A60054A16
:101520008A604969002900DA0120704700200240E2
:1015300023016745AB89EFCD014880687047000003
:1015400008000020FEE7000070B500228368DB077A
:10155000DB0F002B02D00122104670BD8C684B6857
:10156000C5682343CC68064E35402C432343C360F3
:10157000036909681B011B090B430361ECE70000C9
:10158000C7BFFFFF10B500228368DB07DB0F002B0E
:1015900002D00122104610BD4C680B6823438C68B2
:1015A000C9680C43C1682343024C21400B43C3600C
:1015B000F0E700003FC2FEFF08B504490A68024395
:1015C0000A6009680140009108BD00004010024017
:1015D00008B504490A6802430A600968014000919D
:1015E00008BD00004010024010B5002203792C4CC9
:1015F0000168002B4AD000294FD04379002B12D02C
:10160000012B18D0022B1ED001228179002944D051
:10161000234B803B01291ED0022925D003292CD041
:101620000220024339E063688B43636001682368EA
:101630000B432360E9E723688B43236001686368F9
:101640000B436360E1E723680B4323600168636831
:101650000B436360D9E701685C688C435C60006899
:1016600019680143196018E001681C688C431C600C
:1016700000685968014359600FE001681C680C4319
:101680001C60006859680143596006E023688B4379
:1016900023600068616881436160104610BD0000EE
:1016A000801802400349C968884301D00020704770
:1016B000012070470018024010B50A02130E0A0AF2
:1016C00089070C0F044961180C6E93409C439040AD
:1016D00004430C6610BD000000180240F0B5002362
:1016E0003EE001249C402240002A38D04F68144636
:1016F0000668644365006519AE4367433E43066070
:101700004E68012E01D0022E05D18F68866867438E
:10171000AE433E4386600F69C668AE4325467D43AF
:101720002E43C6604D68022D19D1FF2A0AD84D6993
:10173000066A54435443E200121B96436C4326430B
:1017400006620CE04D69140A22466243624362431A
:10175000D400A61A446A6A43B443144344625B1C2F
:101760000A681446DC40BCD14A68012A01D0022A2A
:1017700006D10A68C968436893434A4313434360E8
:101780000020F0BD0069814301D000207047012096
:1017900070470069814301D00020704701207047E5
:1017A00010B5036849434C000C19A34351430B4344
:1017B000036010BD10B5036849434C000C19A343E6
:1017C00051430B43036010BD10B5036849434C00FF
:1017D0000C19A34351430B43036010BD10B50368BC
:1017E00049434C000C19A34351430B43036010BD04
:1017F00010B5036849434C000C19A34351430B43F4
:10180000036010BD10B5036849434C000C19A34395
:1018100051430B43036010BD43688B4351430B435B
:101820004360704743688B4351430B4343607047A9
:1018300010B5C36849434C000C19A34351430B43F3
:10184000C36010BD10B5C36849434C000C19A343D5
:1018500051430B43C36010BD10B5836849434C002E
:101860000C19A34351430B43836010BD10B583682B
:1018700049434C000C19A34351430B43836010BDF3
:1018800010B57D21C900FEF735FC0449401E4861B2
:10189000002088610520086110BD000000E000E024
:1018A00010B500220369DB07DB0F002B01D00122FA
:1018B00007E00B6849680B43C168034C21400B43A8
:1018C000C360104610BD0000FFF1BFFF0149086072
:1018D000704700000000002030B50268104B9842AD
:1018E00003D17024A2434C6822430E4C984201D08D
:1018F000A04204D103252D02AA43CD682A430260E9
:101900008A68C2620A888262984201D0A04201D1EC
:10191000097C01634169012211434161002030BD0E
:10192000002C01400020004008B507490A690092D8
:10193000421C05D0401C03E00A69D20300D5401EBA
:101940000028F9D108BD000000E000E07047000069
:101950008307FF22DB0E9A408907090E9940002871
:101960000BDA0007000F0838830808489B00181896
:10197000C36993430B43C3617047830804489B00CA
:101980001818036893430B430360704700ED00E0B1
:1019900000E400E08307FF22DB0E9A408907090E6E
:1019A000994000280BDA0007000F08388308084820
:1019B0009B001818C36993430B43C36170478308A6
:1019C00004489B001818036893430B430360704757
:1019D00000ED00E000E400E0F8B5FE48FE4EC078FF
:1019E0003446C1070127FD4D203C002976D0F94B34
:1019F00041084900D970A07D002808D12246203A2C
:101A0000107B132803D00020A07550731073F24888
:101A10004038427B002A61D1F14A527A012AE5D04E
:101A200049075BD400210170FEF7A0FFFA20401E99
:101A3000C0B20028FBD1EB480078012802D0022870
:101A400005D009E0E548E8492038C16204E0E649EC
:101A5000E24832392038C162E448017B00291CD0B9
:101A600006460773E24800250570DB48042140382C
:101A70000173E0492575A77567760D700563DE482B
:101A800005700023322219210A20009501F046F842
:101A9000B5612575D9480570F8BDD448D8490068A6
:101AA00088421CD8D14E3773D14800250570D248E2
:101AB000D04AC949042340390B732575A775677649
:101AC00015700D6305700023322219210A2000953C
:101AD00001F024F8B561C9480570F8BD76E1BF4949
:101AE000002020390870487001F09EFABF48007B42
:101AF00000280BD1BE480078002807D000202876A7
:101B0000322080210522120791621AE0B74807733C
:101B1000B74900200870B04A0421403A1173B54912
:101B20002075A775677608701063B3490870009038
:101B30000023322219210A2000F0F0FFCDE7401ED9
:101B4000C0B20028FBD1FFF78BF9A4492039886186
:101B50008022052109078A61FF221201904202D9E1
:101B6000287E401C2876FA20401EC0B20028FBD1F7
:101B700032208022052109078A6201E0401EC0B29E
:101B80000028FBD1FFF76CF9944B203B9861802132
:101B9000052212079161FF210901884202D9297E9D
:101BA000491C29769149E12209681201914202D823
:101BB000944A5A6202E0934A14325A6287492039A1
:101BC000496A884215D884480621403801738949FA
:101BD00000252575A77565760D700563357303F0CF
:101BE00063F80023322219210320009500F096FFAC
:101BF00073E7287E022819D300202876764807212B
:101C0000403801737B4A00212175A77561761170F8
:101C100001630020307303F047F800200346009072
:101C200032221921052000F079FF56E7002028769E
:101C30003220402105221207916201E0401EC0B20D
:101C40000028FBD10720FFF70BF964492039886190
:101C50004022052109078A61FF221201904202D920
:101C6000287E401C2876FA20401EC0B20028FBD1F6
:101C700032204022052109078A6201E0401EC0B2DD
:101C80000028FBD10720FFF7EBF8544B203B98616D
:101C90004021052212079161FF210901884202D9E2
:101CA000297E491C29765A6A1946904215D84A4815
:101CB0000621403801734F4900252575A7756576C3
:101CC0000D700563357302F0EFFF002332221921F6
:101CD0000320009500F022FFFFE6287E022815D39E
:101CE0003D48072140380173424900252575A775F5
:101CF00065760D700563357302F0D6FF002332223E
:101D000019210520009500F009FFE6E664202872FD
:101D10000020087533480078012802D0022832D00C
:101D20003FE02E4806212038C078401CFEF7E2F93B
:101D30002A482038C170032901D2012000E0002088
:101D400026492039887000280ED0C820087300204A
:101D500088734873C8730F70802205231B079A622B
:101D60004870402098611CE0002008738873C822E6
:101D70004A73C873087080200522120790614F7063
:101D8000402090620DE0C820087300228A734873D7
:101D9000CA730F7080200522120790624F70402096
:101DA00090620222227605200007016803239B022D
:101DB00099435302194301602021816100F0A0FE84
:101DC0000449C8781043C8700B4807700148C078B0
:101DD000800719E08C0100203001002070010020F4
:101DE00044010020D3000020AC0D00009C01002025
:101DF000100A00201D0000201C000020C800002048
:101E00006C0C00000A0F000070D5287A002828D03A
:101E10007F4D2878002842D0A87C00283FD00020A1
:101E2000FFF71EF8A861A97C002938D0FF38AF2140
:101E3000F5380901884232D2764806210173764985
:101E400000252575A77565760D700563357302F05D
:101E50002BFF0023322219210320009500F05EFEA3
:101E60003BE66C480821017300252575A775677648
:101E7000694805706748056368480570357302F066
:101E800013FF0023322219210620009500F046FEA0
:101E900060480577604805705E4845771DE66878BC
:101EA000002824D0E87C002821D00720FEF7D8FFA6
:101EB000A861E97C00291AD0FF385949F6388842D0
:101EC00015D2544806210173534900252575A7757D
:101ED00065760D700563357302F0E6FE002332224D
:101EE00019210320009500F019FEF6E585E0287C15
:101EF0002E4601283ED100253574FEF737FD4948AE
:101F00000168AF200001814202D8307D401C30754D
:101F1000307D032816D33F48052101733E492575BE
:101F2000A77567760D7005633C4805700023322263
:101F300019210420009500F0F1FD3B480570394857
:101F40008561CAE5FFF764F8F06AC8225043F16979
:101F5000FEF7D0F8B060C82802D3C820307309E07B
:101F6000322802D83220307304E04043C821FEF703
:101F7000C1F83073707C012890D100257574FEF78C
:101F8000F5FC28480168AF200001814202D8307D6D
:101F9000401C3075307D032816D31E480421017380
:101FA0001D492575A77567760D7005631B4805707B
:101FB0000023322219210A20009500F0AFFD1A48B3
:101FC00005701848856188E5FFF722F8F06AC82295
:101FD0005043316AFEF78EF8B060C82802D3C8209B
:101FE00030737AE5322802D83220307375E54043E9
:101FF000C821FEF77FF870736FE505480021017076
:10200000417080200521090788614020886164E5CE
:1020100050010020F00000201D0000201C000020C6
:10202000EF0A00009C010020C800002070B50F4D91
:10203000E878800719D5802005242407A061402076
:10204000A061FEF7ADFC0A49002008704870E878EE
:1020500040084000FD210840E87000222021204671
:10206000FFF7BCFB03490120087070BD8C01002004
:10207000500100201D00002070470000F8B5052029
:1020800002210007FFF77EFB0126814F002803D0C5
:1020900038783043387003E03878400840003870B2
:1020A000FFF708F87B48FF21C06A5F31884204D3FC
:1020B000387804210843387003E03878FB21084061
:1020C000387004217448FFF75DFB00280FD0387882
:1020D000FD210840387038787978704D00248842A6
:1020E00074D0BA78032A07D2521CBA706FE03878DD
:1020F000022108433870EEE7C20706D0CA0704D1B0
:10210000674A1672FA783243FA70C00707D1C807D7
:1021100005D0F87840084000F870FFF787FF38785E
:1021200081070BD57978890708D4322179715D4907
:102130000E7039790A2901D2491C3971810706D4F8
:102140007978890703D51E21797156490C704007AB
:1021500017D57878400714D4534804702C7502F0D2
:10216000A3FD4E48092120380173052000222021BB
:102170000007FFF733FB00F0ABFCF87804210843BD
:10218000F870387840070AD47878400707D502F00D
:102190008BFD00F09DFCF878FB210840F870387842
:1021A000010706D57978090703D4F9780822114385
:1021B000F970010706D47978090703D5F978F72271
:1021C0001140F970BC70787001E0FFE7BC703549D0
:1021D0000878002831D04868401C48603049097AA6
:1021E00000291BD1FF212D31884217D37D21C90041
:1021F000884213D829490320203908732A480470DB
:102200002C7502F051FD0023FF22C3321946012034
:10221000009400F083FC224806720FE023498842B4
:102220000CD31F4B1C720421214802688A430260B0
:1022300042688A4342601C7000E04C607879002854
:1022400002D0401E7871F8BD387901281DD1194897
:102250000178012905D006701148007A002803D0C2
:1022600013E002210170F7E70C49032020390873BD
:102270000D4804702C7502F017FD0023FF22C332B5
:1022800019460120009400F049FC3C71F8BD0000A3
:102290008C0100209C01002000040050100100204F
:1022A00044010020C00000201D000020B80B0000E9
:1022B00000180240D300002010B5052002210007BD
:1022C000FFF760FA164C002803D02078012108435C
:1022D0002070FEF7EFFE1348FF21C06A5F3188428D
:1022E00004D3207804210843207003E02078FB21E8
:1022F0000840207004210C48FFF744FA002809D058
:102300002078FD21084020700849002008702078BE
:10231000607010BD2078022108432070F4E70000AF
:102320008C0100209C01002000040050C00000200F
:10233000F0B58DB00446002C01D100F0C9FB192C7A
:1023400077D22046FEF7D8F80022FE4BFDF7ECFFCF
:102350000022FD4BFEF750F8FEF7F0F8C5B2FB483F
:1023600000222946007801F019FBF948002229468D
:10237000007801F0ABF8284601F00AFB284601F08E
:102380009EF8284601F090F8284601F0BDFA002595
:10239000F04E1922735D0021204602F003FD6D1CF2
:1023A000EDB2522DF5D30B2C1FD260230B2200214E
:1023B000204602F0F7FC62230B220021204602F0A7
:1023C000F1FC2D230B220021204602F0EBFC6723B9
:1023D0000B220021204602F0E5FC7A230B2200218B
:1023E000204602F0DFFC0DB0F0BD20460C380D2871
:1023F000F9D25F2319220C21204602F0D3FC61237D
:1024000019220C21204602F0CDFC2C2319220C218C
:10241000204602F0C7FC662319220C21204602F058
:10242000C1FC7B2319220C21204602F0BBFCDAE719
:10243000FFE7C8482546193D5B30192D7DD200269F
:102440000746BB5D32221921204602F0D1FC761CE2
:10245000F6B20D2EF5D32846FEF74EF8B94E0022FF
:102460003346FDF761FF0022B74BFDF7C5FF0022A1
:102470003346FDF750FFFEF761F8C0B201F044FAB1
:102480000B2D2AD2892324221921204602F08AFC0E
:102490002F2324221921204602F084FC60232422C9
:1024A0001921204602F0A4FC62232422192120468F
:1024B00002F09EFC2D2324221921204602F098FCD4
:1024C000672324221921204602F092FC7A23242239
:1024D0001921204602F08CFC85E7204625380D287E
:1024E00081D2882332222521204602F05BFC2E2354
:1024F00032222521204602F055FC5F23322225217D
:10250000204602F075FC612332222521204602F08C
:102510006FFC2C2332222521204602F069FC662321
:1025200032222521204602F063FC7B233222252122
:10253000204602F05DFC56E7FFE72146854E323922
:1025400052360C91192947D2002507467B5D4B2254
:102550003221204602F026FC6D1CEDB20D2DF5D384
:102560000025735D4B223221204602F041FC6D1C98
:10257000EDB2092DF5D30C98FDF7BEFF0022714B8B
:10258000FDF7D2FE0022704BFDF736FFFDF7D6FFB8
:10259000C0B201F0B9F90C980B280CD289233D2266
:1025A0003221204602F024FC2F233D2232212046F6
:1025B00002F01EFC17E720463E380D288CD28823F7
:1025C0004B223E21204602F013FC2E234B223E21BB
:1025D000204602F00DFC06E721464B390B911929E4
:1025E0002CD2002507467B5D64224B21204602F059
:1025F000FFFB6D1CEDB20D2DF5D30025735D64223C
:102600004B21204602F0CEFB6D1CEDB2092DF5D317
:102610000B98FDF771FF4B4C00222346FDF784FE1B
:102620000022494BFDF7E8FE00222346FDF773FE2A
:10263000FDF784FFC0B201F067F9D4E621466439A2
:102640000A91192927D2002507467B5D7D22642146
:10265000204602F0A7FB6D1CEDB20D2DF5D3002531
:10266000735D7D226421204602F0C2FB6D1CEDB239
:10267000092DF5D30A98FDF73FFF0022314BFDF7F6
:1026800053FE0022304BFDF7B7FEFDF757FFC0B2F7
:1026900001F03AF9A7E621467D39099119292CD292
:1026A000002507467B5D96227D21204602F0A0FB97
:1026B0006D1CEDB20D2DF5D30025735D96227D21A5
:1026C000204602F06FFB6D1CEDB2092DF5D3099881
:1026D000FDF712FF1B4C00222346FDF725FE0022CA
:1026E000194BFDF789FE00222346FDF714FEFDF786
:1026F00025FFC0B201F008F975E621469639089128
:10270000192932D2002507467B5DAF22962120464B
:1027100002F048FB6D1CEDB20D2DF5D30025735D65
:10272000AF229621204602F063FB6D1CEDB2092D0D
:10273000F5D30898FDF7E0FE0022024BFDF7F4FD0B
:10274000002209E000E06F4000003940200A00202C
:10275000100A0020404F0008DA4BFDF74DFEFDF750
:10276000EDFEC0B201F0D0F83DE62146AF39079149
:1027700019292CD2002507467B5DC822AF212046AF
:1027800002F036FB6D1CEDB20D2DF5D30025735D07
:10279000C822AF21204602F005FB6D1CEDB2092DC9
:1027A000F5D30798FDF7A8FEC74C00222346FDF796
:1027B000BBFD0022C34BFDF71FFE00222346FDF7A1
:1027C000AAFDFDF7BBFEC0B201F09EF80BE6214664
:1027D000C8390691192927D2002507467B5DE122D9
:1027E000C821204602F0DEFA6D1CEDB20D2DF5D3A6
:1027F0000025735DE122C821204602F0F9FA6D1C24
:10280000EDB2092DF5D30698FDF776FE0022AE4B0A
:10281000FDF78AFD0022AB4BFDF7EEFDFDF78EFEC6
:10282000C0B201F071F8DEE52146E13905911929C0
:102830002CD2002507467B5DFA22E121204602F0DA
:10284000D7FA6D1CEDB20D2DF5D30025735DFA227C
:10285000E121204602F0A6FA6D1CEDB2092DF5D358
:102860000598FDF749FE984C00222346FDF75CFDD4
:102870000022944BFDF7C0FD00222346FDF74BFDDF
:10288000FDF75CFEC0B201F03FF8ACE52146FA3935
:10289000FF2314330491192928D200251F468B48A1
:1028A0003A46435DFA21204602F07CFA6D1CEDB2F7
:1028B0000D2DF4D30025735D3A46FA21204602F02F
:1028C00097FA6D1CEDB2092DF5D30498FDF714FEAF
:1028D00000227D4BFDF728FD00227A4BFDF78CFD91
:1028E000FDF72CFEC0B201F00FF87CE52146FF3960
:1028F0001439FF222D32039119292FD200251746B2
:102900007248FF21435D3A461431204602F070FAC6
:102910006D1CEDB20D2DF3D30025FF21735D3A46FA
:102920001431204602F03EFA6D1CEDB2092DF4D3AD
:102930000398FDF7E1FD644C00222346FDF7F4FC0B
:102940000022604BFDF758FD00222346FDF7E3FC13
:10295000FDF7F4FDC0B200F0D7FF44E52146FF3992
:102960002D39FF234633029119292CD20025174611
:102970005648FF22435D46323946204602F012FA9D
:102980006D1CEDB20D2DF3D30025FF274637FF2137
:10299000735D3A462D31204602F02AFA6D1CEDB2E5
:1029A000092DF4D30298FDF7A7FD0022464BFDF751
:1029B000BBFC0022434BFDF71FFDFDF7BFFDC0B27E
:1029C00000F0A2FF0FE52246FF3A463A0192192A8B
:1029D00031D200251F463D48FF22435D5F32394614
:1029E000204602F005FA6D1CEDB20D2DF3D3002543
:1029F000FF275F37FF21735D3A464631204602F0DC
:102A0000D1F96D1CEDB2092DF4D30198FDF774FDD9
:102A10002D4C00222346FDF787FC0022294BFDF7B1
:102A2000EBFC00222346FDF776FCFDF787FDC0B2E4
:102A300000F06AFFD7E42246FF3A5F3AFF27783773
:102A40000092192A29D200252048FF21435D3A46E9
:102A50005F31204602F0A6F96D1CEDB20D2DF3D3C7
:102A60000025FF21735D3A465F31204602F0C0F930
:102A70006D1CEDB2092DF4D30098FDF73DFD002249
:102A8000114BFDF751FC00220E4BFDF7B5FCFDF795
:102A900055FDC0B200F038FFA5E42046FF38783875
:102AA00019288FD20025FF2000F02EFFFF22735D32
:102AB00091323946204602F075F96D1CEDB2092DB0
:102AC000F1D390E40000394000E06F409B4F0008D4
:102AD00010B54820FDF73CFF01F012FD7820FDF70E
:102AE00017FF6820FDF714FF00240020FDF710FFFA
:102AF000641C902CF9D301F015FD10BD7047000047
:102B00000449034808600449C04308607047000056
:102B1000AAAA5555300A0020400A0020FFB581B00E
:102B200004460D46164605273F0700222021384659
:102B3000FEF74AFE0F480078FEF74AFA0E490020D9
:102B4000087048700D4AD17849084900FD231940A2
:102B5000D1708021B9614021B961094B18625C7361
:102B60005D629E62049858600A989860FDF718FFAD
:102B700005B0F0BD100A0020500100208C0100209B
:102B8000F0000020064800680649884204D0064844
:102B90000068C943884201D1012070470020704776
:102BA000300A0020AAAA5555400A0020F8B52F483F
:102BB0001E26407B2E4C00281DD105273F071021E3
:102BC0003846FEF7E6FD002815D02A48C078810770
:102BD00011D44107284807D501462031097D002935
:102BE00009D0816B002906D1007D002803D123483C
:102BF0000078002801D02670F8BD20780028FBD18D
:102C000000F037FC01201E49886200252572E0791A
:102C1000002802D0E571FEF713FA14482030C5757C
:102C20001848057045708020B8614020B86101F0F7
:102C3000D5F8FEF7E9FA0421134802688A430260D6
:102C4000022102688A430260102102688A430260FE
:102C5000042142688A434260022142688A434260FA
:102C6000102142688A4342602670F8BDF0000020BF
:102C7000440100208C0100209C0100201D00002048
:102C8000000800505001002000180240F0B58DB03F
:102C9000182107A8FDF74BFA02270797002408948C
:102CA000032509950A940B9707A97E48FEF716FDA0
:102CB0007C488762802005263607B0614020B061DD
:102CC000002202217848FEF793FD02221146764841
:102CD000FEF7B8FD002201217348FEF789FD0222AC
:102CE00001217148FEF7AEFD012280213046FEF73A
:102CF0007FFD032280213046FEF7B8FD00228021AF
:102D00003046FEF78FFD012240213046FEF770FD70
:102D1000032240213046FEF7A9FD00224021304623
:102D2000FEF780FD002204215F48FEF761FD0022CE
:102D300004215D48FEF786FD002202213046FEF7A1
:102D400057FD032208213046FEF752FD00221021D4
:102D50003046FEF74DFD012210213046FEF772FD90
:102D6000002220213046FEF743FD0022202130467C
:102D7000FEF768FD002208214B48FEF739FD0022CE
:102D800008214948FEF75EFD002220214648FEF753
:102D90002FFD002220214448FEF754FD0122114658
:102DA0004048FEF725FD032201213E48FEF75EFD67
:102DB000002201213B48FEF735FD01203949886298
:102DC000002204213046FEF713FD00220421304684
:102DD000FEF738FD002240213348FEF709FD0022AE
:102DE00040213148FEF72EFD3048314A0168042069
:102DF0000126914215D202940190684606724672ED
:102E0000857201A8FEF7F0FB312109030120FEF7CE
:102E100053FC00210620FEF7BDFD26494020086036
:102E200015E002940190684604724672857201A80A
:102E3000FEF7DAFB312109030120FEF73DFC0021FA
:102E40000620FEF7A7FD1B4940208031086006944C
:102E50000597684606764676857605A8FEF7C4FB94
:102E60006121C9020020FEF727FC00210520FEF7A2
:102E700091FD104F20203860049410200390684684
:102E800006744674857403A8FEF7AEFB0A49002059
:102E9000FEF712FC00210720FEF77CFD8020386041
:102EA0000DB0F0BD0008005000040050C400002028
:102EB000B80B000000E100E001000300F8B5544841
:102EC000017800293AD05349544DC9782C468907D6
:102ED000514F2034002600294ADA01F0E5FEFDF7C3
:102EE00045FD2E63207D002801D1FFF7F1FDE86A42
:102EF000401CE862C72800D3EE6201262675484CC4
:102F0000207801281BD0022818D1E86A01F082F845
:102F10000022FF21387800F041FD42480022FF21C5
:102F2000007800F0D3FAFF2000F0C9FAFF2000F08B
:102F3000BBFAFF2000F02CFD02206070F8BDE86AAB
:102F400001F028FB0022FF21387800F027FD3548EA
:102F50000022FF21007800F0B9FAFF2000F0AFFA5C
:102F6000FF2000F0A1FAFF2000F012FD6670F8BD0E
:102F700027484078012802D02675EE62F8BD286BFC
:102F8000401C2863E86A401CE862C72800D3EE6250
:102F900023484078012802D0022818D02EE0E86AA1
:102FA00001F0F8FA0022FF21387800F0F7FC1D4804
:102FB0000022FF21007800F089FAFF2000F07FFA5C
:102FC000FF2000F071FAFF2000F0E2FC16E0E86A52
:102FD00001F020F80022FF21387800F0DFFC1148D2
:102FE0000022FF21007800F071FAFF2000F067FA5C
:102FF000FF2000F059FAFF2000F0CAFC286BC82817
:10300000BCD9034846702E632675FFF761FDF8BDF5
:103010001C0000208C010020200A0020F00000206D
:10302000D3000020100A002010B5104910480A7D76
:10303000002A15D10278012A02D8012202700FE07D
:103040000278521ED2B20B4C9200A2580B689342E7
:1030500006D200238B610278521E0270064A13705A
:103060000078FDF7B5FF086110BD00009C0100204D
:10307000100A0020A84F0008C80000207047000078
:1030800010B50C4841680C4A090C12680904114338
:1030900041604168094A1140074A4032928812044F
:1030A000114341600649C00388606420FDF768FE53
:1030B00010BD0000001002400001FF1FFFFF00FED6
:1030C00000ED00E0F8B552480169C90769D0C16850
:1030D000C907C90F002964D00121C94301614D48C6
:1030E0000178491C01704C4D0522287812074B4E7F
:1030F00000210123002825D02C7B002C05D0A87BA3
:10310000C8280BD2401CA87309E0F078FD242040A9
:10311000F070A973A9748020906113E0A973A87B53
:10312000A04202D28027976201E0802797610D2894
:1031300000D12B74012804D9641EA04201DAAB74BB
:1031400000E0A9746878002825D06C7B002C05D09D
:10315000E87BC8280BD2401CE87309E0F078FD2416
:103160002040F070E973E9744020906113E0E97346
:10317000E87BA04202D24027976201E04027976196
:103180000D2800D16B74012804D9641EA04201DA15
:10319000EB7400E0E974224C60780A2802D2401CEB
:1031A0006070F8BD63702371A0780A2802D2401CB9
:1031B000A070F8BDA3706371F078800711D519492C
:1031C000086800280DD018480078012802D002288D
:1031D00004D006E008686438086002E008689138A6
:1031E0000860E0780A2802D2401CE070F8BDE37065
:1031F000A371FDF7EFFE08492031087A002801D0BD
:10320000401E087220780028F0D0401E2070F8BDC3
:103210000020004004000020500100208C0100200C
:1032200044010020000A0020D30000200648016964
:10323000C90707D0C168C907C90F002902D00121F9
:10324000C943016170470000002C01402021020C9D
:1032500001D010211046020A01D010460839020997
:1032600001D01046091F820801D01046891E42086D
:1032700001D0881E7047081A704730B47446641E27
:103280002578641CAB4200D21D46635D5B00E318E9
:1032900030BC184702E008C8121F08C1002AFAD142
:1032A00070477047002001E001C1121F002AFBD1C6
:1032B0007047002102E000BF491C89B28142FAD365
:1032C0007047000070B5014605202C4D2C4C0007BE
:1032D0000B00FFF7D2FF0A060E151C232A323A42D2
:1032E000460D032202212846FEF75AFA0120A06269
:1032F00070BD03220821FEF753FA0220A06270BDC0
:1033000003221021FEF74CFA0420A06270BD0322B4
:103310004021FEF745FA0820A06270BD03228021FB
:10332000FEF73EFA1020A06270BD0322012115486D
:10333000FEF736FA2020A06270BD03224021284605
:10334000FEF72EFA4020A06270BD0322012128461C
:10335000FEF726FA8020A06270BDFF200130A06237
:1033600070BD01204002A0624203074908680323A0
:103370009B0598431043086070BD00000004005096
:1033800000240140000800500827014003498868D4
:10339000034A1040801C88607047000000240140F0
:1033A000E8FFFF7F00B505498868054A1040401CCA
:1033B0008860082000F050F800BD000000240140A3
:1033C000E8FFFF7F30B58BB021490A6B0120000573
:1033D00002430A630A6B82430A631D4940310A684B
:1033E00002430A600968014001910024089409948D
:1033F0000A9403940494059406940294000207909E
:10340000144D07A92846FEF79FF8072069698143F4
:10341000014369610594A81406900494039403A9D8
:103420002846FEF7AFF8A868C007C00F00280CD1E7
:10343000A86817218843C9070843A860A868C10F76
:103440000029FBD10120FEF76FFA0BB030BD000060
:103450000010024000240140002207E0002100BFCC
:10346000491C89B22029FAD3521C92B28242F5D368
:10347000704710B5FFF72CFB6F20FDF769FA10BD00
:1034800010B501F03DF87820FDF742FA6820FDF70D
:103490003FFA0024FF20FDF73BFA641CE4B2902CB5
:1034A000F8D301F03FF810BD10B5044621460F20B7
:1034B00001F0C2FC21460F2001F0BEFC10BD10B58A
:1034C0000146172001F0B8FC10BD0000F7B582B02E
:1034D0000446264F264D786C2E46283EA04208D042
:1034E000002000F047F8296A00208847316A002050
:1034F0008847049800280BD0039800F03BF8296A0D
:1035000003988847316A039888477C6405B0F0BD0A
:1035100020460A385A280ED20A212046FCF7EAFD36
:1035200080000191295803988847019988003158F3
:1035300003988847E9E7642C0DD00A2CE5D2296866
:10354000002088470A212046FCF7D4FD8800315826
:1035500003988847D9E7039800F00CF82968039886
:103560008847316803988847CFE70000F0000020C3
:103570004800002010B501460E2001F05DFC10BD92
:1035800010B504462146072001F056FC21460820CC
:1035900001F052FC2146092001F04EFC21460A2090
:1035A00001F04AFC21460B2001F046FC21460C208C
:1035B00001F042FC10BD10B504462146082001F080
:1035C0003BFC2146092001F037FC10BD10B5044634
:1035D0002146072001F030FC2146082001F02CFC98
:1035E00021460A2001F028FC21460B2001F024FC92
:1035F00021460D2001F020FC10BD10B504462146E7
:10360000072001F019FC2146082001F015FC214695
:10361000092001F011FC21460A2001F00DFC214691
:103620000D2001F009FC10BD10B50446214608200C
:1036300001F002FC2146092001F0FEFB21460C208E
:1036400001F0FAFB21460D2001F0F6FB10BD10B58C
:1036500004462146072001F0EFFB2146092001F036
:10366000EBFB21460A2001F0E7FB21460C2001F08C
:10367000E3FB21460D2001F0DFFB10BD10B5044631
:103680002146072001F0D8FB2146092001F0D4FB98
:1036900021460B2001F0D0FB21460A2001F0CCFB93
:1036A00021460C2001F0C8FB21460D2001F0C4FB8F
:1036B00010BD10B504462146072001F0BDFB214690
:1036C000082001F0B9FB2146092001F0B5FB10BD2F
:1036D00010B504462146072001F0AEFB2146082024
:1036E00001F0AAFB2146092001F0A6FB21460A2091
:1036F00001F0A2FB21460B2001F09EFB21460C208D
:1037000001F09AFB21460D2001F096FB10BD10B58B
:1037100004462146072001F08FFB2146082001F0D6
:103720008BFB2146092001F087FB21460A2001F08E
:1037300083FB21460C2001F07FFB21460D2001F088
:103740007BFB10BD10B504462146002001F074FB40
:103750002146012001F070FB2146022001F06CFBA4
:103760002146032001F068FB2146042001F064FBA0
:103770002146052001F060FB10BD10B5044621462E
:10378000012001F059FB2146022001F055FB10BD3C
:1037900010B504462146002001F04EFB21460120D1
:1037A00001F04AFB2146032001F046FB214604209C
:1037B00001F042FB2146062001F03EFB10BD10B592
:1037C00004462146002001F037FB2146012001F08C
:1037D00033FB2146022001F02FFB2146032001F09C
:1037E0002BFB2146062001F027FB10BD10B5044637
:1037F0002146012001F020FB2146022001F01CFBA4
:103800002146052001F018FB2146062001F014FB9B
:1038100010BD10B504462146002001F00DFB2146E5
:10382000022001F009FB2146032001F005FB21469F
:10383000052001F001FB2146062001F0FDFA10BD34
:1038400010B504462146002001F0F6FA2146022078
:1038500001F0F2FA2146032001F0EEFA214604209D
:1038600001F0EAFA2146052001F0E6FA2146062099
:1038700001F0E2FA10BD10B504462146002001F027
:10388000DBFA2146012001F0D7FA2146022001F09F
:10389000D3FA10BD10B504462146022001F0CCFA3F
:1038A0002146032001F0C8FA2146042001F0C4FAA1
:1038B0002146052001F0C0FA2146062001F0BCFA9D
:1038C0002146002001F0B8FA2146012001F0B4FAA7
:1038D00010BD10B504462146002001F0ADFA214686
:1038E000012001F0A9FA2146022001F0A5FA2146A3
:1038F000032001F0A1FA2146052001F09DFA21469E
:10390000062001F099FA10BD10B504461F4A12783E
:10391000012A1ED0022A1BD10021102001F08CFAAE
:10392000FF21152001F088FA2146112001F084FAC8
:103930002146122001F080FA2146132001F07CFA82
:103940002146142001F078FAFF21162001F074FAC4
:1039500010BDFF21102001F06FFA2146152001F063
:103960006BFA0021112001F067FA0021122001F00A
:1039700063FA0021132001F05FFA0021142001F006
:103980005BFA0021162001F057FA10BDD300002089
:1039900010B50146582001F04FFA10BDF7B582B0BE
:1039A0000A210930FCF7A6FB0A214843C4B2244F80
:1039B000244EB86C3546283DA04208D0002000F0C7
:1039C00043F8316A00208847296A00208847049814
:1039D00000280BD0039800F037F8316A0398884725
:1039E000296A03988847BC6405B0F0BD20460A38B0
:1039F0005A280ED20A212046FCF77CFB8000019158
:103A000031580398884701998800295803988847B6
:103A1000E9E7642C0AD00A2CE5D20A212046FCF7FB
:103A200069FB8800295803988847DCE7039800F071
:103A30000BF8316803988847296803988847D2E7CC
:103A4000F00000209800002010B50146182001F079
:103A5000F3F910BD10B504462146202001F0ECF921
:103A60002146212001F0E8F92146222001F0E4F965
:103A70002146232001F0E0F92146242001F0DCF961
:103A80002146252001F0D8F910BD10B50446214685
:103A9000212001F0D1F92146222001F0CDF910BDFD
:103AA00010B504462146202001F0C6F92146212008
:103AB00001F0C2F92146232001F0BEF9214624205D
:103AC00001F0BAF92146252001F0B6F910BD10B574
:103AD00004462146202001F0AFF92146212001F0C3
:103AE000ABF92146222001F0A7F92146232001F05D
:103AF000A3F92146262001F09FF910BD10B5044618
:103B00002146212001F098F92146232001F094F963
:103B10002146252001F090F92146262001F08CF95C
:103B200010BD10B504462146202001F085F921463C
:103B3000222001F081F92146232001F07DF9214660
:103B4000252001F079F92146262001F075F910BDF4
:103B500010B504462146202001F06EF921462220AE
:103B600001F06AF92146232001F066F9214624205C
:103B700001F062F92146252001F05EF92146262058
:103B800001F05AF910BD10B504462146202001F07D
:103B900053F92146212001F04FF92146222001F05E
:103BA0004BF910BD10B504462146202001F044F920
:103BB0002146212001F040F92146222001F03CF964
:103BC0002146232001F038F92146242001F034F960
:103BD0002146252001F030F92146262001F02CF95C
:103BE00010BD10B504462146202001F025F92146DC
:103BF000212001F021F92146222001F01DF9214662
:103C0000232001F019F92146252001F015F921465C
:103C1000262001F011F910BD10B5044621461920E7
:103C200001F00AF921461A2001F006F921461B206D
:103C300001F002F921461C2001F0FEF821461D206A
:103C400001F0FAF821461E2001F0F6F810BD10B57B
:103C5000044621461A2001F0EFF821461B2001F00E
:103C6000EBF810BD10B504462146192001F0E4F828
:103C700021461A2001F0E0F821461C2001F0DCF872
:103C800021461D2001F0D8F821461F2001F0D4F86C
:103C900010BD10B504462146192001F0CDF821468B
:103CA0001A2001F0C9F821461B2001F0C5F8214671
:103CB0001C2001F0C1F821461F2001F0BDF810BD05
:103CC00010B5044621461A2001F0B6F821461B2003
:103CD00001F0B2F821461E2001F0AEF821461F2067
:103CE00001F0AAF810BD10B504462146192001F0D4
:103CF000A3F821461B2001F09FF821461C2001F06B
:103D00009BF821461E2001F097F821461F2001F064
:103D100093F810BD10B504462146192001F08CF827
:103D200021461B2001F088F821461C2001F084F870
:103D300021461D2001F080F821461E2001F07CF86C
:103D400021461F2001F078F810BD10B50446214629
:103D5000192001F071F821461A2001F06DF8214672
:103D60001B2001F069F810BD10B50446214619204A
:103D700001F062F821461A2001F05EF821461B206E
:103D800001F05AF821461C2001F056F821461D206A
:103D900001F052F821461E2001F04EF821461F2066
:103DA00001F04AF810BD10B504462146192001F073
:103DB00043F821461A2001F03FF821461B2001F06C
:103DC0003BF821461C2001F037F821461E2001F067
:103DD00033F821461F2001F02FF810BDF8B57D48BB
:103DE00001684908490001607B490A68520852008D
:103DF0000A600122D2430261C3681340C3600A61B2
:103E0000C8681040C860C914744802688A430260D8
:103E1000090102688A430260FDF74CF970480026E8
:103E2000C16AFF205F306F4C0125814201D3A5702C
:103E300000E0A670FFF7AAFA6C496B480860FEF72D
:103E400025FF052002210007FDF7A3FC002802D072
:103E50002570257200E02670052010210007FDF76F
:103E600098FC002801D0657000E066706048614FE2
:103E70000068B84206D204215F48FDF78AFC00289A
:103E800033D0E670564F2037FFF780FA00F01CFE63
:103E90005A48026902218A43026159490A68032388
:103EA0009B039A430B141A430A600B6801225204C5
:103EB000934313430B6053490A6904231A430A616D
:103EC00040BF20BF20BF0A699A430A6101690222EC
:103ED000114301614549444808600221C006FDF7CD
:103EE00058FC002803D0257102E0E570CAE726716E
:103EF000052010210007FDF74CFC002801D065715A
:103F000000E066713A4801683A48814206D20421CD
:103F10003948FDF73EFC00280CD0E671FCF726FD81
:103F2000FDF7C8F82E4AFF20D16A5F30814203D3E3
:103F3000A57102E0E571F1E7A671A078A179884248
:103F400012D12078217988420ED160786179884237
:103F50000AD1E078E179884206D1387D002893D0F3
:103F60002949106888428FD2387D284C002812D009
:103F70001B48254900683C3188420CD27D75A561FB
:103F80000520002220210007FDF732FC00F08CFE06
:103F90003E751F48057000F087FE0120A061C00239
:103FA000FDF716FB0120C003FDF712FB01220948B3
:103FB000D2430261C1682943C16007490A61CA68E6
:103FC0002A43CA6002682A430260086828430860DE
:103FD000F8BD0000002C01400020004040100240CD
:103FE0009C010020CA000020AAAA00000030004066
:103FF000C4000020B80B00000004005000E000E006
:104000000070004000ED00E0D20F000000080050FA
:104010001C000020F8B50446002C01D1FEF758FD25
:10402000FE4DFD4F2E46093E192C4DD22046FCF781
:1040300063FA00223B46FCF777F90022F84BFCF7C5
:10404000DBF9FCF77BFAC0B2FFF75EFC0027F35DFB
:1040500019220021204600F0CBFE7F1CFFB2092F61
:10406000F5D30026AB5D19220021204600F09AFE10
:10407000761CF6B20D2EF5D30025E84E983E735D02
:1040800019220021204600F08DFE6D1CEDB2082D96
:10409000F5D30025E14E323E735D19220021204602
:1040A00000F0A6FE6D1CEDB2192DF5D30025DB4EF8
:1040B000193E735D19220021204600F073FE6D1C2D
:1040C000EDB2102DF5D3F8BD20461938192850D27D
:1040D000FCF712FA00223B46FCF726F90022D04BEF
:1040E000FCF78AF900223B46FCF715F9FCF726FAA3
:1040F000C0B2FFF709FC0027EB5D322219212046F0
:1041000000F076FE7F1CFFB20D2FF5D30025735D06
:1041100032221921204600F045FE6D1CEDB2092D1A
:10412000F5D30025BD4EA33E735D322219212046F2
:1041300000F038FE6D1CEDB2022DF5D30025B74E10
:10414000323E735D32221921204600F02BFE6D1C99
:10415000EDB2192DF5D30025B04E193E735D322214
:104160001921204600F044FE6D1CEDB2102DF5D350
:10417000F8BD2046323819284CD2FCF7BDF9002290
:104180003B46FCF7D1F80022A54BFCF735F9FCF7CC
:10419000D5F9C0B2FFF7B8FB0027F35D4B223221FF
:1041A000204600F025FE7F1CFFB2092FF5D3002624
:1041B000AB5D4B223221204600F0F4FD761CF6B2B6
:1041C0000D2EF5D30025954EA13E735D4B22322175
:1041D000204600F0E7FD6D1CEDB2032DF5D3002560
:1041E0008E4E323E735D4B223221204600F000FE9F
:1041F0006D1CEDB2192DF5D30025884E193E735D67
:104200004B223221204600F0CDFD6D1CEDB2102D69
:10421000F5D3F8BD20464B38192850D2FCF76CF97D
:1042200000223B46FCF780F800227D4BFCF7E4F8C7
:1042300000223B46FCF76FF8FCF780F9C0B2FFF7AD
:1042400063FB0027EB5D64224B21204600F0D0FD8C
:104250007F1CFFB20D2FF5D30025735D64224B2127
:10426000204600F09FFD6D1CEDB2092DF5D3002511
:104270006A4E9E3E735D64224B21204600F092FD03
:104280006D1CEDB2062DF5D30025644E323E735DF4
:1042900064224B21204600F085FD6D1CEDB2192DE6
:1042A000F5D300255D4E193E735D64224B212046F7
:1042B00000F09EFD6D1CEDB2102DF5D3F8BD20462B
:1042C000643819283FD2FCF717F900223B46FCF767
:1042D0002BF80022524BFCF78FF8FCF72FF9C0B2F5
:1042E000FFF712FB0027F35D7D226421204600F0DA
:1042F0007FFD7F1CFFB2092FF5D30026AB5D7D2229
:104300006421204600F04EFD761CF6B20D2EF5D34A
:104310000025424E323E735D7D226421204600F02E
:1043200067FD6D1CEDB2192DF5D300253B4E193EEE
:10433000735D7D226421204600F034FD6D1CEDB2DA
:10434000102DF5D3F8BD20467D38192843D2FCF74F
:10435000D3F800223B46FBF7E7FF0022304BFCF787
:104360004BF800223B46FBF7D6FFFCF7E7F8C0B25C
:10437000FFF7CAFA0027EB5D96227D21204600F068
:1043800037FD7F1CFFB20D2FF5D30025735D9622FC
:104390007D21204600F006FD6D1CEDB2092DF5D300
:1043A00000251E4E323E735D96227D21204600F090
:1043B000F9FC6D1CEDB2192DF5D30025174E193EF1
:1043C000735D96227D21204600F012FD6D1CEDB23A
:1043D000102DF5D3F8BD20469638192845D2FCF7A4
:1043E0008BF800223B46FBF79FFF00220C4BFCF7AB
:1043F00003F8FCF7A3F8C0B2FFF786FA0027F35DD5
:10440000AF229621204600F0F3FC7F1CFFB2092F5B
:10441000F5D30026AB5D05E000E06F40334F0008A8
:1044200000003940AF229621204600F0BBFC761CEC
:10443000F6B20D2EEED300252F4EAF22735D9621DE
:10444000204600F0D5FC6D1CEDB2192DF5D30025EA
:10445000294E1936735DAF229621204600F0A2FC4A
:104460006D1CEDB2102DF5D3F8BD2046AF381928DC
:10447000FAD2FCF741F800223B46FBF755FF002239
:104480001E4BFBF7B9FF00223B46FBF744FFFCF74E
:1044900055F8C0B2FFF738FA0027EB5DC822AF210C
:1044A000204600F0A5FC7F1CFFB20D2FF5D30025A0
:1044B000735DC822AF21204600F074FC6D1CEDB284
:1044C000092DF5D300250C4EC822735DAF2120467F
:1044D00000F068FC6D1CEDB2192DF5D30025064ED9
:1044E0001936735DC822AF21204600F081FC6D1C97
:1044F000EDB2102DF5D3F8BD014F00080000394092
:1045000000B52020064A9061082090610120FEF746
:10451000D0FE082090620120FEF7CBFE00BD000017
:104520000004005000B50820044A906220209061E9
:104530000120FEF7BEFE0820906100BD000400507F
:104540000E48016A012211430162016A8907C90FFD
:104550000029FAD00B490A4808600B48086003207C
:1045600048600A488860C868800705D00020002895
:10457000F9D00748086070470120F8E74010024072
:10458000CCCC00000030004055550000B80B0000B6
:10459000AAAA0000FEB50446002C01D1FEF798FA45
:1045A000FE4DFD4F2E460936192C33D22046FBF71F
:1045B000A3FF00223B46FBF7B7FE0022F84BFBF7B8
:1045C0001BFFFBF7BBFFC0B2FFF79EF90027F348C4
:1045D00019221138C35D0021204600F0E3FB7F1C47
:1045E000FFB2112FF3D30027EB5D192200212046E3
:1045F00000F0FEFB7F1CFFB2092FF5D30025735D91
:1046000019220021204600F0CDFB6D1CEDB20C2DCF
:10461000F5D3FEBD20461938192836D2FBF76CFFBA
:1046200000223B46FBF780FE0022DD4BFBF7E4FE59
:1046300000223B46FBF76FFEFBF780FFC0B2FFF79F
:1046400063F90027D54832221530C35D1921204671
:1046500000F0A8FB7F1CFFB2122FF3D30027EB5D05
:1046600032221921204600F09DFB7F1CFFB2092F4A
:10467000F5D30025735D32221921204600F0B8FBE6
:104680006D1CEDB20C2DF5D3FEBD204632380190E5
:1046900019284DD20198FBF72FFF00223B46FBF76C
:1046A00043FE0022BE4BFBF7A7FEFBF747FFC0B25D
:1046B000FFF72AF90027B9484B222730C35D322182
:1046C000204600F06FFB7F1CFFB2122FF3D367234D
:1046D0004B223221204600F08BFB01980C2806D299
:1046E0007C233E223221204600F05CFB09E020467C
:1046F0003E380D2805D27B234B223E21204600F078
:1047000051FB0027EB5D4B223221204600F070FB6D
:104710007F1CFFB2092FF5D30025735D4B22322198
:10472000204600F03FFB6D1CEDB20C2DF5D3FEBD15
:1047300020464B380090192869D20098FBF7DCFE20
:1047400000223B46FBF7F0FD0022954BFBF754FEA1
:1047500000223B46FBF7DFFDFBF7F0FEC0B2FFF7A0
:10476000D3F800278D4864223930C35D4B212046A1
:1047700000F018FB7F1CFFB2142FF3D366236422D2
:104780004B21204600F034FB602364224B2120465D
:1047900000F02EFB64231A464B21204600F028FB34
:1047A0002D2364224B21204600F022FB5D2364224E
:1047B0004B21204600F01CFB00980C2806D27C23DD
:1047C00057224B21204600F013FB09E020465738C2
:1047D0000D2805D27B2364225721204600F008FBD8
:1047E0000027EB5D64224B21204600F0DBFA7F1CA2
:1047F000FFB2092FF5D30025735D64224B212046BB
:1048000000F0F6FA6D1CEDB20C2DF5D3FEBD20467E
:10481000643819284FD2FBF76FFE00223B46FBF7A6
:1048200083FD00225E4BFBF7E7FDFBF787FEC0B27E
:10483000FFF76AF85F237D226421204600F0D8FA52
:1048400065237D226421204600F0D2FA2C237D22AC
:104850006421204600F0CCFA5C237D2264212046AE
:1048600000F0C6FA2F237D226421204600F09AFA38
:1048700062237D226421204600F094FA89237D2260
:104880006421204600F08EFA0027EB5D7D22642132
:10489000204600F0ADFA7F1CFFB2092FF5D30025AA
:1048A000735D7D226421204600F07CFA6D1CEDB220
:1048B0000C2DF5D3FEBD20467D3819283BD2FBF7E1
:1048C0001BFE00223B46FBF72FFD0022344BFBF77B
:1048D00093FD00223B46FBF71EFDFBF72FFEC0B207
:1048E000FFF712F82E2396227D21204600F05AFA77
:1048F000882396227D21204600F054FA61239622D7
:104900007D21204600F04EFA0027EB5D96227D21A6
:10491000204600F047FA7F1CFFB2092FF5D300258F
:10492000735D96227D21204600F062FA6D1CEDB287
:104930000C2DF5D3FEBD2046963819283ED2FBF744
:10494000DBFD00223B46FBF7EFFC0022144BFBF79C
:1049500053FDFBF7F3FDC0B2FEF7D6FF2F23AF22C6
:104960009621204600F044FA8923AF229621204662
:1049700000F03EFA6223AF229621204600F038FA7A
:104980000027EB5DAF229621204600F031FA7F1C14
:10499000FFB2092FF5D305E000E06F40B44E0008E8
:1049A000000039400025735DAF229621204600F0BB
:1049B000F9F96D1CEDB20C2DF5D3FEBD2046AF38D4
:1049C0001928FAD2FBF798FD00223B46FBF7ACFC16
:1049D00000221A4BFBF710FD00223B46FBF79BFC25
:1049E000FBF7ACFDC0B2FEF78FFF2E23C822AF212C
:1049F000204600F0FDF98823C822AF21204600F0B0
:104A0000F7F96123C822AF21204600F0F1F9002711
:104A1000EB5DC822AF21204600F0C4F97F1CFFB235
:104A2000092FF5D30025735DC822AF21204600F081
:104A3000DFF96D1CEDB20C2DF5D3FEBD0000394041
:104A40003EB5002201920292012149071B480368EA
:104A50008B43036043680B4343601948016A012399
:104A600019430162016A8907C90F0029FAD001249C
:104A7000A4044169FF252D02294043692B409B086E
:104A8000194343690325AD04AB430C4323434361FE
:104A900069030B484038C36B0B43C363C06B0840CA
:104AA0000090072040020190029201A90548FCF7FE
:104AB000F7FE002801D0FBF775FE3EBD80180240CE
:104AC00040100240007C004010B50D488268022171
:104AD0000A438260026901231A4302614315826915
:104AE000120C12041A438261026906239A430A4394
:104AF000026142680A4342609620FEF7ADFC10BD99
:104B0000007C004008B5FBF74FFE00F09FF8FCF773
:104B1000DFFAFEF757FCFFF713FD00F00FF900F086
:104B2000DDF800F0C1F8FFF78BFFFFF7CDFF00F0D5
:104B3000BBF83B49012008700220052109070969DB
:104B4000884308D00020374F00253C46364E20349D
:104B5000002806D101E00120F5E7FEF713F8002850
:104B600018D0324901200871757206213973304915
:104B70002575A07565760D703D632A484030057334
:104B800000F092F800233222192103200095FDF74E
:104B9000C5FF24E0FDF79CFFFCF752FA0120F071FD
:104BA000307224494D753873A075657600F07CF835
:104BB0000023DB43C822002101200095FDF7AEFF52
:104BC0001E491D4808601E48642101700078B864C1
:104BD00016480571457175721E2030702575FDF7F8
:104BE0006BFBFBF7DDFE174C174FFCF7F5FE30793A
:104BF000002800D035717079002807D075713C60AD
:104C0000FDF73CFAFBF7D6FEFEF758F9B07900281D
:104C1000EBD0B571FCF742F9FDF7C8FFE5E70000FE
:104C2000D3000020F00000204401002050010020AB
:104C30001D000020BC0100200048E801000A0020FF
:104C4000200A0020AAAA00000030004000B587B06A
:104C50001448016A4904890F022907D1016AC9056C
:104C600004D5006A0005400F042818D0182101A8B7
:104C7000FBF75DFAFCF74CFCFCF736FC08200190D2
:104C80007F200002059059200002069001A8FCF741
:104C900079FBFCF769FBFCF719FCFCF70DFC07B08E
:104CA00000BD00000020024010B53F20FBF750FE81
:104CB0004820FBF74DFE5320FBF74AFE6C20FBF724
:104CC00047FE8320FBF744FE9120FBF741FEC02006
:104CD000FBF73EFEE020FBF73BFE10BD10B586B0B3
:104CE0000120C003FCF768FC142101A8FBF71FFAA0
:104CF00000200490029017216A469180632103915D
:104D000010750C4C01A92046FCF7E6FD0120C043BC
:104D10002061E16801200143E160216801432160D5
:104D20000549C004086001211320FCF711FE06B0FC
:104D300010BD00000020004000E100E010B586B08A
:104D40000120C002FCF738FC142101A8FBF7EFF9A1
:104D500000200490029017216A469180312103912E
:104D600010750E4C01A92046FCF7B6FD606C0121C0
:104D7000C903084360640120C0432061E168012049
:104D80000143E16021680143216005494003086057
:104D900000210D20FCF7DCFD06B010BD002C014009
:104DA00000E100E0FFB581B006460F46901B0128E8
:104DB00000D1761CD01BFBF79FFB04460D46F01B71
:104DC000FBF79AFB0022094BFBF7AEFA22462B4673
:104DD000FBF712FBFBF7B2FBC1B2FD2900D9FF21A3
:104DE000049800F029F805B0F0BD000000E06F4025
:104DF000FFB581B006460F46901B012800D1761CF6
:104E0000D01BFBF779FB04460D46F01BFBF774FB48
:104E10000022084BFBF788FA22462B46FBF7ECFAF8
:104E2000FBF78CFBC0B2FF21091A049800F004F8CC
:104E300005B0F0BD00E06F4070B502460D461409A4
:104E40001607360F6C20FBF783FDC0202043FBF7CD
:104E50007FFDFFF755FB7820FBF75AFDE02030433C
:104E6000FBF756FD2846FBF753FDFFF75BFB70BDD4
:104E70001C01FF1F1C01FF1F1C01FF1F1C01FF1F46
:104E80001C01FF1F3001FF1F1C01FF1F1C01FF1F22
:104E90007D6B7E7F6D6C6E6F808384696A7D8B8293
:104EA000858687565B5A444B4A5051697D8B87698A
:104EB0007D8B87675E3C6A688A70717A76792A2969
:104EC00028272B63777874757331573235415549EC
:104ED0004C7E8285866B6660642D5D593836334220
:104EE00040545348464D6D7F805F652C5C3E3F3497
:104EF0003B3D3A375247454E4F43398483816E6F6D
:104F00006C4C4D4E4F485657595B5A313638373FE7
:104F10003E393A3B3D40444142435253545551502F
:104F20004B4A484746453233343563302A292827CF
:104F30002B773C5E7A688A707172737974757876B3
:104F4000696A7D8B828586874C4D4E4F48565759EE
:104F50005B5A313638373F3E393A3B3D4044414257
:104F6000435253545551504B4A48474645323334C7
:104F70003563302A2928272B773C5E7A688A70713E
:104F8000727379747578767D6B7E7F6D6C6E6F80D1
:104F9000838463302A2928272B773C5E7A688A70BD
:104FA00071727379747578766C0C0000480D00008E
:104FB000690D0000820D0000930D0000A20D00009D
:104FC000AF0D0000BB0D0000C60D0000D10D0000AC
:104FD000DD0D0000E70D0000F10D0000FB0D0000ED
:104FE000050E00000F0E0000190E0000230E000039
:104FF0002C0E0000350E00003E0E0000460E000094
:105000004D0E0000550E00005C0E0000630E000007
:105010006A0E0000700E0000750E0000790E000090
:105020007D0E0000800E0000830E0000860E000042
:10503000890E00008C0E00008F0E0000920E000002
:10504000950E0000980E00009B0E00009E0E0000C2
:10505000A10E0000A40E0000A70E0000A80E000084
:10506000AA0E0000AD0E0000B00E0000B30E00004E
:10507000B60E0000B80E0000BB0E0000BE0E000011
:10508000C10E0000C40E0000C80E0000CC0E0000CF
:10509000D10E0000D60E0000DB0E0000E00E000076
:1050A000E50E0000EB0E0000F10E0000F70E000010
:1050B000FD0E0000030F0000090F0000100F00009C
:1050C000170F00001E0F0000250F00002C0F00001E
:1050D000330F00003A0F0000410F0000480F00009E
:1050E000500F0000580F0000600F0000680F000014
:1050F000700F0000780F0000800F0000880F000084
:10510000910F00009A0F0000A40F0000AE0F0000E6
:10511000B80F0000C20F0000CB0F0000D40F00003A
:10512000DC0F0000E10F0000E60F0000EB0F0000B5
:10513000FA0F00001810000058510008000000206D
:10514000D80000009432000830520008D800002037
:1051500008050000A432000800366E0100000000BF
:10516000040000000100000000000000000000003A
:10517000000000000000000081350008B73500087D
:10518000CD350008FB350008293600084F360008E9
:105190007D360008B3360008D13600080F37000806
:1051A000453700087B37000891370008BF370008F3
:1051B000ED37000813380008413800087738000838
:1051C00095380008D3380008553A00088B3A000893
:1051D000A13A0008CF3A0008FD3A0008233B000836
:1051E000513B0008873B0008A53B0008E33B000853
:1051F000193C00084F3C0008653C0008933C00083F
:10520000C13C0008E73C0008153D00084B3D000884
:10521000693D0008A73D00080000000000000000F4
:10522000000000000000000000000000000000007E
:04000005080000C12E
:00000001FF
