:020000040800F2
:10000000C8050020D90000085D1C00085116000832
:1000100000000000000000000000000000000000E0
:100020000000000000000000000000007D27000824
:10003000000000000000000091230008092D0008C6
:10004000000000000000000000000000EB000008BD
:10005000EB000008810D0008A50D0008C90D00087F
:100060000000000000000000000000000000000090
:10007000EB000008692F0008EB00000800000000FA
:1000800000000000EB000008000000006D2D0008DB
:100090000000000000000000000000000000000060
:1000A0000000000000000000000000000000000050
:1000B0000000000000000000000000000000000040
:1000C0000448854600F0E2FA004800473540000841
:1000D000C046C046C8050020044880470448004781
:1000E000FEE7FEE7FEE7FEE7FEE7FEE7252D000858
:1000F000C100000830B50B46014600202022012433
:1001000009E00D46D5409D4205D31D469540491B4B
:100110002546954040191546521E002DF1DC30BD94
:1001200070B500242546002801DA01244042002948
:1001300001DA01254942FFF7DDFFAC4200D0404221
:10014000002C00D0494270BDD2B201E00270401CC8
:10015000491EFBD270470022F6E710B513460A4647
:1001600004461946FFF7F0FF204610BD024670B561
:100170004A40D30FDB0740002DD04A002AD0010EA1
:10018000140E000212020919400A520A8418E501ED
:1001900004465443000A120A2E045043A41942197B
:1001A000200CC543AA18120C0125AD03521C52198C
:1001B00012047F39240400D0521C104301D44000A3
:1001C000491EC2B20C06C0092018401C4008802AF3
:1001D00002D003E0002070BD40084000002900DA92
:1001E0000020184370BD0000F0B50746084658408F
:1001F00087B0C00F049048000E46590040084908D7
:10020000BC1A884105D2384631461E4617460B4671
:1002100002465800400810434DD0300D0390400571
:100220005900400D490D0590401A0290402873DA9C
:1002300018030121000B090508430190049800925E
:10024000002806D01146019A4942002090410091B1
:100250000190029840210A1A0199009800F052F981
:1002600005460C466B4607CB00F05CF9C01971419E
:10027000039A0E0D0023D71756401A467A401643AC
:1002800044D0049A002A2DD0029A012A039A15DC40
:100290001205C01A914101263605001C7141D20F8A
:1002A000059ED2070093019202962A46234600F04B
:1002B0009AF907B0F0BD38463146FAE71605234AE9
:1002C0000F46B218C01AB74101210905001C4F4161
:1002D00000187F41114618187941E20F10436D193B
:1002E000644113E0E2076D0815436408C207144334
:1002F000039A01261205C01A91413605001C71416E
:10030000CE07400830434908C01851412A462346C9
:1003100000F05CF9CDE7FFE7049801224000C11727
:10032000121A00238B4104983146C417381AA14190
:10033000EEE730B40124E407634030BC54E730B446
:100340000124E407614030BC4EE700000000E0FFFC
:10035000F0B51FB488B00B9909980024484009995A
:10036000C00F490049080991C0070B990090490046
:1003700049080B9109990898A64608431CD00B9987
:100380000A98084318D0099801244000420D4800FB
:10039000410D099824050003000B204309900B9898
:1003A0000003000B20430B9050181C4940180022FA
:1003B00001901446104605E0002001460DB0F0BD46
:1003C000032801DA034600E003239C46C11A0AAE63
:1003D0000AE05F0008ADED5B4F00F75B7D4300274F
:1003E000AA187C41491C5B1E6145F2DD410004AB4B
:1003F0005A522104120C0A43240C401C0828DFDB4B
:10040000019802900099704601910090059B049A12
:100410000799069800F0E7F8D0E700000DFCFFFF11
:10042000C217C10F504010B54018CA0796230021CB
:1004300000F093F810BD00000EB5C217C10F504078
:10044000CA0740180021054B0293019200910A4609
:100450000B4600F0C8F803B000BD000033040000F4
:100460000EB505490291002100910A460B46019103
:1004700000F0B9F803B000BD3304000041004002B1
:100480000122400AD205090E80187F2901DA0020D6
:100490007047962903DC9622511AC8407047963956
:1004A00088407047C20FD207400040080BD0C10DF2
:1004B0000723DB01C91840020905400A1143C2089D
:1004C000400711437047002001467047CB0FDB0700
:1004D000490010B5490802460A4307D00A0D07240F
:1004E0000903E401090B121B002A01DC002010BDE6
:1004F000C900440F0C43C100E018D205801800F079
:1005000024F810BD10B5202A04DB0146203A9140A2
:10051000002010BD914020239C1A0346E34019435C
:10052000904010BD10B5202A06DBCB170846203AB4
:100530001041C1170B4306E00B461341D040202465
:10054000A21A91400843194610BD002904DA401C44
:10055000490001D140084000704770B40024050CE8
:1005600005D11024000402D1002921D01124050E48
:1005700001D100020834050F01D10001241D850FAF
:1005800001D18000A41C002801DB4000641C00296C
:1005900008D020252E1B0D46F540A14000D001219A
:1005A0002943084301061B1B000ADB1D02D500205E
:1005B00070BC7047DB05181880180029F8DA401C59
:1005C0004900F5D170BC40084000704710B5002BC1
:1005D00008DA0024401C614192185B411A4301D1A2
:1005E0004008400010BDF0B51FB482B005460C00B5
:1005F00003D0084603F03FF902E003F03CF9203055
:100600000246009021462846FFF77CFF049B059A8E
:1006100004460F4618431143084314D018461043AC
:100620001BD0009840210A1A1846059900F040F89E
:1006300005460E46009A05990498FFF763FF0843A4
:1006400005D0012004E02046394607B0F0BD002067
:10065000C11705430E432C43374300990E98630599
:10066000401A7905E40A00220C43FD0A0A3002D53B
:1006700000200146E9E70105101969410C9C0D9D18
:1006800000196941FFF7A2FFDFE70000064C0125D2
:10069000064E05E0E36807CC2B430C3C984710342A
:1006A000B442F7D3FFF710FD7043000890430008F1
:1006B00010B5202A04DB0846203AD040002110BDA6
:1006C0000B46D340D0402024A21A9140084319463B
:1006D00010BD00BFFEE7000008B5012030490968E1
:1006E00001432F4A1160114609680140009100BF83
:1006F00000BF00072A494039C96B0143284A403AE4
:10070000D1631146C96B0140009100BF00BF00BF1B
:1007100010460068911508431146086000BF00BFED
:1007200000BF1F4840380068012189020840800A44
:100730000028F5D000201A49403989680F2212029A
:1007400091430143164A403A916000BF00BF1146F1
:100750008968C908C9000143916000BF00BF00BF9C
:100760000F4840388068382108400028F7D100BF82
:100770000B49403989680722120391430143084A13
:10078000403A916000BF074801F0BAF90648006995
:100790000221084304490861024801F0DFF908BD5D
:1007A0004010024000366E0100E000E010B5002469
:1007B000012003F094F820210520000701F018F92A
:1007C000012003F08CF808E0601C84B20E488442DB
:1007D00003DD00F093FF012010BD10200521090763
:1007E00009690140814201D1012100E00021002975
:1007F000EAD120210520000701F0ECF8012003F0E8
:100800006EF80020E8E70000C4090000F0B58DB0E4
:100810003049C87800F086F80B902E49887800F0AF
:1008200081F80A900A210B98FFF77AFC0446FFF73B
:10083000F7FD294908600A98FFF712FE0446274A87
:10084000274BFFF785FD039102900A210B98FFF7D4
:1008500067FC08460191FFF7EFFD0446214A224B51
:10086000FFF776FD0646039B029AFFF7BDFC079152
:10087000069019480068FFF715FE05910490079B44
:10088000069AFFF7B1FC09910890FFF71FFE124985
:100890000860164910480068FFF768FC0E490860B8
:1008A00008460068FFF7EAFD1149088008460088FD
:1008B0001049884205DB0E4800880E49C83188423D
:1008C00003DD4B2000010A490880094800880DB06B
:1008D000F0BD00002000FF1F20000020FCA9F1D285
:1008E0004D62503F9A9999999999B93F00007A447D
:1008F000240000204C04000010B5092000F0AEFADE
:1009000007494860FFF782FF054988600A46516839
:1009100092681303981AFFF7EDFB0149086010BDB8
:1009200080010020014600BFF020084000110A238A
:10093000584302460807000F8018C0B270470000F5
:100940000020034908700349087003490870704784
:10095000000A0020100A0020200A002010B5E748F5
:10096000407A002832D0E548C068401CE349C8609E
:100970000969884203D20020E0490870BBE1DF48E2
:10098000C068DE49496988421CD90020DB49C8603B
:100990000846407A401E48720846407A0028EDD149
:1009A0000846007A012806D10520D54908700020A4
:1009B000D249087202E00020D04908720020CF49D5
:1009C000087098E10120CD49087094E1CD48C078C5
:1009D0000221084000284AD0C848007E0F2805DAC6
:1009E000C648007E401CC549087617E00020C34970
:1009F00008760846407E0B2804DA0846407E401CF4
:100A0000487602E00020BD494876BC48807E022836
:100A100004DABA48807E401CB849887600F0E2FAD1
:100A2000B9480078B9490870B74800794870B648A5
:100A3000007A8870B448007BC870B348007CB44921
:100A400008700020C043B3490880AC48407E800055
:100A5000B149085AB1490880A848807E8000B04951
:100A6000085AB04908800120A449087043E1A5480C
:100A7000C078042108400028A3D000F0B3FAAA48A7
:100A8000007B00287ED1A8482038407B642808DB02
:100A90007D20C000A449203948630121A248017388
:100AA00010BDA148407B642806DA9F48407B401C6B
:100AB000C1B29D48417302E000219B4841739A48AE
:100AC000407B322808DA994899490978405C082126
:100AD00008438F49087007E0944895490978405CBD
:100AE0000A2108438A4908708F482038407B0A2829
:100AF00027DB8D482038407B64280DD18D48007855
:100B0000824908708B48007848708148007801213C
:100B100008437F49087021E083492039487B0A2136
:100B2000FFF7FEFA8349085C784908707E4920394E
:100B3000487B0A21FFF7F4FA7E48405C734948700D
:100B40000CE000207149087077492039487B0A2160
:100B5000FFF7E6FA7748405C6C49487072482038E5
:100B6000807B0A2829DB70482038807B64280FD1DD
:100B700070480078654988706E480078C87064488D
:100B8000007800E032E0042108436149087021E068
:100B900065492039887B0A21FFF7C2FA6549085C5C
:100BA0005A49887060492039887B0A21FFF7B8FAD2
:100BB0006048405C5549C8700CE00020534988707B
:100BC00059492039887B0A21FFF7AAFA5948405C25
:100BD0004E49C8700020C0434E4908804F490880E4
:100BE0005049088001204549087084E04E4820386B
:100BF000406B00287CD04C482038406B401E4A494E
:100C00002039486349484A490978405C0A21084329
:100C10003F49087044482038407B64280DD145483E
:100C200000783A490870434800784870384800789E
:100C3000012108433649087013E03B492039487BBD
:100C40000A21FFF76DFA3B49085C304908703649C4
:100C50002039487B0A21FFF763FA3648405C2B496C
:100C6000487031482038807B0A2827DB2E482038FE
:100C7000807B64280DD12F480078244988702D4846
:100C80000078C87022480078042108432049087081
:100C900021E025492039887B0A21FFF741FA2549BF
:100CA000085C1A49887020492039887B0A21FFF79F
:100CB00037FA2048405C1549C8700CE00020134901
:100CC000887019492039887B0A21FFF729FA1948C9
:100CD000405C0E49C8700020C0430E4908800F498F
:100CE00008801049088001200449087003E0FFE7EC
:100CF00000200249087000BFD2E60000E400002096
:100D0000280100207401002008010020BE000020FE
:100D1000C2000020C4000020AC420008C600002031
:100D2000DC420008C8000020A0010020F2420008B8
:100D300026000020E842000807480078AA2809D1C8
:100D400006480078BB2805D105480078CC2801D199
:100D5000012070470020FCE7000A0020100A002054
:100D6000200A002008B505494143009100BF00BF9B
:100D700000994A1E00920029F9D108BDB80B000065
:100D800010B5012000F0ECFD002802D0012000F099
:100D900051FD022000F0E4FD002802D0022000F006
:100DA00049FD10BD10B5042000F0DAFD002802D086
:100DB000042000F03FFD082000F0D2FD002802D002
:100DC000082000F037FD10BD10B5102000F0C8FD60
:100DD000002802D0102000F02DFD202000F0C0FDE2
:100DE000002802D0202000F025FD802000F0B8FD72
:100DF000002802D0802000F01DFD10BD10B5074B6B
:100E00001A6AFF23034314469C43224613460B43AE
:100E1000AA242343014C236210BD0000002002409D
:100E200070B5044600F00EFC051905E000F00AFC60
:100E3000A84201D3032070BD0648006901210904BE
:100E40000840000C0028F1D1034802490861002045
:100E5000F1E70000002002401180000070B5044658
:100E6000002502F0DDFDE0B202F048FD02F0E6FDF3
:100E70000A4800F0B3FC00BF084800F081FC0128DC
:100E8000FAD100BF04200549086000BF00BF084632
:100E9000006C80B20546284670BD00000024014069
:100EA00010B54B48C07802210840002813D0192003
:100EB000484908750846006A782804D80846006A38
:100EC000401C086206E000204249086201214148B6
:100ED0002030017110BD3F48007D002805D03D48FD
:100EE000007D401E3B49087570E0FFF705FD7D2140
:100EF0000901394800684A1E8018FFF7FBF80446CC
:100F0000A0002018334988730846807B642801DBE1
:100F1000642088732E48C07804210840002851D0EE
:100F200000F060F82B482030007B00284ED1294883
:100F3000407B5F282ADC27488069401C254988615E
:100F40007D21C900884221D3224800686E302149A2
:100F50000860487B0521FFF7E3F8401C80001F492B
:100F600008581C490968884210D80020194988612E
:100F70000846407B401D4873002008620021154848
:100F800020300171002013490873C8611148407B6B
:100F9000642803DB64200F49487317E00D48407B49
:100FA0005F2813DB0B48C069401C0A49C8610C4923
:100FB00088420BD300200749C8610846407B401D8A
:100FC000487303E0002003498861C86100BF81E7DE
:100FD00074010020800100202C0000201C43000828
:100FE000B80B000010B5394839490978405C0A212E
:100FF0000843384908613848407B0A2823DB3648D3
:10100000407B64280CD1354800780860334800786C
:10101000486008460069012108432E4908611EE026
:101020002D49487B0A21FFF77BF82C49085C2949A8
:1010300008602949487B0A21FFF772F82748405C7D
:10104000244948600BE00020224908602249487B7F
:101050000A21FFF765F82148405C1E4948601E4898
:10106000807B0A2824DB1C48807B64280DD11B4828
:1010700000781849886019480078C86008460069F7
:1010800004210843134908611EE01349887B0A21A3
:10109000FFF746F81149085C0E4988600E49887BC5
:1010A0000A21FFF73DF80D48405C0A49C8600BE093
:1010B0000020084988600849887B0A21FFF730F83A
:1010C0000648405C0349C86010BD0000F2420008B9
:1010D000260000200801002080010020E8420008CE
:1010E00010B515480078022803D01448007800286D
:1010F0000CD10020FFF7B2FE1149086108460069D3
:10110000104909684843000B0D4988610A48007876
:10111000022803D00948007800280CD00720FFF7E8
:101120009DFE0749486108464069064909684843E9
:10113000000B0349C86110BD2600002027000020D5
:10114000340100208001002010B50024FFF7D4FBFB
:10115000002017490873084600681649096D88423F
:1011600003D96420124948731EE0114800681149F0
:101170000968884205D800200D494873012008738A
:1011800012E001240DE00A480068A100094A515804
:10119000884204D8A00020180549487303E0601C69
:1011A000C4B2132CEFDD00BFFFF71CFF10BD000021
:1011B000800100201C43000810B5FFF79DFB0520AF
:1011C000FFF74CFE0449886208460068896A484374
:1011D000000B0149886210BD8001002008B56748F6
:1011E0000521090708606648664908600F206649BE
:1011F0000860032000036349886020200521090757
:10120000C860C0015F49C8600020C0435F49496BA6
:1012100001435E4A51631146496B0140009100BF92
:1012200000BF002201210520000700F0F0FB012291
:1012300011460520000700F03BFC0022022105209A
:10124000000700F0E4FB012202210520000700F066
:101250002FFC002208210520000700F0D8FB012206
:1012600008210520000700F023FC012210210520A1
:10127000000700F0CCFB012210210520000700F040
:1012800007FC032210210520000700F02BFC01229F
:1012900020210520000700F0BAFB012220210520B3
:1012A000000700F0F5FB032210210520000700F0E5
:1012B00019FC402005210907886200BF0122402156
:1012C0000520000700F0A3FB002280210520000775
:1012D00000F09DFB032201212A4800F098FB032225
:1012E0000221284800F093FB0421264800F076FBF9
:1012F00001220421234800F08AFB00220421214816
:1013000000F0C6FB08211F4800F068FB01220821FD
:101310001C4800F07CFB002208211A4800F0B8FBB2
:1013200000221021174800F072FB002210211548FE
:1013300000F0BEFB00222021124800F068FB0022D2
:101340002021104800F0B4FB002280210D4800F05D
:101350005EFB002280210B4800F0AAFB0022022144
:10136000094800F054FB01220221074800F0A0FBCD
:1013700003220121044800F04AFB08BDEFFF0000F2
:10138000FFEF000000040050000800500010024071
:10139000012007494969C2071143054A51611146B5
:1013A0004969C90FC907002900D000207047000013
:1013B0000020024070B50446012500BF7348007844
:1013C000012801D1022070BD01207049087000BFC2
:1013D00000BF6F494968072252031140480B6D490D
:1013E000096882006C4B9A581288D205D20D91423E
:1013F00046D16849496882009A5812681201920DD4
:1014000091423DD16349096982009A58126892035A
:10141000D20D914234D15F49896882009A589288EE
:10142000D205D20D91422BD15A49C96882009A58EF
:1014300052681201120D914222D156494969820027
:101440009A5892689203920B914219D15149896935
:1014500082009A58D2689203920B914210D14D4962
:10146000C96982009A58128A92B2914208D14949B8
:10147000096A82009A5812699200920C914248D0EF
:1014800000BF8100444A51580988C905C90D414A25
:1014900011608100404A515809680901890D3D4A8F
:1014A000516081003C4A515809688903C90D394A85
:1014B00011618100384A51588988C905C90D354ADA
:1014C00091608100344A515849680901090D314A37
:1014D000D1608100304A515889688903890B2D4AAF
:1014E000516181002C4A5158C9688903890B294AE6
:1014F00091618100284A5158098A89B2254AD161EF
:101500008100254A515809698900890C214A1162D4
:1015100000BF00BF2078C007C00F002804D0A088FB
:10152000C04380B21D49C8620221206808400028DB
:1015300005D0E1680902A0680843184948620821FB
:1015400020680840002803D061692069FFF756FC35
:10155000124840690121490408431049486108467E
:1015600040690121090608430C494861FF200949E7
:10157000803908607D20C000FFF752FC054600BF9F
:1015800000200249087000BF28461CE7CC0000205C
:101590000010024000210240684200080020024082
:1015A000044840690121C9060843024948610120F5
:1015B0007047000000200240012007494969820766
:1015C0001143054A516111464969820711400029BA
:1015D00000D000207047000000200240012009498F
:1015E00049698207114000290BD00749054AD1609B
:1015F0000649D1601146496982071140002900D18E
:1016000000207047002002403B2A19087F6E5D4C85
:10161000002009494969C90FC90700290BD00749AA
:10162000054A91600649916011464969C90FC90789
:10163000002900D0012070470020024023016745A7
:10164000AB89EFCD0148006870470000140000200E
:1016500000BFFEE770B5044620210520000700F01A
:10166000B9F9002525E080202040002805D0102170
:101670000520000700F0BCF904E010210520000758
:1016800000F0A8F9012002F02AF920210520000726
:1016900000F0AEF9012002F022F920210520000718
:1016A00000F098F9012002F01AF96006040E681C97
:1016B000C5B2082DD7DB70BD10B52021052000076D
:1016C00000F096F9012002F00AF910210520000728
:1016D00000F08EF9012002F002F910210520000728
:1016E00000F078F9012002F0FAF820210520000727
:1016F00000F070F9012002F0F2F810BD10B52021C1
:101700000520000700F066F9012002F0E8F810213A
:101710000520000700F05EF9012002F0E0F820212A
:101720000520000700F064F9012002F0D8F810212C
:101730000520000700F05CF9012002F0D0F810BD90
:1017400070B504460D460026204600F01FF800281C
:1017500010D1A96868680843E9680843E168074A46
:1017600011400843E060206900010009296808432E
:10177000206100E00126304670BD0000C7BFFFFFBA
:1017800001460868042210408008704701468868B6
:10179000C007C00F012250405040704770B5054649
:1017A0000C4600262846FFF7F1FF00280CD161689F
:1017B00020680843A1680843E1680843E968044ACF
:1017C00011400843E86000E00126304670BD00008B
:1017D0003FC2FEFF4A05520D826270478168024A8D
:1017E0001140091D81607047E8FFFF7F02490968C9
:1017F0008143014A116070474010024008B5054915
:1018000009680143034A11601146096801400091CB
:1018100000BF08BD4010024008B5054909680143F2
:10182000034A1160114609680140009100BF08BDDC
:10183000401002400149C860704700000018024093
:10184000024949688143014A51607047801802404B
:10185000024909688143014A1160704780180240BB
:10186000024949680143014A5160704780180240AB
:10187000024949680143014A51607047001802401B
:10188000024909680143014A11607047801802400B
:10189000024909680143014A11607047001802407B
:1018A00070B504460025207900284ED02068002815
:1018B00051D06079002804D0012809D0022815D120
:1018C0000DE02068FFF7BCFF2068FFF7D9FF0FE0AD
:1018D0002068FFF7BDFF2068FFF7C2FF08E020681F
:1018E000FFF7CEFF2068FFF7BBFF01E0012500BF37
:1018F00000BFA07900282ED0A079012804D00228AA
:101900000DD003281DD115E0206814494968814392
:10191000124A516000BF2068FFF7BAFF14E0206848
:101920000E49096881430D4A116000BF2068FFF726
:101930009FFF09E02068FFF7ABFF2068FFF798FFE3
:1019400002E00220054300BF05E02068FFF780FFAA
:101950002068FFF775FF284670BD000000180240A0
:1019600001460448C0680840884201D10120704700
:101970000020FCE70018024070B50C02230E0C0496
:10198000220E074C8D072D0F64591D469540AC4320
:10199000054695402C43024D8E07360FAC5170BD65
:1019A00060180240024610690840884201D10120B7
:1019B00070470020FCE7024610690840884201D1C8
:1019C000012070470020FCE7816270478162704708
:1019D00081627047816270478161704781617047A1
:1019E0008161704781617047816170478161704793
:1019F0008161704730B503680C464C43650064193B
:101A0000A3430C464C4354432343036030BD30B5DD
:101A100003680C464C4365006419A3430C464C43D1
:101A200054432343036030BD30B503680C464C4338
:101A300065006419A3430C464C435443234303609D
:101A400030BD30B503680C464C4365006419A343B0
:101A50000C464C4354432343036030BD30B5036808
:101A60000C464C4365006419A3430C464C43544355
:101A70002343036030BD30B503680C464C4365001A
:101A80006419A3430C464C4354432343036030BDC5
:101A900010B543688B430C4654432343436010BD49
:101AA00010B543688B430C4654432343436010BD39
:101AB00030B5C3680C464C4365006419A3430C461B
:101AC0004C4354432343C36030BD30B5C3680C4618
:101AD0004C4365006419A3430C464C4354432343D1
:101AE000C36030BD30B583680C464C436500641953
:101AF000A3430C464C4354432343836030BD000052
:101B000070B504467D25ED0029462046FEF7F2FA21
:101B1000401E04494861002088610520086100BF1B
:101B200070BD000000E000E030B50246002000BFBC
:101B30001369DB07DB0F012463406340002B01D0F6
:101B4000012007E04C680B682343D468024D2C4009
:101B50002343D36030BD0000FFF1BFFF014908609F
:101B600070470000000000200121C9430161704757
:101B700001684908490001607047C1684908490087
:101B8000C16070470168012211430160704701681C
:101B90000122114301607047C16801221143C160F5
:101BA0007047C16801221143C160704710B50246F9
:101BB00013681748824205D118467024A0434C6828
:101BC000204303461248824202D01248824206D184
:101BD000184603242402A043CC6820430346136024
:101BE0008868D06200BF0888906200BF08488242BF
:101BF00002D00848824203D1087C106300BF00BFB6
:101C000000BF506901242043506100BF002010BD77
:101C1000002C0140002000400146C868C007C00FEA
:101C2000012250405040704708B501460A4A1269E7
:101C3000009200BF0846421C002A00D0401C07E06A
:101C4000054A126901231B041A40002A00D0401ED5
:101C50000028F5D108BD000000E000E0704700005A
:101C6000C206D20E01219140014A11607047000066
:101C700000E100E0C206D20E01219140014A11604C
:101C80007047000000E100E010B5002819DA1A4A98
:101C900003071B0F083B9B089B00D2588307DC0EF1
:101CA000FF23A3409A438B071B0E8407E40EA34037
:101CB0001A43114B0407240F083CA408A4001A512E
:101CC00018E00E4A03231B02D21883089B00D25847
:101CD0008307DC0EFF23A3409A438B071B0E840768
:101CE000E40EA3401A43054B032424021B19840865
:101CF000A4001A5110BD00001CED00E000E100E05E
:101D000010B5002819DA1A4A03071B0F083B9B0875
:101D10009B00D2588307DC0EFF23A3409A438B0716
:101D20001B0E8407E40EA3401A43114B0407240F33
:101D3000083CA408A4001A5118E00E4A03231B0211
:101D4000D21883089B00D2588307DC0EFF23A340E0
:101D50009A438B071B0E8407E40EA3401A43054BDE
:101D6000032424021B198408A4001A5110BD00008A
:101D70001CED00E000E100E010B500200B49087008
:101D800004210B48FFF72EFE08210948FFF72AFE21
:101D9000002201210648FFF754FE002202210448D8
:101DA000FFF74FFE00BF00BF00BF10BD3401002091
:101DB0000004005010B588B00024FD48C078C0076A
:101DC000C00F00287ED0FA48C078FE210840F849AC
:101DD000C870F848007A112803D10020F5494872EC
:101DE0000872F448407A00286CD1FEF785FDF2486D
:101DF00000681921C901884203D9EF48007B0028F7
:101E00002BD00020EC494873FFF7ECF80120EA4999
:101E10000873002008620021E74820300171042087
:101E2000E4490872FFF7DEF8E449E54800690491E7
:101E3000059106910390E248C068E1498968E04A4B
:101E40005268009201910290DD4832221921036804
:101E50000A2000F0ADFC08B010BD0020D949087080
:101E600000F022FF00F08CFC03220121D648FFF78E
:101E7000E8FD03220221D448FFF7E3FD00BF00BFC5
:101E800000BF322405E0601EC4B20421CE48FFF733
:101E90009DFD002CF7D10020FEF7E0FFC949086145
:101EA0000720FEF7DBFFC74948610421C648FFF75A
:101EB00099FD0821C448FFF795FDBF480068E1215E
:101EC000090100E008E1884203D8C048BD49086222
:101ED00002E0BE48BB490862BA480069B949096ACC
:101EE00088421CD80620B3490872FFF77BF8B34933
:101EF000B34800690491059106910390B048C06809
:101F0000AF498968AE4A5268009201910290AC488C
:101F1000322219210368032000F04AFC9BE7322497
:101F200005E0601EC4B20821A748FFF74FFD002C52
:101F3000F7D10020FEF792FFA24908610720FEF7C3
:101F40008DFFA049486104219F48FFF74BFD082100
:101F50009D48FFF747FD9B4840699A49096A8842B6
:101F60001BD8062093490872FFF73CF89349944820
:101F7000006904910591069103909148C1688068B9
:101F80008F4A52680092029101908D4832221921A5
:101F90000368032000F00CFC5DE78B48806980211A
:101FA00008438949886108460068032189038843FA
:101FB00085490860084600680901084382490860AD
:101FC00083480078022812D182487E498862C8621C
:101FD00004217D48FFF7FAFC08217B48FFF7F6FC57
:101FE000C820784908724872002088725AE07A48FE
:101FF0000078022805DA78480078401C7649087095
:102000000DE000207449087074480078002803D05F
:1020100000207249087002E00120704908706C4885
:10202000007801281FD16D48007800280DD069483C
:10203000C8306449C86208216348FFF7C7FCC8205C
:1020400060494872002088722CE06248C8305D49BF
:10205000886204215C48FFF7B9FCC820594908721E
:10206000002088721EE05D48007800280DD0594895
:1020700096305449C86208215348FFF7A7FCC8208E
:1020800050494872002088720CE0524896304D4901
:10209000886204214C48FFF799FCC820494908721E
:1020A0000020887264214748203001710020454992
:1020B0004873012008703E48C078022108433C491B
:1020C000C87000203F49C8723A4908764876887639
:1020D00001213C48203001773548C0780221084072
:1020E000002864D037482030007900281CD108200F
:1020F00030490872FEF776FF304931480069049193
:102100000591069103902E48C0682D4989682C4A94
:1021100052680092019102902948642200210368CC
:10212000032000F045FB96E62648007B012875D188
:10213000002024490873FEF7DFFB1F480068AF2129
:102140000901884204D81F48407B401C1D49487340
:102150001C48407B032846DB00201A494873164977
:102160004873FEF73FFF0020134908620021124820
:102170002030017101201049087304200D490872B4
:10218000FEF730FF0D490E48006904910591069154
:1021900003900B48C1688068094A52680092029116
:1021A00001900748322219210368042018E072E0E8
:1021B00074010020E400002080010020FFFF0000E7
:1021C000080100203401002000040050780F0000B6
:1021D00026000020020D000028000020270000201B
:1021E00000F0E6FA37E6FEF77BFF2D48007802287C
:1021F00003D02C480078002822D12B4A9169926A9A
:10220000C8235A431046FDF775FF27494860084622
:102210004068C82803D3C820087211E028E022488B
:102220004068142803D814201F49087208E01E498A
:10223000496849430846C821FDF75CFF1A490872FE
:1022400017480078022803D016480078002824D0C8
:10225000154AD169D26AC8235A431046FDF74AFF8E
:102260001149486008464068C82802D3C82048720F
:1022700013E00D484068142803D814200A49487216
:102280000BE00949496849430846C821FDF732FF78
:102290000549487201E0FFF76FFD00BFDBE5000074
:1022A00026000020270000203401002000B587B060
:1022B0003048C07802210840002859D011202E490A
:1022C0000872FEF78FFE2D492D4800690491059193
:1022D000069103902A48C06829498968284A5268AB
:1022E0000092019102902648642200210368032095
:1022F00000F05EFA002201212248FFF7AFFB002226
:1023000002212048FFF7AAFB00BF00BF00BF1D4805
:1023100000680321890388431A4908600846806AD7
:102320008021084317498862002017490870114826
:10233000C078FD2108400F49C87004211148FFF7FB
:1023400053FB08210F48FFF74FFBFEF7F9FA012076
:102350000949C87600204877462008770120C877C9
:102360000021054820300170084800690249486092
:1023700007B000BD74010020E4000020FFFF000052
:1023800008010020000400503401002080010020DA
:102390007047000000B587B0D148807A002801D08E
:1023A00007B000BD082105200007FFF7FBFA002851
:1023B00013D0802105200007FFF7F4FA002806D08B
:1023C000C848007801210843C649087005E0C5489F
:1023D0000078FE210840C349087008210520000745
:1023E000FFF7E0FAC0490978884201D0FFF75EFFA5
:1023F000082105200007FFF7D5FABB490870102116
:10240000BA48FFF7CFFA002806D1B6480078022173
:102410000843B449087005E0B2480078FD2108403F
:10242000B0490870AF48C07802210840002814D194
:10243000FEF7C2FEAE48806AFF212D31884206D3E6
:10244000A848007804210843A649087005E0A5487B
:102450000078FB210840A3490870A2480078A149F0
:10246000497888427ED09F488078032805DA9D48C5
:102470008078401C9B498870E2E09A480078C00749
:10248000C00F00280BD097484078C007C00F002825
:1024900005D19448C078012108439249C8709148F9
:1024A0000078C007C00F00280DD18E484078C007C3
:1024B000C00F002807D08B48C078FE21084089490A
:1024C000C870FFF7F3FE8748007802210840002813
:1024D0001BD0844840780840002816D164208449E5
:1024E000487332207F4948717D20C000804948638D
:1024F00001217F48203001737A4800790A2804DAE4
:1025000078480079401C77490871764800780221A4
:102510000840002807D1734840780840002802D0BE
:102520001E20704948716F48007804210840002837
:1025300011D06C484078084000280CD16948C07818
:1025400008436849C870FEF74DFD002168482030F7
:1025500001734173417163480078042108400028E9
:1025600043D100E069E05F484078084000283CD053
:102570005C48C078FB2108405A49C87000215C487B
:10258000203001734173002059498861084620308A
:102590004079002825D15348C078022108400028FE
:1025A0001FD15448407A00281BD10D205149087290
:1025B000FEF718FD504951480069049105910691B4
:1025C00003904E48C0684D4989684C4A5268009251
:1025D000019102904948642200210368012000F023
:1025E000E7F800214248203041713E480078082138
:1025F0000840002809D03B4840780840002804D112
:102600003848C07808433749C870364800780821F0
:10261000084000280AD1334840780840002805D0F7
:102620003048C078F72108402E49C87000202D4955
:10263000887008460078487002E0002029498870B8
:1026400028484079002805D026484079401E254971
:10265000487142E02348407802210840002839D1DF
:1026600020480079012835D122480078002816D06A
:1026700023480078002803D10120214908700EE08A
:102680001F480078012803D102201D49087006E088
:102690001B480078022802D1002019490870122036
:1026A00014490872FEF79EFC13491448006904910E
:1026B0000591069103901148C16880680F4A5268DD
:1026C0000092029101900D486422002103680320CA
:1026D00000F06EF800200349087100BF60E60000BA
:1026E000280100207401002029000020000400506F
:1026F00080010020E4000020FFFF0000080100200E
:102700002600002010B502211848FFF74BF90028D9
:1027100003D117498872FEF717FD02211548FFF70C
:1027200041F900280BD114480078082108431249C8
:1027300008700846C078082108430F49C870012175
:102740000C48FFF72FF900280BD10B48007808211F
:102750000843094908700846C0780821084306491B
:10276000C870054800780449487010BD0008005042
:102770002801002000040050740100207047000070
:10278000AA2006490870BB2005490870CC200549DD
:1027900008700548407B054908707047000A002012
:1027A000100A0020200A002080010020300A0020AA
:1027B000F8B504460D4616461F460022012124485E
:1027C000FFF732F9002202212148FFF72DF900BF5F
:1027D00000BF00BF1E4800680321890388431C49CD
:1027E00008600846806A8021084319498862FEF71C
:1027F000F9FB0020174908701748C078FD210840F0
:102800001549C87004211248FFF7EAF8082110485A
:10281000FFF7E6F800201149C860084644720561D8
:1028200046610F490F70069848700798887008989D
:10283000C8700C49099808700B490A9808800B4920
:102840000B9808800A490C980880FEF779F8F8BDC3
:10285000000400503401002074010020E400002036
:10286000BE000020C2000020C4000020C6000020DE
:10287000C800002010B52B48407A002815D12A48FE
:10288000C0780221084000280FD12848806AFF2123
:102890002D31884209D22448C078042108400028FC
:1028A00003D12248007D002803D01E202049087053
:1028B00036E01F480078002832D10021122000F0B5
:1028C000BDFF1B48807A002804D000201849887278
:1028D000FEF73AFC00201749087004211648FFF75C
:1028E00085F808211448FFF781F801F021F900F07C
:1028F0000CFA0121122000F0A1FF0021102000F0AD
:102900009DFF0F21112000F099FF0021084600F0E3
:102910006FFF0321122000F091FF1E200449087070
:1029200010BD0000E40000207401002080010020A0
:1029300028010020340100200004005000B58DB0B3
:102940000020C043D349496B0143D24A5163114629
:10295000496B0140009100BF00BF0020052109071D
:10296000C860CD49C8600022012105200007FFF79B
:1029700082F80122114605200007FFF7A6F8002281
:10298000022105200007FFF776F801220221052029
:102990000007FFF79AF80022042105200007FFF73F
:1029A0006AF80022042105200007FFF78EF80022B4
:1029B000082105200007FFF75EF801220821052005
:1029C0000007FFF782F8012105200007FEF7F3FF5B
:1029D00000280CD10022012105200007FFF74BF849
:1029E0000022012105200007FFF76FF826E00221F1
:1029F00005200007FEF7DFFF00280CD1002202218E
:102A000005200007FFF737F8002202210520000704
:102A1000FFF75BF812E0082105200007FEF7CBFF67
:102A200000280BD10022082105200007FFF723F81A
:102A30000022082105200007FFF747F80022102197
:102A400005200007FFF717F80022102105200007D6
:102A5000FFF73BF80022202105200007FFF70BF8C5
:102A60000022202105200007FFF72FF84021052034
:102A70000007FEF7ADFF0122402105200007FEF709
:102A8000FAFF0022802105200007FEF7F4FF002254
:102A900001218148FEF7EFFF022201217E48FFF766
:102AA00014F8002202217C48FEF7E5FF02221146BD
:102AB0007948FFF70AF804217748FEF797FF0122CB
:102AC00004217548FEF7D7FF002204217248FEF763
:102AD000E7FF08217048FEF789FF012208216E48B0
:102AE000FEF7C9FF002208216B48FEF7D9FF00223C
:102AF00010216948FEF7BFFF002210216648FEF74B
:102B0000E4FF20216448FEF763FF01222021624890
:102B1000FEF7B1FF002240215F48FEF7ACFF002224
:102B200040215D48FEF7D1FF002280215A48FEF780
:102B3000A2FF002280215848FEF7C7FF0022022191
:102B40005648FEF798FF012202215448FEF7BDFFC8
:102B5000032201215148FEF78EFF00200B900C90BC
:102B600010200B90012108A8017441740321817485
:102B70000BA8FEF795FE4A490120FEF7FDFE002155
:102B80000720FFF7BDF80720FFF774F80020099031
:102B90000A9001200990012108A8017241720321C5
:102BA000817209A8FEF77CFE032109040020FEF7CC
:102BB000E3FE00210520FFF7A3F80520FFF75AF8F0
:102BC00000200790089002200790012108A80170BA
:102BD00041700321817007A8FEF762FE6121C902DE
:102BE0000020FEF7C9FE00210520FFF789F8052027
:102BF000FFF740F80020059006900820059001217D
:102C00006846017641760321817605A8FEF748FEE5
:102C10006321C9020020FEF7AFFE00210620FFF766
:102C20006FF80620FFF726F800200390049080201C
:102C3000039001216846017441740321817403A843
:102C4000FEF72EFE17490020FEF796FE0021072012
:102C5000FFF756F80720FFF70DF8002001900290CB
:102C600002200190012168460172417203218172A4
:102C700001A8FEF715FE6121C9020220FEF77CFEC5
:102C800000210520FFF73CF80520FEF7F3FF0DB00B
:102C900000BD000000100240000400500008005079
:102CA000010003000118010010B51548007D00283F
:102CB00023D11348407B0A281CDB114820300079BF
:102CC00000281AD00E49487B0521FDF729FA401E3D
:102CD00080000C4908580A49096888420DD3084801
:102CE000407B401F06494873002105482030017190
:102CF000017302E0052002494873FEF773F910BD25
:102D0000800100201C430008704710B5FDF7E4FC6B
:102D100001F04AFAFEF762FA00F09EFE01F074FA42
:102D200010BD000010B50D484068000C00040C49AF
:102D3000096808430949486008464068094908404D
:102D40000749403189880904084304494860C80399
:102D5000054988606420FEF705F810BD00100240A8
:102D60000001FF1FFFFF00FE00ED00E010B57548F9
:102D70000069C007C00F002813D07248FEF74CFF4F
:102D80000028F9D000BF0120C0436E49086100BF90
:102D90006D484078012805DA6B484078401C6A4944
:102DA0004870CEE001206849487068480078401CAF
:102DB0006649087066480078002875D06448807AB3
:102DC000C82805DA6248807A401C6149887202E0AE
:102DD00000205F4988725F480078022803D05E486F
:102DE0000078002821D15A48807A5949097A8842C6
:102DF00004DC04215948FEF7E7FD07E004215748A9
:102E0000FEF7EAFD00215248203001775048817AD0
:102E1000007A401E814204DC01214D4820300177B8
:102E200003E000214A48203001774A480078022810
:102E300003D049480078002821D04548807A444989
:102E4000497A884204DC08214448FEF7BDFD07E0CA
:102E500008214248FEF7C0FD00213D48203001779F
:102E60003B48817A407A401E814204DC0121384887
:102E70002030017703E000213548203001773448C5
:102E8000807A052802D1012031490873304820306A
:102E9000407F002808D02E482030007F002803D132
:102EA00001212B4820308177274800790A2805DA4C
:102EB00025480079401C2449087142E0012022493C
:102EC0000871C871084640790A2804DA0846407932
:102ED000401C487135E001201B49487108720846C2
:102EE00080790A2804DA08468079401C887128E035
:102EF00001201549887148721948C078022108409C
:102F0000002808D017480068002804D01548006839
:102F1000401E144908600E4820300079002807D070
:102F20000B4820300079401EC1B2094820300171A1
:102F300005480078002804D003480078401E024964
:102F4000087010BD00200040280100200D00002066
:102F5000340100202600002027000020000400503B
:102F6000740100202C00002010B50B480069C00738
:102F7000C00F00280FD00848FEF74EFE00280AD0E8
:102F800000BF0120C0430449086100BF0348007826
:102F9000401C0249087010BD002C01400D000020AB
:102FA00010B526480078002804D000F00FFC00F08F
:102FB0004DF808E0002404E0002021490855601C79
:102FC000C4B2102CF8DB00201E490870FEF774FB19
:102FD000012000F084FC8420FEF73CFBFDF7E6FBBB
:102FE000194909788906080EFEF734FBFDF7DEFB68
:102FF00000240EE01449097889000919104A505C30
:10300000FEF728FBFDF7D2FB012000F068FC601CF6
:10301000C4B2042CEEDBFEF771FB012000F05FFC74
:1030200009480078032805DA07480078401C06495B
:10303000087002E000200449087010BDE400002080
:10304000B8010020CA000020CB00002000B5FE48D7
:103050000078C007C00F002806D0FC480078802107
:103060000843FA49087005E0F84800788021884351
:10307000F6490870F448007802210840002806D07C
:10308000F248407880210843F049487005E0EF4855
:10309000407880218843ED494870EB48007804214E
:1030A0000840002806D0E948807880210843E74995
:1030B000887005E0E548807880218843E34988707E
:1030C000E148007808210840002806D0DF48C07891
:1030D00080210843DD49C87005E0DC48C0788021C4
:1030E0008843DA49C870D848007810210840002881
:1030F00006D0D648C07903210843D449C87105E0F9
:10310000D248C07980088000D049C871CE48007884
:1031100020210840002806D0CC48C0790C21084363
:10312000CA49C87105E0C948C0790C218843C7491C
:10313000C871C7480078C007C00F002806D0C34830
:10314000C07B07210843C149C87305E0BF48C07B65
:10315000C008C000BD49C873BD48008802210840AE
:10316000002806D0B948007920210843B7490871E2
:1031700005E0B648007920218843B4490871B44875
:10318000008804210840002806D0B048007940217A
:103190000843AE49087105E0AC48007940218843F6
:1031A000AA490871AA48008808210840002806D0CA
:1031B000A648C07B80210843A449C87305E0A34802
:1031C000C07B80218843A149C873A1480088102191
:1031D0000840002806D09D48407B0C2108439B49AD
:1031E000487305E09948407B0C2188439749487310
:1031F0009748008820210840002806D0934800798D
:10320000102108439149087105E090480079102188
:1032100088438E4908718E48008840210840002864
:1032200006D08A4800798F2108438849087105E053
:10323000864800798F218843844908718448008832
:1032400040210840002806D08048407BF0210843F8
:103250007E49487305E07D48407BF02188437B49E7
:1032600048737B48008840210840002806D07748F2
:10327000807BFF2108437549887304E07348807B95
:103280000020724988737248008840210840002855
:1032900006D06E48C07BF82108436C49C87305E02E
:1032A0006A48C07BF82188436849C8736948007838
:1032B000C007C00F002806D0644840798021084329
:1032C0006249487105E061484079802188435F493F
:1032D00048716048008802210840002806D05B48F9
:1032E0004079402108435949487105E057484079E1
:1032F00040218843554948715648008804210840B8
:10330000002806D051488079802108434F498871B0
:1033100005E04E488079802188434C4988714D48AA
:10332000008808210840002806D04848407901213B
:1033300008434649487105E0444840794008400048
:10334000424948714348008810210840002806D0AF
:103350003E484079062108433C49487105E03B4816
:10336000407906218843394948713A48008820212C
:103370000840002806D035484079082108433349E1
:10338000487105E031484079082188432F49487148
:103390003048008840210840002806D02B4840795A
:1033A000302108432949487105E0284840793021F7
:1033B0008843264948712748008880210840002812
:1033C00006D022488079022108432049887105E00F
:1033D0001E488079022188431C4988711D48008855
:1033E000FF2101310840002806D0184880790421C7
:1033F00008431649887105E0144880790421884300
:1034000012498871134800880121490208400028A8
:1034100006D00E488079082108430C49887105E0E0
:103420000A4880790821884308498871094800883A
:1034300001218902084000280ED00448807910211B
:103440000843024988710DE0C2000020B801002045
:10345000C4000020C6000020D9488079102188438C
:10346000D7498871D74800880121C902084000283F
:1034700006D0D348807920210843D149887105E0DE
:10348000CF48807920218843CD498871CD48008874
:10349000012109030840002806D0C948807901218C
:1034A0000843C749887105E0C54880794008400055
:1034B000C3498871C3480088012149030840002896
:1034C00006D0BF48807940210843BD49887105E096
:1034D000BB48807940218843B9498871BA4800784F
:1034E000C007C00F002806D0B548007B0321084361
:1034F000B349087305E0B248007B80088000B049FA
:103500000873B1480078C007C00F002806D0AC4847
:10351000C07AC0210843AA49C87205E0A848C07A09
:10352000C0218843A649C872A748008802210840E4
:10353000002806D0A248007B1C210843A04908733C
:1035400005E09F48007B1C2188439D4908739E48E5
:10355000008804210840002806D09948007B80217B
:1035600008439749087305E09548007B802188430C
:10357000934908739448008804210840002806D025
:103580008F48407B032108438D49487305E08C48F0
:10359000407B800880008A4948738B480088082156
:1035A0000840002806D08648C07A3E210843844956
:1035B000C87205E08248C07A3E2188438049C872BB
:1035C0008148008810210840002806D07C48007BF4
:1035D000602108437A49087305E07948007B60213F
:1035E00088437749087378480088202108400028DC
:1035F00006D07348407AF02108437149487205E0CB
:103600006F48407A602188436D4948726E4800884F
:1036100040210840002806D06948C07A01210843AB
:103620006749C87205E06648C07A400840006449AE
:10363000C8726548008840210840002806D06048CC
:10364000807AC02108435E49887205E05C48807A30
:10365000C02188435A4988725B480088802108400D
:10366000002806D05648807A0321084354498872BE
:1036700005E05348807A400840005149887252481A
:10368000008880210840002806D04D48407A032158
:1036900008434B49487205E04948407A90218843E5
:1036A0004749487248480088FF21013108400028F6
:1036B00006D04348807A3C2108434149887205E09E
:1036C0003F48807A3E2188433D4988723E480088C1
:1036D000012149020840002806D03948407A0F21CC
:1036E00008433749487205E03548407A000900012F
:1036F00033494872344800880121490208400028B3
:1037000006D02F48007AC02108432D49087205E0F1
:103710002B48007AC0218843294908722A4800882A
:10372000012189020840002806D02548C079F021EF
:1037300008432349C87105E02148C079F021884336
:103740001F49C871204800880121C902084000288B
:1037500006D01B48007A032108431949087205E086
:103760001748007A800880001549087216480088BA
:10377000012109030840002806D01148007A0C21D5
:1037800008430F49087205E00D48007A0C21884370
:103790000B4908720C4800880121490308400028A1
:1037A00006D00748007A302108430549087205E031
:1037B0000348007A302188430149087200BD0000A7
:1037C000B8010020C6000020C8000020064800788C
:1037D000064908700448407848700348807888702B
:1037E0000148C078C8707047BE000020B8010020B2
:1037F00070B506460C46FDF75FFF012000F06FF83C
:103800008420FDF727FFFCF7D1FF3046FDF722FFAC
:10381000FCF7CCFF002509E02046FDF71BFFFCF775
:10382000C5FF012000F05BF8681CC5B2102DF3DB6A
:10383000FDF764FF012000F052F870BD70B5054639
:103840000C46FDF739FF012000F049F88420FDF710
:1038500001FFFCF7ABFF2846FDF7FCFEFCF7A6FFD7
:103860002046FDF7F7FEFCF7A1FFFDF747FF01201B
:1038700000F035F870BD2021020C01D01021104657
:10388000020A01D010460839020901D01046091F6A
:10389000820801D01046891E420801D0881E704758
:1038A000081A704730B47446641E2578641CAB4215
:1038B00004D3635D5B00E31830BC18471D46F8E78E
:1038C00002E008C8121F08C1002AFAD170477047E9
:1038D000002001E001C1121F002AFBD17047002126
:1038E00008E0002202E000BF531C9AB2012AFADB72
:1038F0004B1C99B28142F4DB7047000010B50446BE
:103900002300FFF7CFFF0A06101B26313C46505A12
:103910005F6F032202213548FEF76CF8012134481D
:10392000FDF758FF5FE00322082105200007FEF79E
:1039300061F830492E48FDF74DFF54E00322102175
:1039400005200007FEF756F82B492948FDF742FFEE
:1039500049E00322402105200007FEF74BF82749E4
:103960002348FDF737FF3EE00322802105200007B2
:10397000FEF740F822491E48FDF72CFF33E00322F2
:1039800001212048FEF736F81F491948FDF722FFAC
:1039900029E0032240211548FEF72CF81B49144862
:1039A000FDF718FF1FE0032201211048FEF722F85F
:1039B00017490F48FDF70EFF15E016490C48FDF7B3
:1039C00009FF10E014490A48FDF704FF01208005B3
:1039D0001249096803229205914301430F4A11607D
:1039E00000BF00E000BF00BF10BD00000004005099
:1039F0000024014002000004040000080800000C3C
:103A000010000010000800502000001440000018B2
:103A10008000001C000100A0000200A40827014053
:103A200000BF0448806804490840801C0149886040
:103A300000BF704700240140E8FFFF7F00BF04483B
:103A4000806804490840401C0149886000BF7047F5
:103A500000240140E8FFFF7F00B58BB00120000586
:103A6000294909680143284A116011460968014043
:103A7000009100BF00BF00200A90069007900890B8
:103A8000099002900390049005900190D005069053
:103A9000002008900990079006A91C48FDF750FEE9
:103AA00007201A49496981430143184A516100BFFF
:103AB000002004909014059000200390029002A929
:103AC0001046FDF76BFE00BF10488068C007C00FAE
:103AD000012148404840002813D100BF0B488068AE
:103AE0000B490840090740180849886000BF00BF1B
:103AF00000BF06488068C00F0028F9D10120FEF7FA
:103B000093F80BB000BD00004010024000240140BB
:103B1000E8FFFF7F002108E0002202E000BF531C05
:103B20009AB2202AFADB4B1C99B28142F4DB70472F
:103B300010B5C148FEF71CF8C048FEF719F8BE489A
:103B4000FEF712F8BC48FEF718F8BC48FEF70CF870
:103B5000BA48FEF712F80120C002FDF747FE012027
:103B6000C003FDF743FEFDF727FBB548806AFF2140
:103B70002D31884203D30120B249087002E00020B1
:103B8000B0490870FFF74CFF00BFAF48AF4908606D
:103B900000BFFEF7D3FE802105200007FDF70BFFD5
:103BA000002803D00120AA49087002E00020A8499B
:103BB00008700221A748FDF7FEFE002803D001206F
:103BC000A549087002E00020A34908701021A3480D
:103BD000FDF7F1FE002803D00120A149087002E0A2
:103BE00000209F490870012105200007FDF7E3FE32
:103BF000002803D001209B49087002E00020994969
:103C00000870022105200007FDF7D5FE002803D02B
:103C100001209549087002E00020934908700821AE
:103C200005200007FDF7C7FE002803D001208F49BB
:103C3000087002E000208D49087000BFFFF7F0FE19
:103C400000F0CAF98A48006902218843884908615E
:103C500001208003874909680322920391430143AD
:103C6000844A116000BF0120114609684204914353
:103C7000420411437F4A116000BF00BF7E480069C3
:103C8000042108437C49086100BF40BF20BF20BF1A
:103C900000BF08460069042188437749086100BFD6
:103CA00073480069022108437149086100BF6648F2
:103CB0006649086000BF8021C006FDF77CFE002831
:103CC00003D001206D49087002E000206B490870A4
:103CD00002216048FDF76FFE002803D001206849EB
:103CE000087002E000206649087010215B48FDF76B
:103CF00062FE002803D001206249087002E0002023
:103D000060490870012105200007FDF754FE0028D6
:103D100003D001205C49087002E000205A49087075
:103D2000022105200007FDF746FE002803D00120F0
:103D30005649087002E00020544908700821052007
:103D40000007FDF738FE002803D001205049087015
:103D500002E000204E490870FCF7CEFDFDF72CFA7A
:103D60003748806AFF212D31884203D30120494919
:103D7000087002E00020474908703948007841493E
:103D8000097888422DD1374800783F490978884220
:103D900027D1354800783D490978884221D13348F8
:103DA00000783B49097888421BD126480078394978
:103DB0000978884215D12648007830490978884228
:103DC0000FD1254800782E490978884209D11C482E
:103DD0002030007B002813D0194800682E49884203
:103DE0000ED217482030007B00280AD01448006803
:103DF0002949884205D2002111482030017300E092
:103E00001CE70120C002FDF707FD0120C003FDF7FC
:103E100003FD0948FDF7A8FE0748FDF7C2FE074865
:103E2000FDF7A2FE0548FDF7BCFE0348FDF7AFFE17
:103E30000248FDF7ACFE10BD002C01400020004000
:103E40008001002032000020AAAA000000300040BB
:103E50003000002000080050310000200004005015
:103E60003300002034000020350000203600002000
:103E700000E000E00070004000ED00E037000020AE
:103E8000380000203A0000203B0000203C000020C9
:103E90003D00002039000020D20F000000BF19486B
:103EA000006A012108431749086200BF00BF00BF34
:103EB0001448006A0221084040080028F7D000BFDB
:103EC00011481249086000BF00BF1148086000BFD8
:103ED0000320486000BF0F48886000BF00BF00BFDC
:103EE0000A48C0688007800F002801D1012000E047
:103EF00000200028F3D000BF07480449086000BF35
:103F00007047000040100240CCCC00000030004060
:103F100055550000B80B0000AAAA00003EB50020CD
:103F20000190029001204007284909688143274AEF
:103F3000116000BF00BF114649680143516000BFD6
:103F400000BF2348006A012108432149086200BFDD
:103F500000BF00BF1E48006A022108404008002838
:103F6000F7D048041A4C6469FF252D022C402146E5
:103F7000174C64692C40A2080C4614432346144C89
:103F800064690325AD04AC4305461D432C43104D25
:103F90006C6100BF40030E494039C96B01430C4AB4
:103FA000403AD1631146C96B0140009100BF00BF88
:103FB0000720400201900020029001A90548FDF76A
:103FC000B3FD002801D0FCF784FB3EBD8018024001
:103FD00040100240007C004010B500BF14488068CB
:103FE000022108431249886000BF00BF08460069EB
:103FF000012108430E49086100BF48158969090C71
:10400000090401430A4A916100BF0220114609696F
:10401000062291430143064A116100BF10464068E1
:1040200002210843114648609620FFF773FD10BD3A
:10403000007C004088B0FCF74FFB00F0B5F8FDF7BE
:10404000CDF8FFF709FDFFF729FF00F0DDF8FFF7D6
:1040500065FFFFF7C1FF01211220FFF7EFFB0021F1
:104060001020FFF7EBFB0F211120FFF7E7FB0021EA
:104070000846FFF7BDFB03211220FFF7DFFB80207E
:104080000521090709690140814201D1012100E0B0
:104090000021002903D1FCF74FFE002822D0062082
:1040A00036490872FCF79EFF35493648006904918D
:1040B0000591069103903348C1688068314A52687F
:1040C0000092029101902F483222192103680320A7
:1040D000FEF76EFB01202C4988722C4800782C4991
:1040E00048731AE0012025490872FCF77BFF244839
:1040F000FF2304900590039300930193C8220021AD
:10410000029306900120FEF753FBFDF71DF82148AE
:1041100021490860002021490870FEF7F3FA1E20AB
:1041200019490870FCF70CFC26E0FDF743FE164821
:10413000C079002808D000201349C87100BF184872
:104140001849086000BF00BF0F48007A002808D057
:1041500000200D490872FEF71DF9FCF7FFFBFEF782
:104160001FFF0948407A002806D0002006494872FF
:10417000FCF796FEFEF77EFBD7E70000E400002088
:10418000FFFF00000801002028010020300A002065
:1041900080010020409C00002C0000202600002010
:1041A000AAAA00000030004000B587B01548006A98
:1041B00003214903084001218903884205D11148A0
:1041C000006A89110840884219D0182101A8FBF71C
:1041D000C2FFFDF71DFAFDF701FA08200190FF204C
:1041E00000020590D9200002069001A8FDF7E2F830
:1041F000FDF7CEF8FDF7E0F9FDF7D2F900BF07B003
:1042000000BD00000020024000B585B00120C003C1
:10421000FDF7F4FA14216846FBF79DFF0020039098
:1042200001901721684601806320029000216846B2
:10423000017469460B48FDF7B9FC00BF0120C0437B
:104240000849086100BF0846FDF7A6FC0548FDF7D0
:1042500099FC1320FDF704FD00211320FDF714FD48
:1042600005B000BD002000401C01FF1F1C01FF1F06
:104270001C01FF1F1C01FF1F1C01FF1F3001FF1F3E
:104280001C01FF1F1C01FF1F0000000004040400AC
:1042900000080000000800000800000008000204F8
:1042A00006080A0C000102030405060007000000CE
:1042B0000F0000001F0000003F0000007F00000012
:1042C000FF000000FF010000FF030000FF070000E7
:1042D000FF0F0000FF1F0000FF3F00004904000027
:1042E000DB0D0000FF3F00003F065B4F666D7D0762
:1042F0007F6F101020000000000000000404040084
:104300000008000000080000080000000800020487
:1043100006080A0C0001020304050600800C0000D8
:10432000C00D00000B0E0000290E0000470E00001B
:104330005B0E0000650E00006A0E0000790E0000A2
:10434000970E0000AB0E0000C90E0000DD0E00004D
:10435000FB0E0000190F0000370F00005F0F000078
:10436000870F0000B90F0000E10F000018100000D7
:104370009043000800000020CC000000C038000876
:104380005C440008CC000020FC040000D038000889
:1043900000366E0100000000000000020300000073
:1043A0000000000000000000040000000100000008
:1043B00000000000000000000000000000000000FD
:1043C00000000000000000000000000000000007E6
:1043D00006050403020101000706050403020201A9
:1043E0000007060504030302010007060504040391
:1043F0000201000706050504030201000706060581
:10440000040302010007070605040302010003007C
:10441000030303030303030300030303030303036F
:104420000300030303030303030300030303030362
:104430000303030003030303030303030003030352
:104440000303030303000003030303030303000048
:0C44500000000000000000000000000060
:04000005080000C12E
:00000001FF
