:020000040800F2
:10000000B8050020D9000008E9160008E112000830
:1000100000000000000000000000000000000000E0
:100020000000000000000000000000001D28000883
:100030000000000000000000BD1D0008A12D000808
:10004000000000000000000000000000EB000008BD
:10005000EB000008610D0008890D0008B10D0008D3
:100060000000000000000000000000000000000090
:10007000EB000008512F0008EB0000080000000012
:1000800000000000EB00000800000000E92D00085F
:100090000000000000000000000000000000000060
:1000A0000000000000000000000000000000000050
:1000B0000000000000000000000000000000000040
:1000C0000448854600F05CFB0048004729480008CA
:1000D000C046C046B8050020044880470448004791
:1000E000FEE7FEE7FEE7FEE7FEE7FEE7A52D0008D8
:1000F000C100000830B50B46014600202022012433
:1001000009E00D46D5409D4205D31D469540491B4B
:100110002546954040191546521E002DF1DC30BD94
:10012000D2B201E00270401C491EFBD2704700228F
:10013000F6E710B513460A4604461946FFF7F0FFE6
:10014000204610BD024670B54A40D30FDB07400081
:100150002DD04A002AD0010E140E000212020919F5
:10016000400A520A8418E50104465443000A120A60
:100170002E045043A4194219200CC543AA18120C8E
:100180000125AD03521C521912047F39240400D0FA
:10019000521C104301D44000491EC2B20C06C009D3
:1001A0002018401C4008802A02D003E0002070BDC7
:1001B00040084000002900DA0020184370BD00000C
:1001C000F0B507460846584087B0C00F0490480075
:1001D0000E46590040084908BC1A884105D23846E5
:1001E00031461E4617460B4602465800400810434B
:1001F0004DD0300D039040055900400D490D05903C
:10020000401A0290402873DA18030121000B0905F7
:100210000843019004980092002806D01146019AE4
:1002200049420020904100910190029840210A1A11
:100230000199009800F0D0F905460C466B4607CBB3
:1002400000F0EBF9C0197141039A0E0D0023D71786
:1002500056401A467A40164344D0049A002A2DD0BC
:10026000029A012A039A15DC1205C01A914101264F
:100270003605001C7141D20F059ED20700930192F2
:1002800002962A46234600F029FA07B0F0BD384608
:100290003146FAE71605234A0F46B218C01AB7418D
:1002A00001210905001C4F4100187F411146181813
:1002B0007941E20F10436D19644113E0E2076D08C4
:1002C00015436408C2071443039A01261205C01A95
:1002D00091413605001C7141CE0740083043490862
:1002E000C01851412A46234600F0EBF9CDE7FFE75D
:1002F000049801224000C117121A00238B41049870
:100300003146C417381AA141EEE730B40124E4079E
:10031000634030BC54E730B40124E407614030BC92
:100320004EE700000000E0FFF0B51FB488B00B9965
:100330000998002448400999C00F490049080991CB
:10034000C0070B990090490049080B91099908983A
:10035000A64608431CD00B990A98084318D0099860
:1003600001244000420D4800410D09982405000376
:10037000000B204309900B980003000B20430B90C7
:1003800050181C494018002201901446104605E000
:10039000002001460DB0F0BD032801DA034600E05D
:1003A00003239C46C11A0AAE0AE05F0008ADED5B6C
:1003B0004F00F75B7D430027AA187C41491C5B1E58
:1003C0006145F2DD410004AB5A522104120C0A438C
:1003D000240C401C0828DFDB01980290009970462D
:1003E00001910090059B049A0799069800F076F910
:1003F000D0E700000DFCFFFFF0B50C465C4085B077
:10040000E40FE40703944C00002664085900944666
:10041000490802460296224321D062460A431ED072
:100420006200570D4A000E032303550D01240246B6
:100430002C492405781B1B0B360B401823432643FD
:10044000614600901C46501AB44103D30098401CEA
:10045000009002E0921800985B41002803DA002027
:10046000014605B0F0BD002001210905074686467A
:1004700011E064461D46141BB54106D36546521B68
:10048000B341744607430C43A646CD0740084908CC
:10049000284392185B4105460D43EAD110461843A4
:1004A00013D06046194650407140084306D060465C
:1004B000101AB34106D20122002306E000220123D4
:1004C000DB0702E00122D243531000987446010575
:1004D000381C6141029C039D0019694100F0F1F84C
:1004E000BFE70000FD03000010B50022962311466F
:1004F00000F0AEF810BD00000EB5054902910021D4
:1005000000910A460B46019100F0E8F803B000BDE7
:1005100033040000410040020122400AD205090EC6
:1005200080187F2901DA00207047962903DC962283
:10053000511AC84070479639884070474A000903ED
:100540000123090B1B051943094B10B5520D9A42A3
:1005500001DA002010BD064B34339A4203DC9A1AAC
:1005600000F04AF810BD03495118884010BD000042
:10057000FF030000CDFBFFFFC20FD2074000400881
:100580000BD0C10D0723DB01C91840020905400A41
:100590001143C208400711437047002001467047CD
:1005A000CB0FDB07490010B5490802460A4307D0C4
:1005B0000A0D07240903E401090B121B002A01DCC0
:1005C000002010BDC900440F0C43C100E018D20543
:1005D000801800F035F810BD10B5202A04DB014664
:1005E000203A9140002010BD914020239C1A0346E0
:1005F000E3401943904010BD10B5202A04DB0846A3
:10060000203AD040002110BD0B46D340D0402024DA
:10061000A21A91400843194610BD10B5202A06DBE6
:10062000CB170846203A1041C1170B4306E00B4692
:100630001341D0402024A21A91400843194610BD0E
:10064000002904DA401C490001D1400840007047ED
:1006500070B40024050C05D11024000402D1002937
:1006600021D01124050E01D100020834050F01D15B
:100670000001241D850F01D18000A41C002801DB8E
:100680004000641C002908D020252E1B0D46F54093
:10069000A14000D001212943084301061B1B000A89
:1006A000DB1D02D5002070BC7047DB0518188018D0
:1006B0000029F8DA401C4900F5D170BC4008400020
:1006C000704710B5002B08DA0024401C61419218D5
:1006D0005B411A4301D14008400010BDF0B51FB482
:1006E00082B005460C0003D0084602F041FC02E04F
:1006F00002F03EFC20300246009021462846FFF7DB
:100700006BFF049B059A04460F46184311430843A8
:1007100014D0184610431BD0009840210A1A1846DE
:100720000599FFF769FF05460E46009A059904985A
:10073000FFF752FF084305D0012004E02046394668
:1007400007B0F0BD0020C11705430E432C433743CB
:1007500000990E986305401A7905E40A00220C43BB
:10076000FD0A0A3002D500200146E9E7010510190B
:1007700069410C9C0D9D00196941FFF7A2FFDFE75D
:10078000064C0125064E05E0E36807CC2B430C3CE4
:1007900098471034B442F7D3FFF796FCDC4D0008BD
:1007A000FC4D0008FEE7000038B501211C48026836
:1007B0000A43026000680840009009071848403862
:1007C000C26B0A43C263C26B0A4000920168821581
:1007D0001143016001684905C90F0029FAD08168F9
:1007E0000F221202914381608168C908C9008160AB
:1007F0003822816811400029FBD181680722120349
:1008000091438160074C204600F008FF06490A69C1
:10081000022002430A61204600F026FF38BD000096
:100820004010024000366E0100E000E0F8B5214BB8
:10083000D87800F0ADF80546987800F0A9F804469D
:100840000A212846FFF756FC0091FFF74DFE1A4E8D
:1008500007462046FFF750FE184A194BFFF764FD84
:1008600004460D460098FFF747FE164A164BFFF761
:100870005BFD22462B46FFF7A3FC04460D46384697
:10088000FFF77AFE22462B46FFF79AFCFFF788FE19
:100890000E49FFF757FC7060FFF73CFE80B23080D6
:1008A0000B494018C92802D34B2000013080308802
:1008B000F8BD00002000FF1F08000020FCA9F1D2B5
:1008C0004D62503F9A9999999999B93F00007A449D
:1008D000B4FBFFFF10B520200C4CA06200220821C1
:1008E000204600F05DFE0820A061012002F073FBAD
:1008F0002020A061012002F06EFB2020A0620122D6
:100900000821204600F04CFE10BD000000040050FD
:1009100010B5034600220D4C2020A062012002F0F9
:100920005AFB180602D50820A06101E00820A06249
:100930005806030E2020A061012002F04CFB521C3F
:10094000D2B2082AE8D3FFF7C5FF10BD000400505B
:1009500010B5044603F066FC7820FFF7D9FF204667
:10096000FFF7D6FF03F070FC10BD000010B50920A2
:1009700000F032FA054C6060FFF758FFA0600203F8
:10098000101A6168FFF7B6FB206010BD78010020E7
:1009900001090A2251430007000F4018C0B27047F6
:1009A000024900200860024908607047300A0020B0
:1009B000400A0020FEB5DA49DA4A084605464C7B73
:1009C00020304035D2780026D74F0190002C72D0CD
:1009D000086A401C08624B6A984205D20E70900764
:1009E00001D401F005FFFEBDCD498B6A097B984219
:1009F00016D9CB4D2E62641EE0B268730028F2D186
:100A0000012908D02E7301988675900701D401F052
:100A1000EFFE2E70FEBDC549052008702E73F2E76B
:100A2000BF4E01243470012922D0032923D0042988
:100A300028D0082940D0062957D00729EAD1BC4838
:100A40000122FF21007802F03BFE0122FF213878CD
:100A500002F0CEFBFF2002F0E9FDFF2002F0C1FB17
:100A6000FF2002F0B3FB707B0128D3D16C73FEBD75
:100A700002F098FBFEBD01F0EBFA707B0128F9D182
:100A80006C73FEBDAA480022FF21007802F018FE18
:100A90000022FF21387802F0ABFBFF2002F0C6FDF8
:100AA000FF2002F09EFBFF2002F090FB707B0128EC
:100AB000E7D16C73FEBD31E09D480122FF21007833
:100AC00002F0FEFD0122FF21387802F091FBFF20A9
:100AD00002F0ACFDFF2002F084FBFF2002F076FB69
:100AE000707B0128E6D16C73E4E791480122FF2175
:100AF000007802F0E5FD0122FF21387802F078FB52
:100B0000FF2002F093FDFF2002F06BFBFF2002F0BC
:100B10005DFB707B0128CDD16C73CBE7854C697B85
:100B2000207A012901D1002805D0910710D57C49F0
:100B300001200870BEE780490120087003F016FF0D
:100B4000052000222021000700F00CFD6E73B1E7A4
:100B50005107AFD5774A203AD16A00281BD07D20B3
:100B6000C0008142A6D8052000222021000700F005
:100B7000F9FCA07A401CC0B2A072322808D36E499A
:100B8000012008706D49886103F0F0FEA67226729C
:100B9000634806708EE76A48814230D3607A401C11
:100BA000C0B26072322885D305273F070122202179
:100BB000384600F0D7FC2020B86166720127277202
:100BC0005748182101735C4C6670019806750198AE
:100BD00087750198467603F0C9FE00237D22D20076
:100BE00019460120009601F029FE66704C48066304
:100BF00026702E7301F0FCFD504887625AE7207F73
:100C000000282DD0FFF7B2FE4A4841222038016863
:100C10009201914222D30146086B401C08631428BC
:100C20001ED301204549886103F0A0FE05252D074C
:100C300001222021284600F095FC2020A86101F027
:100C4000D7FD3D4806702677642038700120207556
:100C50004B203849C0002039886301E006632677BD
:100C6000207D002815D033492039886B00284FD0CB
:100C7000401E88632E480022FF21007802F020FDEC
:100C80000022FF21387802F0B3FA254901200870CC
:100C900010E7FFF76BFE274D2A49203D2868884260
:100CA00002D33878632802D23878642811D1286BAF
:100CB000401C28633C280CD301F09AFD6420387056
:100CC00001202075667516480A2101734B20C0006B
:100CD000A863134901200870A07D401CC0B2A07514
:100CE000322813D2192808D90022FF21387802F0BF
:100CF0007FFAFF2002F06AFADCE60022FF21387852
:100D000002F076FA002002F061FAD3E6A675D1E689
:100D100001F06EFD66750848067001480670C9E668
:100D2000CC00002068010020100A002020010020D3
:100D3000200A002098010020100000200008005028
:100D40007E0400004410000008B5044948430090A8
:100D500000BF0098411E0091FAD208BDB80B0000F8
:100D600010B5012000F06CFB064C002801D00120DA
:100D7000E060022000F064FB002801D00220E06067
:100D800010BD00000018024010B5042000F058FB10
:100D9000064C002801D00420E060082000F050FB41
:100DA000002801D00820E06010BD000000180240BB
:100DB00010B5102000F044FB064C002801D0102094
:100DC000E060202000F03CFB002801D02020E06003
:100DD00010BD00000018024010B5034602F068F98B
:100DE000D8B202F001F902F06FF908488168084AA8
:100DF0001140091D816001684907C90F0029FAD017
:100E000004210160006C80B210BD0000002401408C
:100E1000E8FFFF7FF8B54448444DC07800268007BE
:100E2000434C00280BDA19202075E661A069401CAC
:100E3000A061562802D9A66101202870F8BD287843
:100E40003C4F002808D02E703878002803D038781E
:100E5000401E387000E03E70207D002802D0401E09
:100E60002075F8BDFFF782FD2F48C078400756D5A2
:100E700039782F48203063292ED839785A2902D260
:100E80001E21697001E00A2169703A7821682A4BB5
:100E900092009A586B78D218914224D9FF22E169C6
:100EA000C332914202D2491CE1611CE0E66139780B
:100EB000632906D03978491C39702673A6612E70D3
:100EC00011E01E4A616A914202D2491C6162F4E754
:100ED0003978491C3970F0E7E661642139700121E5
:100EE0000175A6612E703978642903D364213970A5
:100EF00001210175017D002911D0114A216891421B
:100F00000DD2104A012111704177612139700522FB
:100F10001207116803239B02994311600675387804
:100F200000F012F82061F8BD68010020BC0000202C
:100F300078010020100A00204C4C000870170000B7
:100F4000D20F0000100000200020704710B50A48A2
:100F500008490068FFF7CEF8084908700878642847
:100F600001D364200870087800F00CF80449486345
:100F700010BD000000E20400000A0020200A00204A
:100F80002C0100200020704770B50020FFF724FFDF
:100F9000074CA061074D29684843000BE06107201A
:100FA000FFF71AFFA06129684843000B206270BD5B
:100FB0002C0100207801002070B5FFF7D7FCFFF767
:100FC000D5FCFFF7D3FC134B00201873124C1968A3
:100FD000124AA14203D810700120187311E0104882
:100FE000814202D9642010700BE001200D4C850075
:100FF0006559A94201D2107003E0401CC0B26428B8
:10100000F5D31078FFF7A0FF1861107806494864FF
:1010100070BD000078010020160D0000100A0020AD
:10102000181000004C4C0008CC00002010B5FFF751
:101030009DFC0120FFF7D0FE02490A684243100BD5
:10104000C86210BD78010020F8B50021C9434948A5
:10105000426B4163406B0090474D002204212846BB
:1010600000F076FA00220421284600F0AFFA802032
:1010700005242407A0614020A06101228021204690
:1010800000F066FA00228021204600F093FA012247
:101090004021204600F05CFA00224021204600F06A
:1010A00089FA364E01221146304600F051FA0022EC
:1010B0000121304600F07EFA0120B06101220821B2
:1010C000284600F045FA00220821284600F072FA6E
:1010D00003220821284600F08DFA0122202128460B
:1010E00000F036FA00222021284600F063FA03229D
:1010F0002021284600F07EFA00220221204600F03E
:1011000027FA02221146204600F060FA0322082145
:10111000204600F01DFA00221021204600F018FAA7
:1011200001221021204600F051FA00222021204601
:1011300000F00EFA01222021204600F009FA0022D8
:101140002021204600F036FA00222021204600F01F
:101150003DFA03222021204600F04CFA032202210E
:10116000284600F0F5F903220121284600F0F0F9A5
:10117000F8BD0000001002400004005000080050BC
:1011800070B50120534EB061C00200F0EFF830019D
:1011900000F0ECF850480168012421430160B000E0
:1011A000016821430160802005252D07A8610122E7
:1011B0008021284600F0EAF900228021284600F02C
:1011C000FFF94020A86101224021284600F0DEF905
:1011D00000224021284600F0F3F901221146304652
:1011E00000F0D4F900220121304600F0E9F9B461A1
:1011F00003F0BCFB394C03220221204600F0C6F963
:1012000000220221204600F0EBF9032201212046B2
:1012100000F0BCF900220121204600F0E1F9002293
:101220000421204600F0B2F900220421204600F0FB
:10123000D7F901220821204600F0A8F90022082150
:10124000204600F0BDF903220821204600F0DCF919
:1012500001222021204600F099F900222021204679
:1012600000F0AEF903222021204600F0CDF9002243
:101270000221284600F08AF903220821284600F0BE
:1012800085F900221021284600F080F90122102162
:10129000284600F0A5F900222021284600F076F922
:1012A00001222021284600F071F900222021284641
:1012B00000F086F903222021284600F0A5F9022239
:1012C0000421284600F08CF901224021204600F03C
:1012D00087F970BD00080050002C01400004005048
:1012E000FEE7000070B500228368DB07DB0F002BF0
:1012F00002D00122104670BD8C684B68C56823433C
:10130000CC68064E35402C432343C360036909680B
:101310001B011B090B430361ECE70000C7BFFFFF84
:1013200010B500228368DB07DB0F002B02D00122FF
:10133000104610BD4C680B6823438C68C9680C4389
:10134000C1682343024C21400B43C360F0E7000017
:101350003FC2FEFF08B504490A6802430A600968F3
:101360000140009108BD00004010024008B504494A
:101370000A6802430A6009680140009108BD000044
:101380004010024010B5002203792C4C0168002B5C
:101390004AD000294FD04379002B12D0012B18D00E
:1013A000022B1ED001228179002944D0234B803B9F
:1013B00001291ED0022925D003292CD00220024366
:1013C00039E063688B436360016823680B432360E3
:1013D000E9E723688B432360016863680B4363601C
:1013E000E1E723680B432360016863680B43636094
:1013F000D9E701685C688C435C6000681968014348
:10140000196018E001681C688C431C60006859680A
:10141000014359600FE001681C680C431C600068C0
:1014200059680143596006E023688B4323600068D4
:10143000616881436160104610BD00008018024061
:101440000349C968884301D00020704701207047D4
:101450000018024010B50A02130E0A0A89070C0F81
:10146000044961180C6E93409C43904004430C6601
:1014700010BD000000180240F0B500233EE001243A
:101480009C402240002A38D04F68144606686443C6
:1014900065006519AE4367433E4306604E68012E02
:1014A00001D0022E05D18F6886686743AE433E4364
:1014B00086600F69C668AE4325467D432E43C660ED
:1014C0004D68022D19D1FF2A0AD84D69066A544386
:1014D0005443E200121B96436C43264306620CE021
:1014E0004D69140A2246624362436243D400A61A3D
:1014F000446A6A43B443144344625B1C0A6814465A
:10150000DC40BCD14A68012A01D0022A06D10A680F
:10151000C968436893434A43134343600020F0BDC6
:101520000069814301D000207047012070470069A5
:10153000814301D0002070470120704710B5036837
:1015400049434C000C19A34351430B43036010BDA6
:1015500010B5036849434C000C19A34351430B4396
:10156000036010BD10B5036849434C000C19A34338
:1015700051430B43036010BD10B5036849434C0051
:101580000C19A34351430B43036010BD10B503680E
:1015900049434C000C19A34351430B43036010BD56
:1015A00010B5036849434C000C19A34351430B4346
:1015B000036010BD43688B4351430B434360704746
:1015C00043688B4351430B434360704710B5C36876
:1015D00049434C000C19A34351430B43C36010BD56
:1015E00010B5C36849434C000C19A34351430B4346
:1015F000C36010BD10B5836849434C000C19A34368
:1016000051430B43836010BD10B5836849434C00C0
:101610000C19A34351430B43836010BD10B57D21CA
:10162000C900FEF767FD0449401E4861002088613B
:101630000520086110BD000000E000E010B50022A8
:101640000369DB07DB0F002B01D0012207E00B68E9
:1016500049680B43C168034C21400B43C3601046EB
:1016600010BD0000FFF1BFFF014908607047000096
:101670000000002030B50268104B984203D170245E
:10168000A2434C6822430E4C984201D0A04204D1A0
:1016900003252D02AA43CD682A4302608A68C262EC
:1016A0000A888262984201D0A04201D1097C01637C
:1016B0004169012211434161002030BD002C0140ED
:1016C0000020004008B507490A690092421C05D075
:1016D000401C03E00A69D20300D5401E0028F9D15E
:1016E00008BD000000E000E0704700008307FF2213
:1016F000DB0E9A408907090E994000280BDA000793
:10170000000F0838830808489B001818C3699343E2
:101710000B43C3617047830804489B001818036893
:1017200093430B430360704700ED00E000E400E0EA
:101730008307FF22DB0E9A408907090E9940002893
:101740000BDA0007000F0838830808489B001818B8
:10175000C36993430B43C3617047830804489B00EC
:101760001818036893430B430360704700ED00E0D3
:1017700000E400E0F8B5FE48FE4FC0783C46C107E3
:101780000126FD4D203C002976D0F94B4108490047
:10179000D970A07D002808D12246203A107B13285A
:1017A00003D00020A07550731073F2484038427B7C
:1017B000002A61D1F14A527A012AE5D049075BD467
:1017C00000210170FFF7D2F8FA20401EC0B20028B5
:1017D000FBD1EB480078012802D0022805D009E0AF
:1017E000E548E8492038C16204E0E649E248323978
:1017F0002038C162E448017B00291CD007460673EB
:10180000E24800250570DB48042140380173E049B7
:101810002575A67566760D700563DE480570002394
:10182000322219210A20009501F008F8BD612575C2
:10183000D9480570F8BDD448D849006888421CD8FA
:10184000D14F3E73D14800250570D24AD04BC948CC
:101850000421403801732575A67566761D700563F1
:1018600015700023322219210A20009500F0E6FFAE
:10187000BD61C9480570F8BD48E1BF490020203965
:101880000870487001F062FABF48007B00280BD155
:10189000BE480078002807D000202876322080211A
:1018A0000522120791621AE0B7480673B749002073
:1018B0000870B049042240390A73B54A2075A675EC
:1018C000667610700863B3490870009000233222D6
:1018D00019210A2000F0B2FFCDE7401EC0B2002857
:1018E000FBD1FFF779FAA4492039886180220521CC
:1018F00009078A61FF221201904202D9287E401C0A
:101900002876FA20401EC0B20028FBD13220802267
:10191000052109078A6201E0401EC0B20028FBD100
:10192000FFF75AFA944B203B986180210522120759
:101930009161FF210901884202D9297E491C29763B
:101940009149E12209681201914202D8944A5A62EF
:1019500002E0934A14325A6287492039496A884220
:1019600015D884480621403801738949002525751A
:10197000A67565760D7005633D7302F0F7FF0023D1
:10198000322219210320009500F058FF73E7287ECA
:10199000022801D30020287600202876322040211A
:1019A00005221207916201E0401EC0B20028FBD15F
:1019B0000720FFF711FA704920398861402205217C
:1019C00009078A61FF221201904202D9287E401C39
:1019D0002876FA20401EC0B20028FBD132204022D7
:1019E000052109078A6201E0401EC0B20028FBD130
:1019F0000720FFF7F1F9604B203B98614021052259
:101A000012079161FF210901884202D9297E491CF0
:101A100029765A6A1946904215D856480621403808
:101A200001735B4900252575A67565760D70056304
:101A30003D7302F09BFF0023322219210320009501
:101A400000F0FCFE17E7287EC8285FD264202872C9
:101A5000002008754A480078012802D0022832D0B8
:101A60003FE0454806212038C078401CFEF742FB85
:101A700041482038C170032901D2012000E0002034
:101A80003D492039887000280ED0C82008730020F6
:101A900088734873C8730E70802205231B079A62EF
:101AA0004870402098611CE0002008738873C822A9
:101AB0004A73C873087080200522120790614E7027
:101AC000402090620DE0C8220A73002088734A7398
:101AD000C8730E7080200522120790624E7040205D
:101AE00090620222227605200007016803239B02F0
:101AF00099435302194301602021816100F090FE57
:101B00001B49C8781043C870224806701848C0782E
:101B100080077DD5287A002844D0174D203D2878AD
:101B200000285DD0A87C00285AD00020FFF754F987
:101B3000A861A97C002953D0FF38AF21F5380901ED
:101B400088424DD20B4806214038017310490025C8
:101B50002575A67565760D7005633D7302F006FF69
:101B60000023322219210320009500F067FE82E64F
:101B7000680100200C0100204C0100202001002001
:101B8000C7000020AC0D000078010020100A0020E2
:101B90001100002010000020BC0000201C0C0000E0
:101BA0000A0F00006B480821017300252575A675F2
:101BB00066766948057067480563684805703D7337
:101BC00002F0D4FE0023322219210220009500F0F9
:101BD00035FE60480577604805705E4845774AE6FF
:101BE0006878002825D0E87C002822D00720FFF75D
:101BF000F3F8A861E97C00291BD0FF385849F63872
:101C0000884216D25348062101730025524900E04C
:101C100095E02575A67565760D7005633D7302F038
:101C2000A5FE0023322219210320009500F006FEB4
:101C300021E6287C2F4601283ED100253D74FEF781
:101C400095FE48480168AF200001814202D8387DE6
:101C5000401C3875387D032816D33E480421017393
:101C60003D492575A67566760D7005633B48057080
:101C70000023322219210A20009500F0DFFD3A48A6
:101C8000057038488561F6E5FFF77EF9F86AC822E5
:101C90005043F969FEF72EFAB860C82802D3C8206D
:101CA000387309E0322802D83220387304E0404308
:101CB000C821FEF71FFA3873787C01288FD10025E0
:101CC0007D74FEF753FE27480168AF200001814272
:101CD00002D8387D401C3875387D032816D31D493D
:101CE000042008731C482575A675667605700D637B
:101CF0001A4805700023322219210A20009500F0AD
:101D00009DFD1948057017488561B4E5FFF73CF95A
:101D1000F86AC8225043396AFEF7ECF9B860C8285F
:101D200002D3C8203873A6E5322802D8322038738F
:101D3000A1E54043C821FEF7DDF978739BE50B4828
:101D40000021017041708020052109078861402031
:101D5000886190E5CC0000201100002010000020D8
:101D6000EF0A000078010020BC0000202C010020B8
:101D700070B50F4DE878800719D580200524240719
:101D8000A0614020A061FEF70BFE0A490020087008
:101D90004870E87840084000FD210840E8700022C3
:101DA00020212046FFF7E8FB03490120087070BDA1
:101DB000680100202C010020110000207047000065
:101DC000F8B5052002210007FFF7AAFB0125784F8F
:101DD000002803D038782843387003E0387840086A
:101DE00040003870FFF722F97248C16AFF205F3067
:101DF000814204D3387804210843387003E03878EE
:101E0000FB210840387004216B48FFF789FB00284C
:101E10000FD03878FD210840387038787978674ECF
:101E20000024884278D0BA78032A07D2521CBA70AC
:101E300073E03878022108433870EEE7C20706D015
:101E4000CA0704D15E4A1572FA782A43FA70C007AD
:101E500007D1C80705D0F87840084000F870FFF7B0
:101E600087FF387881070FD5797889070CD432211C
:101E7000797154490D7039790A2905D2504A127A7C
:101E8000002A01D0491C3971810706D47978890765
:101E900003D51E2179714B490C70400717D578780E
:101EA000400714D448480470347502F05FFD43487D
:101EB0000921203801730520002220210007FFF7A7
:101EC0005BFB00F095FCF87804210843F870387843
:101ED00040070AD47878400707D502F047FD00F0A4
:101EE00087FCF878FB210840F8703878010706D5A0
:101EF0007978090703D4F97808221143F9700107AA
:101F000006D47978090703D5F978F7221140F970DA
:101F1000BC70787001E0FFE7BC702A49087800289F
:101F200031D04868401C48602549097A00291BD1F6
:101F3000FF212D31884217D37D21C900884213D853
:101F40001E480321203801731F480470347502F0C5
:101F50000DFD0023FF22C33219460120009400F03A
:101F60006DFC174805720FE0184988420CD3144BDA
:101F70001C720421164802688A43026042688A4340
:101F800042601C7000E04C607879002802D0401E4E
:101F90007871F8BD3879012804D10E4801780129FB
:101FA00002D005703C71F8BD02210170FAE7000013
:101FB000680100207801002000040050EC0000209F
:101FC00020010020B400002011000020B80B000008
:101FD00000180240C700002010B5052002210007AC
:101FE000FFF79EFA164C002803D020780121084301
:101FF0002070FFF71BF81348FF21C06A5F31884249
:1020000004D3207804210843207003E02078FB21CA
:102010000840207004210C48FFF782FA002809D0FC
:102020002078FD21084020700849002008702078A1
:10203000607010BD2078022108432070F4E7000092
:10204000680100207801002000040050B400002046
:10205000F0B58DB00446002C01D100F0C9FB192C5D
:1020600077D22046FEF748FA0022FE4BFEF75CF9D5
:102070000022FD4BFEF7C0F9FEF760FAC5B2FB483F
:1020800000222946007801F01BFBF948002229466E
:10209000007801F0ADF8284601F00CFB284601F06D
:1020A000A0F8284601F092F8284601F0BFFA002572
:1020B000F04E1922735D0021204602F0D5FC6D1C04
:1020C000EDB2522DF5D30B2C1FD260230B22002131
:1020D000204602F0C9FC62230B220021204602F0B8
:1020E000C3FC2D230B220021204602F0BDFC6723F8
:1020F0000B220021204602F0B7FC7A230B2200219C
:10210000204602F0B1FC0DB0F0BD20460C380D2881
:10211000F9D25F2319220C21204602F0A5FC61238D
:1021200019220C21204602F09FFC2C2319220C219D
:10213000204602F099FC662319220C21204602F069
:1021400093FC7B2319220C21204602F08DFCDAE758
:10215000FFE7C8482546193D5B30192D7DD2002682
:102160000746BB5D32221921204602F0A3FC761CF3
:10217000F6B20D2EF5D32846FEF7BEF9B94E002271
:102180003346FEF7D1F80022B74BFEF735F90022AF
:102190003346FEF7C0F8FEF7D1F9C0B201F046FAB7
:1021A0000B2D2AD2892324221921204602F05CFC1F
:1021B0002F2324221921204602F056FC60232422DA
:1021C0001921204602F076FC6223242219212046A0
:1021D00002F070FC2D2324221921204602F06AFC13
:1021E000672324221921204602F064FC7A2324224A
:1021F0001921204602F05EFC85E7204625380D288F
:1022000081D2882332222521204602F02DFC2E2364
:1022100032222521204602F027FC5F23322225218D
:10222000204602F047FC612332222521204602F09D
:1022300041FC2C2332222521204602F03BFC662360
:1022400032222521204602F035FC7B233222252133
:10225000204602F02FFC56E7FFE72146854E323933
:1022600052360C91192947D2002507467B5D4B2237
:102270003221204602F0F8FB6D1CEDB20D2DF5D396
:102280000025735D4B223221204602F013FC6D1CA9
:10229000EDB2092DF5D30C98FEF72EF90022714B03
:1022A000FEF742F80022704BFEF7A6F8FEF746F95B
:1022B000C0B201F0BBF90C980B280CD289233D2247
:1022C0003221204602F0F6FB2F233D223221204608
:1022D00002F0F0FB17E720463E380D288CD2882309
:1022E0004B223E21204602F0E5FB2E234B223E21CD
:1022F000204602F0DFFB06E721464B390B911929F6
:102300002CD2002507467B5D64224B21204602F03B
:10231000D1FB6D1CEDB20D2DF5D30025735D64224C
:102320004B21204602F0A0FB6D1CEDB2092DF5D328
:102330000B98FEF7E1F84B4C00222346FDF7F4FF23
:102340000022494BFEF758F800222346FDF7E3FF31
:10235000FEF7F4F8C0B201F069F9D4E62146643919
:102360000A91192927D2002507467B5D7D22642129
:10237000204602F079FB6D1CEDB20D2DF5D3002542
:10238000735D7D226421204602F094FB6D1CEDB24A
:10239000092DF5D30A98FEF7AFF80022314BFDF76F
:1023A000C3FF0022304BFEF727F8FEF7C7F8C0B294
:1023B00001F03CF9A7E621467D39099119292CD273
:1023C000002507467B5D96227D21204602F072FBA8
:1023D0006D1CEDB20D2DF5D30025735D96227D2188
:1023E000204602F041FB6D1CEDB2092DF5D3099892
:1023F000FEF782F81B4C00222346FDF795FF0022D2
:10240000194BFDF7F9FF00222346FDF784FFFEF785
:1024100095F8C0B201F00AF975E62146963908919F
:10242000192932D2002507467B5DAF22962120462E
:1024300002F01AFB6D1CEDB20D2DF5D30025735D76
:10244000AF229621204602F035FB6D1CEDB2092D1E
:10245000F5D30898FEF750F80022024BFDF764FF11
:10246000002209E000E06F4000003940200A00200F
:10247000100A0020E44B0008DA4BFDF7BDFFFEF721
:102480005DF8C0B201F0D2F83DE62146AF390791C0
:1024900019292CD2002507467B5DC822AF21204692
:1024A00002F008FB6D1CEDB20D2DF5D30025735D18
:1024B000C822AF21204602F0D7FA6D1CEDB2092DDB
:1024C000F5D30798FEF718F8C74C00222346FDF70E
:1024D0002BFF0022C34BFDF78FFF00222346FDF7A1
:1024E0001AFFFEF72BF8C0B201F0A0F80BE6214668
:1024F000C8390691192927D2002507467B5DE122BC
:10250000C821204602F0B0FA6D1CEDB20D2DF5D3B6
:102510000025735DE122C821204602F0CBFA6D1C34
:10252000EDB2092DF5D30698FDF7E6FF0022AE4B7C
:10253000FDF7FAFE0022AB4BFDF75EFFFDF7FEFF55
:10254000C0B201F073F8DEE52146E13905911929A1
:102550002CD2002507467B5DFA22E121204602F0BD
:10256000A9FA6D1CEDB20D2DF5D30025735DFA228D
:10257000E121204602F078FA6D1CEDB2092DF5D369
:102580000598FDF7B9FF984C00222346FDF7CCFED5
:102590000022944BFDF730FF00222346FDF7BBFEDF
:1025A000FDF7CCFFC0B201F041F8ACE52146FA39A5
:1025B000FF2314330491192928D200251F468B4884
:1025C0003A46435DFA21204602F04EFA6D1CEDB208
:1025D0000D2DF4D30025735D3A46FA21204602F012
:1025E00069FA6D1CEDB2092DF5D30498FDF784FF4F
:1025F00000227D4BFDF798FE00227A4BFDF7FCFE92
:10260000FDF79CFFC0B201F011F87CE52146FF39CF
:102610001439FF222D32039119292FD20025174694
:102620007248FF21435D3A461431204602F042FAD7
:102630006D1CEDB20D2DF3D30025FF21735D3A46DD
:102640001431204602F010FA6D1CEDB2092DF4D3BE
:102650000398FDF751FF644C00222346FDF764FE0A
:102660000022604BFDF7C8FE00222346FDF753FE13
:10267000FDF764FFC0B200F0D9FF44E52146FF3901
:102680002D39FF234633029119292CD200251746F4
:102690005648FF22435D46323946204602F0E4F9AF
:1026A0006D1CEDB20D2DF3D30025FF274637FF211A
:1026B000735D3A462D31204602F0FCF96D1CEDB2F7
:1026C000092DF4D30298FDF717FF0022464BFDF7C2
:1026D0002BFE0022434BFDF78FFEFDF72FFFC0B20C
:1026E00000F0A4FF0FE52246FF3A463A0192192A6C
:1026F00031D200251F463D48FF22435D5F323946F7
:10270000204602F0D7F96D1CEDB20D2DF3D3002554
:10271000FF275F37FF21735D3A464631204602F0BE
:10272000A3F96D1CEDB2092DF4D30198FDF7E4FE79
:102730002D4C00222346FDF7F7FD0022294BFDF723
:102740005BFE00222346FDF7E6FDFDF7F7FEC0B273
:1027500000F06CFFD7E42246FF3A5F3AFF27783754
:102760000092192A29D200252048FF21435D3A46CC
:102770005F31204602F078F96D1CEDB20D2DF3D3D8
:102780000025FF21735D3A465F31204602F092F941
:102790006D1CEDB2092DF4D30098FDF7ADFE0022BB
:1027A000114BFDF7C1FD00220E4BFDF725FEFDF795
:1027B000C5FEC0B200F03AFFA5E42046FF387838E5
:1027C00019288FD20025FF2000F030FFFF22735D13
:1027D00091323946204602F047F96D1CEDB2092DC1
:1027E000F1D390E40000394000E06F403F4C000816
:1027F00010B54820FEF7ACF801F014FD7820FEF784
:1028000087F86820FEF784F800240020FEF780F89F
:10281000641C902CF9D301F017FD10BD7047000027
:102820000449034808600449C04308607047000039
:10283000AAAA5555300A0020400A0020FFB581B0F1
:1028400004460D46164605273F070022202138463C
:10285000FEF788FE0F480078FEF776FB0E49002051
:10286000087048700D4AD17849084900FD23194085
:10287000D1708021B9614021B961094B18625C7344
:102880005D629E62049858600A989860FEF788F826
:1028900005B0F0BD100A00202C01002068010020C6
:1028A000CC000020064800680649884204D006484B
:1028B0000068C943884201D1012070470020704759
:1028C000300A0020AAAA5555400A0020F8B5304821
:1028D0001E26407B2F4C00281DD105273F071021C5
:1028E0003846FEF724FE002815D02B48C078810713
:1028F00011D44107294807D501462031097D002917
:1029000009D0816B002906D1007D002803D124481D
:102910000078002801D02670F8BD20780028FBD16F
:1029200000F039FC01201F49886200252572E079FA
:10293000002804D0E571FFF75BFFFEF73DFB14486C
:102940002030C5751848057045708020B86140205A
:10295000B86101F0D5F8FEF713FC042113480268B2
:102960008A430260022102688A43026010210268E1
:102970008A430260042142688A434260022142681D
:102980008A434260102142688A4342602670F8BD43
:10299000CC000020200100206801002078010020E8
:1029A00011000020000800502C01002000180240F7
:1029B000F0B58DB0182107A8FDF7B9FB02270797DE
:1029C00000240894032509950A940B9707A97E48CB
:1029D000FEF752FD7C488762802005263607B061ED
:1029E0004020B061002202217848FEF7CFFD02228C
:1029F00011467648FEF7F4FD002201217348FEF7E8
:102A0000C5FD022201217148FEF7EAFD0122802165
:102A10003046FEF7BBFD032280213046FEF7F4FD71
:102A2000002280213046FEF7CBFD012240213046B6
:102A3000FEF7ACFD032240213046FEF7E5FD002203
:102A400040213046FEF7BCFD002204215F48FEF71E
:102A50009DFD002204215D48FEF7C2FD00220221F7
:102A60003046FEF793FD032208213046FEF78EFD27
:102A7000002210213046FEF789FD01221021304648
:102A8000FEF7AEFD002220213046FEF77FFD00223A
:102A900020213046FEF7A4FD002208214B48FEF716
:102AA00075FD002208214948FEF79AFD00222021E9
:102AB0004648FEF76BFD002220214448FEF790FDBA
:102AC000012211464048FEF761FD032201213E48E4
:102AD000FEF79AFD002201213B48FEF771FD01201F
:102AE00039498862002204213046FEF74FFD00225A
:102AF00004213046FEF774FD002240213348FEF7E2
:102B000045FD002240213148FEF76AFD3048314A38
:102B1000016804200126914215D202940190684672
:102B200006724672857201A8FEF72CFC312109035A
:102B30000120FEF78FFC00210620FEF7F9FD264953
:102B40004020086015E002940190684604724672C5
:102B5000857201A8FEF716FC312109030120FEF75A
:102B600079FC00210620FEF7E3FD1B49402080315F
:102B7000086006940597684606764676857605A829
:102B8000FEF700FC6121C9020020FEF763FC002172
:102B90000520FEF7CDFD104F202038600494102052
:102BA0000390684606744674857403A8FEF7EAFB32
:102BB0000A490020FEF74EFC00210720FEF7B8FD71
:102BC000802038600DB0F0BD0008005000040050B7
:102BD000B8000020B80B000000E100E00100030095
:102BE000F8B55448017800293AD05349544DC97872
:102BF0002C468907514F2034002600294ADA01F07B
:102C0000B5FEFDF7B3FE2E63207D002801D1FFF74E
:102C1000EFFDE86A401CE862C72800D3EE62012697
:102C20002675484C207801281BD0022818D1E86A64
:102C300001F082F80022FF21387800F041FD42487F
:102C40000022FF21007800F0D3FAFF2000F0C9FA3B
:102C5000FF2000F0BBFAFF2000F02CFD0220607086
:102C6000F8BDE86A01F028FB0022FF21387800F067
:102C700027FD35480022FF21007800F0B9FAFF2037
:102C800000F0AFFAFF2000F0A1FAFF2000F012FDE3
:102C90006670F8BD27484078012802D02675EE629C
:102CA000F8BD286B401C2863E86A401CE862C7280E
:102CB00000D3EE6223484078012802D0022818D0C1
:102CC0002EE0E86A01F0F8FA0022FF21387800F0DF
:102CD000F7FC1D480022FF21007800F089FAFF2050
:102CE00000F07FFAFF2000F071FAFF2000F0E2FC14
:102CF00016E0E86A01F020F80022FF21387800F0A1
:102D0000DFFC11480022FF21007800F071FAFF205B
:102D100000F067FAFF2000F059FAFF2000F0CAFC2B
:102D2000286BC828BCD9034846702E632675FFF768
:102D30005FFDF8BD1000002068010020200A00207F
:102D4000CC000020C7000020100A002010B5104958
:102D500010480A7D002A15D10278012A02D80122E2
:102D600002700FE00278521ED2B20B4C9200A258B1
:102D70000B68934206D200238B610278521E0270C8
:102D8000064A13700078FEF7DFF8086110BD0000F6
:102D900078010020100A00204C4C0008BC000020E4
:102DA0007047000010B50C4841680C4A090C1268C5
:102DB0000904114341604168094A1140074A403201
:102DC00092881204114341600649C0038860642060
:102DD000FDF7BAFF10BD0000001002400001FF1F08
:102DE000FFFF00FE00ED00E0F8B552480169C90799
:102DF00069D0C168C907C90F002964D00121C9433E
:102E000001614D480178491C01704C4D052228781C
:102E100012074B4E00210123002825D02C7B002CCB
:102E200005D0A87BC8280BD2401CA87309E0F07815
:102E3000FD242040F070A973A9748020906113E0F4
:102E4000A973A87BA04202D28027976201E0802765
:102E500097610D2800D12B74012804D9641EA0426B
:102E600001DAAB7400E0A9746878002825D06C7B87
:102E7000002C05D0E87BC8280BD2401CE87309E081
:102E8000F078FD242040F070E973E97440209061EF
:102E900013E0E973E87BA04202D24027976201E089
:102EA000402797610D2800D16B74012804D9641E56
:102EB000A04201DAEB7400E0E974224C60780A2841
:102EC00002D2401C6070F8BD63702371A0780A289C
:102ED00002D2401CA070F8BDA3706371F078800727
:102EE00011D51949086800280DD018480078012824
:102EF00002D0022804D006E008686438086002E0C6
:102F0000086891380860E0780A2802D2401CE07016
:102F1000F8BDE370A371FEF719F808492031087A6B
:102F2000002801D0401E087220780028F0D0401EF2
:102F30002070F8BD00200040040000202C0100207B
:102F40006801002020010020000A0020C7000020A6
:102F500006480169C90707D0C168C907C90F002918
:102F600002D00121C943016170470000002C0140DB
:102F70002021020C01D010211046020A01D0104677
:102F80000839020901D01046091F820801D01046F5
:102F9000891E420801D0881E7047081A704730B455
:102FA0007446641E2578641CAB4200D21D46635DE6
:102FB0005B00E31830BC184702E008C8121F08C1C4
:102FC000002AFAD170477047002001E001C1121FAA
:102FD000002AFBD17047002102E000BF491C89B2E2
:102FE0008142FAD37047000070B5014605202C4D90
:102FF0002C4C00070B00FFF7D2FF0A060E151C230E
:103000002A323A42460D032202212846FEF796FA5A
:103010000120A06270BD03220821FEF78FFA022072
:10302000A06270BD03221021FEF788FA0420A0627E
:1030300070BD03224021FEF781FA0820A06270BD16
:1030400003228021FEF77AFA1020A06270BD0322CD
:1030500001211548FEF772FA2020A06270BD0322FC
:1030600040212846FEF76AFA4020A06270BD032284
:1030700001212846FEF762FA8020A06270BDFF2081
:103080000130A06270BD01204002A06242030749E6
:10309000086803239B0598431043086070BD000037
:1030A000000400500024014000080050082701409F
:1030B00003498868034A1040801C886070470000FC
:1030C00000240140E8FFFF7F00B505498868054AF4
:1030D0001040401C8860082000F050F800BD00003F
:1030E00000240140E8FFFF7F30B58BB021490A6B17
:1030F0000120000502430A630A6B82430A631D49EB
:1031000040310A6802430A600968014001910024C5
:10311000089409940A9403940494059406940294E0
:1031200000020790144D07A92846FEF7DBF8072098
:1031300069698143014369610594A8140690049468
:10314000039403A92846FEF7EBF8A868C007C00F50
:1031500000280CD1A86817218843C9070843A86034
:10316000A868C10F0029FBD10120FEF7ABFA0BB014
:1031700030BD00000010024000240140002207E0A2
:10318000002100BF491C89B22029FAD3521C92B2F7
:103190008242F5D3704710B5FFF72AFB6F20FDF789
:1031A000D7FB10BD10B501F03DF87820FDF7B0FB5E
:1031B0006820FDF7ADFB0024FF20FDF7A9FB641C90
:1031C000E4B2902CF8D301F03FF810BD10B50446DE
:1031D00021460F2001F092FC21460F2001F08EFCC9
:1031E00010BD10B50146172001F088FC10BD00008D
:1031F000F7B582B00446264F264D786C2E46283E01
:10320000A04208D0002000F047F8296A0020884733
:10321000316A00208847049800280BD0039800F0FA
:103220003BF8296A03988847316A039888477C6489
:1032300005B0F0BD20460A385A280ED20A21204691
:10324000FCF758FF8000019129580398884701999D
:103250008800315803988847E9E7642C0DD00A2C80
:10326000E5D22968002088470A212046FCF742FF62
:103270008800315803988847D9E7039800F00CF884
:10328000296803988847316803988847CFE700008A
:10329000CC0000203C00002010B501460E2001F0BB
:1032A0002DFC10BD10B504462146072001F026FC78
:1032B0002146082001F022FC2146092001F01EFCD5
:1032C00021460A2001F01AFC21460B2001F016FCD1
:1032D00021460C2001F012FC10BD10B50446214619
:1032E000082001F00BFC2146092001F007FC10BD6D
:1032F00010B504462146072001F000FC21460820B5
:1033000001F0FCFB21460A2001F0F8FB21460B20CE
:1033100001F0F4FB21460D2001F0F0FB10BD10B5CB
:1033200004462146072001F0E9FB2146082001F070
:10333000E5FB2146092001F0E1FB21460A2001F0CE
:10334000DDFB21460D2001F0D9FB10BD10B5044670
:103350002146082001F0D2FB2146092001F0CEFBD6
:1033600021460C2001F0CAFB21460D2001F0C6FBCE
:1033700010BD10B504462146072001F0BFFB2146D1
:10338000092001F0BBFB21460A2001F0B7FB2146D2
:103390000C2001F0B3FB21460D2001F0AFFB10BD66
:1033A00010B504462146072001F0A8FB214609205C
:1033B00001F0A4FB21460B2001F0A0FB21460A20CE
:1033C00001F09CFB21460C2001F098FB21460D20CA
:1033D00001F094FB10BD10B504462146072001F012
:1033E0008DFB2146082001F089FB2146092001F0D0
:1033F00085FB10BD10B504462146072001F07EFB79
:103400002146082001F07AFB2146092001F076FBD5
:1034100021460A2001F072FB21460B2001F06EFBD1
:1034200021460C2001F06AFB21460D2001F066FBCD
:1034300010BD10B504462146072001F05FFB214670
:10344000082001F05BFB2146092001F057FB2146D3
:103450000A2001F053FB21460C2001F04FFB2146CE
:103460000D2001F04BFB10BD10B504462146002095
:1034700001F044FB2146012001F040FB21460220DF
:1034800001F03CFB2146032001F038FB21460420DB
:1034900001F034FB2146052001F030FB10BD10B5D2
:1034A00004462146012001F029FB2146022001F0BB
:1034B00025FB10BD10B504462146002001F01EFB7F
:1034C0002146012001F01AFB2146032001F016FBE2
:1034D0002146042001F012FB2146062001F00EFBDC
:1034E00010BD10B504462146002001F007FB21461F
:1034F000012001F003FB2146022001F0FFFA2146E2
:10350000032001F0FBFA2146062001F0F7FA10BD76
:1035100010B504462146012001F0F0FA21460220B0
:1035200001F0ECFA2146052001F0E8FA21460620D8
:1035300001F0E4FA10BD10B504462146002001F068
:10354000DDFA2146022001F0D9FA2146032001F0DC
:10355000D5FA2146052001F0D1FA2146062001F0D6
:10356000CDFA10BD10B504462146002001F0C6FA80
:103570002146022001F0C2FA2146032001F0BEFAE2
:103580002146042001F0BAFA2146052001F0B6FADE
:103590002146062001F0B2FA10BD10B504462146BE
:1035A000002001F0ABFA2146012001F0A7FA2146E4
:1035B000022001F0A3FA10BD10B5044621460220F6
:1035C00001F09CFA2146032001F098FA21460420DC
:1035D00001F094FA2146052001F090FA21460620D8
:1035E00001F08CFA2146002001F088FA21460120E2
:1035F00001F084FA10BD10B504462146002001F008
:103600007DFA2146012001F079FA2146022001F0DD
:1036100075FA2146032001F071FA2146052001F0D8
:103620006DFA2146062001F069FA10BD10B5044676
:103630001F4A1278012A1ED0022A1BD10021102015
:1036400001F05CFAFF21152001F058FA2146112003
:1036500001F054FA2146122001F050FA21461320BD
:1036600001F04CFA2146142001F048FAFF211620FF
:1036700001F044FA10BDFF21102001F03FFA21466D
:10368000152001F03BFA0021112001F037FA00214A
:10369000122001F033FA0021132001F02FFA00214B
:1036A000142001F02BFA0021162001F027FA10BD9A
:1036B000C700002010B50146582001F01FFA10BDC8
:1036C000F7B582B00A210930FCF714FD0A214843FE
:1036D000C4B2244F244EB86C3546283DA04208D0D1
:1036E000002000F043F8316A00208847296A002052
:1036F0008847049800280BD0039800F037F8316A07
:1037000003988847296A03988847BC6405B0F0BDD0
:1037100020460A385A280ED20A212046FCF7EAFC35
:1037200080000191315803988847019988002958F1
:1037300003988847E9E7642C0AD00A2CE5D20A21CD
:103740002046FCF7D7FC8800295803988847DCE717
:10375000039800F00BF831680398884729680398AC
:103760008847D2E7CC0000208C00002010B501462D
:10377000182001F0C3F910BD10B5044621462020E1
:1037800001F0BCF92146212001F0B8F921462220A0
:1037900001F0B4F92146232001F0B0F9214624209C
:1037A00001F0ACF92146252001F0A8F910BD10B5B3
:1037B00004462146212001F0A1F92146222001F0F2
:1037C0009DF910BD10B504462146202001F096F960
:1037D0002146212001F092F92146232001F08EF9A3
:1037E0002146242001F08AF92146252001F086F99E
:1037F00010BD10B504462146202001F07FF9214676
:10380000212001F07BF92146222001F077F92146A1
:10381000232001F073F92146262001F06FF910BD35
:1038200010B504462146212001F068F921462320E5
:1038300001F064F92146252001F060F92146262097
:1038400001F05CF910BD10B504462146202001F0BE
:1038500055F92146222001F051F92146232001F09B
:103860004DF92146252001F049F92146262001F095
:1038700045F910BD10B504462146202001F03EF95F
:103880002146222001F03AF92146232001F036F9A1
:103890002146242001F032F92146252001F02EF99D
:1038A0002146262001F02AF910BD10B50446214614
:1038B000202001F023F92146212001F01FF92146A3
:1038C000222001F01BF910BD10B50446214620202E
:1038D00001F014F92146212001F010F9214622209F
:1038E00001F00CF92146232001F008F9214624209B
:1038F00001F004F92146252001F000F92146262097
:1039000001F0FCF810BD10B504462146202001F05E
:10391000F5F82146212001F0F1F82146222001F09E
:10392000EDF82146232001F0E9F82146252001F099
:10393000E5F82146262001F0E1F810BD10B5044657
:103940002146192001F0DAF821461A2001F0D6F8B4
:1039500021461B2001F0D2F821461C2001F0CEF8B0
:1039600021461D2001F0CAF821461E2001F0C6F8AC
:1039700010BD10B5044621461A2001F0BFF82146BB
:103980001B2001F0BBF810BD10B5044621461920DC
:1039900001F0B4F821461A2001F0B0F821461C20AD
:1039A00001F0ACF821461D2001F0A8F821461F20A7
:1039B00001F0A4F810BD10B504462146192001F00D
:1039C0009DF821461A2001F099F821461B2001F0AC
:1039D00095F821461C2001F091F821461F2001F0A6
:1039E0008DF810BD10B5044621461A2001F086F866
:1039F00021461B2001F082F821461E2001F07EF8AE
:103A000021461F2001F07AF810BD10B5044621466A
:103A1000192001F073F821461B2001F06FF82146B0
:103A20001C2001F06BF821461E2001F067F82146AA
:103A30001F2001F063F810BD10B50446214619207F
:103A400001F05CF821461B2001F058F821461C20AB
:103A500001F054F821461D2001F050F821461E20A7
:103A600001F04CF821461F2001F048F810BD10B5B8
:103A700004462146192001F041F821461A2001F0A0
:103A80003DF821461B2001F039F810BD10B5044661
:103A90002146192001F032F821461A2001F02EF8B3
:103AA00021461B2001F02AF821461C2001F026F8AF
:103AB00021461D2001F022F821461E2001F01EF8AB
:103AC00021461F2001F01AF810BD10B5044621460A
:103AD000192001F013F821461A2001F00FF82146B1
:103AE0001B2001F00BF821461C2001F007F82146AD
:103AF0001E2001F003F821461F2000F0FFFF10BD3B
:103B0000F8B57D4801684908490001607B490A68A9
:103B1000520852000A600122D2430261C368134076
:103B2000C3600A61C8681040C860C914744802685C
:103B30008A430260090102688A430260FDF776FA4F
:103B400070480026C16AFF205F306F4C012581421A
:103B500001D3A57000E0A670FFF7AAFA6C496B4884
:103B60000860FEF725FF052002210007FDF7DFFCB6
:103B7000002802D02570257200E026700520102153
:103B80000007FDF7D4FC002801D0657000E06670E6
:103B90006048614F0068B84206D204215F48FDF7D3
:103BA000C6FC002833D0E670564F2037FFF780FA66
:103BB00000F01CFE5A48026902218A4302615949F9
:103BC0000A6803239B039A430B141A430A600B6889
:103BD00001225204934313430B6053490A6904239F
:103BE0001A430A6140BF20BF20BF0A699A430A6195
:103BF00001690222114301614549444808600221DC
:103C0000C006FDF794FC002803D0257102E0E570A2
:103C1000CAE72671052010210007FDF788FC00285F
:103C200001D0657100E066713A4801683A48814206
:103C300006D204213948FDF77AFC00280CD0E67141
:103C4000FCF794FEFDF7F2F92E4AFF20D16A5F30AF
:103C5000814203D3A57102E0E571F1E7A671A07876
:103C6000A179884212D12078217988420ED16078DA
:103C7000617988420AD1E078E179884206D1387DBD
:103C8000002893D02949106888428FD2387D284C6B
:103C9000002812D01B48254900683C3188420CD2CC
:103CA0007D75A5610520002220210007FDF76EFC2F
:103CB00000F05CFE3E751F48057000F057FE0120C5
:103CC000A061C002FDF752FB0120C003FDF74EFBCF
:103CD00001220948D2430261C1682943C1600749F2
:103CE0000A61CA682A43CA6002682A4302600868F7
:103CF00028430860F8BD0000002C0140002000406F
:103D00004010024078010020BE000020AAAA000056
:103D100000300040B8000020B80B00000004005044
:103D200000E000E00070004000ED00E0D20F000075
:103D30000008005010000020F8B50446002C01D106
:103D4000FEF756FDFE4DFD4F2E46093E192C4DD275
:103D50002046FCF7D1FB00223B46FCF7E5FA0022A7
:103D6000F84BFCF749FBFCF7E9FBC0B2FFF75EFC40
:103D70000027F35D19220021204600F09BFE7F1CE6
:103D8000FFB2092FF5D30026AB5D19220021204692
:103D900000F06AFE761CF6B20D2EF5D30025E84E33
:103DA000983E735D19220021204600F05DFE6D1CD7
:103DB000EDB2082DF5D30025E14E323E735D192298
:103DC0000021204600F076FE6D1CEDB2192DF5D3D2
:103DD0000025DB4E193E735D19220021204600F0BC
:103DE00043FE6D1CEDB2102DF5D3F8BD20461938F9
:103DF000192850D2FCF780FB00223B46FCF794FACE
:103E00000022D04BFCF7F8FA00223B46FCF783FA7D
:103E1000FCF794FBC0B2FFF709FC0027EB5D3222F0
:103E20001921204600F046FE7F1CFFB20D2FF5D36E
:103E30000025735D32221921204600F015FE6D1C0D
:103E4000EDB2092DF5D30025BD4EA33E735D3222A0
:103E50001921204600F008FE6D1CEDB2022DF5D3AD
:103E60000025B74E323E735D32221921204600F004
:103E7000FBFD6D1CEDB2192DF5D30025B04E193E9A
:103E8000735D32221921204600F014FE6D1CEDB244
:103E9000102DF5D3F8BD2046323819284CD2FCF746
:103EA0002BFB00223B46FCF73FFA0022A54BFCF718
:103EB000A3FAFCF743FBC0B2FFF7B8FB0027F35DA2
:103EC0004B223221204600F0F5FD7F1CFFB2092F66
:103ED000F5D30026AB5D4B223221204600F0C4FD15
:103EE000761CF6B20D2EF5D30025954EA13E735DDE
:103EF0004B223221204600F0B7FD6D1CEDB2032DA0
:103F0000F5D300258E4E323E735D4B223221204682
:103F100000F0D0FD6D1CEDB2192DF5D30025884EB3
:103F2000193E735D4B223221204600F09DFD6D1C31
:103F3000EDB2102DF5D3F8BD20464B38192850D2DC
:103F4000FCF7DAFA00223B46FCF7EEF900227D4B43
:103F5000FCF752FA00223B46FCF7DDF9FCF7EEFADB
:103F6000C0B2FFF763FB0027EB5D64224B212046C4
:103F700000F0A0FD7F1CFFB20D2FF5D30025735D6F
:103F800064224B21204600F06FFD6D1CEDB2092D1F
:103F9000F5D300256A4E9E3E735D64224B21204678
:103FA00000F062FD6D1CEDB2062DF5D30025644EC8
:103FB000323E735D64224B21204600F055FD6D1C9E
:103FC000EDB2192DF5D300255D4E193E735D6422C7
:103FD0004B21204600F06EFD6D1CEDB2102DF5D387
:103FE000F8BD2046643819283FD2FCF785FA002234
:103FF0003B46FCF799F90022524BFCF7FDF9FCF720
:104000009DFAC0B2FFF712FB0027F35D7D22642109
:10401000204600F04FFD7F1CFFB2092FF5D300268C
:10402000AB5D7D226421204600F01EFD761CF6B2B9
:104030000D2EF5D30025424E323E735D7D22642164
:10404000204600F037FD6D1CEDB2192DF5D300258B
:104050003B4E193E735D7D226421204600F004FD35
:104060006D1CEDB2102DF5D3F8BD20467D38192812
:1040700043D2FCF741FA00223B46FCF755F90022F7
:10408000304BFCF7B9F900223B46FCF744F9FCF74A
:1040900055FAC0B2FFF7CAFA0027EB5D96227D21E0
:1040A000204600F007FD7F1CFFB20D2FF5D3002541
:1040B000735D96227D21204600F0D6FC6D1CEDB28A
:1040C000092DF5D300251E4E323E735D96227D21CB
:1040D000204600F0C9FC6D1CEDB2192DF5D300256A
:1040E000174E193E735D96227D21204600F0E2FCBA
:1040F0006D1CEDB2102DF5D3F8BD20469638192869
:1041000045D2FCF7F9F900223B46FCF70DF90022F5
:104110000C4BFCF771F9FCF711FAC0B2FFF786FA05
:104120000027F35DAF229621204600F0C3FC7F1CE0
:10413000FFB2092FF5D30026AB5D05E000E06F402C
:10414000D74B000800003940AF229621204600F0EE
:104150008BFC761CF6B20D2EEED300252F4EAF222F
:10416000735D9621204600F0A5FC6D1CEDB2192D63
:10417000F5D30025294E1936735DAF2296212046CE
:1041800000F072FC6D1CEDB2102DF5D3F8BD204689
:10419000AF381928FAD2FCF7AFF900223B46FCF7FA
:1041A000C3F800221E4BFCF727F900223B46FCF720
:1041B000B2F8FCF7C3F9C0B2FFF738FA0027EB5D9D
:1041C000C822AF21204600F075FC7F1CFFB20D2FE6
:1041D000F5D30025735DC822AF21204600F044FCD2
:1041E0006D1CEDB2092DF5D300250C4EC822735D70
:1041F000AF21204600F038FC6D1CEDB2192DF5D32F
:104200000025064E1936735DC822AF21204600F006
:1042100051FC6D1CEDB2102DF5D3F8BDA54B000877
:104220000000394000B52020064A906108209061C6
:104230000120FEF7D0FE082090620120FEF7CBFEA1
:1042400000BD00000004005000B50820044A906240
:10425000202090610120FEF7BEFE0820906100BD85
:10426000000400500E48016A012211430162016AF4
:104270008907C90F0029FAD00B490A4808600B4882
:104280000860032048600A488860C868800705D035
:1042900000200028F9D00748086070470120F8E79F
:1042A00040100240CCCC00000030004055550000CA
:1042B000B80B0000AAAA0000FEB50446002C01D1EC
:1042C000FEF796FAFE4DFD4F2E460936192C33D2D5
:1042D0002046FCF711F900223B46FCF725F80022A6
:1042E000F84BFCF789F8FCF729F9C0B2FFF79EF903
:1042F0000027F34819221138C35D0021204600F041
:10430000B3FB7F1CFFB2112FF3D30027EB5D192203
:104310000021204600F0CEFB7F1CFFB2092FF5D311
:104320000025735D19220021204600F09DFB6D1CC5
:10433000EDB20C2DF5D3FEBD20461938192836D222
:10434000FCF7DAF800223B46FBF7EEFF0022DD4BDC
:10435000FCF752F800223B46FBF7DDFFFCF7EEF8D6
:10436000C0B2FFF763F90027D54832221530C35D8C
:104370001921204600F078FB7F1CFFB2122FF3D3E7
:104380000027EB5D32221921204600F06DFB7F1CD7
:10439000FFB2092FF5D30025735D32221921204683
:1043A00000F088FB6D1CEDB20C2DF5D3FEBD204650
:1043B0003238019019284DD20198FCF79DF800225F
:1043C0003B46FBF7B1FF0022BE4BFCF715F8FCF7AC
:1043D000B5F8C0B2FFF72AF90027B9484B222730B9
:1043E000C35D3221204600F03FFB7F1CFFB2122F3D
:1043F000F3D367234B223221204600F05BFB019868
:104400000C2806D27C233E223221204600F02CFBD1
:1044100009E020463E380D2805D27B234B223E2161
:10442000204600F021FB0027EB5D4B223221204685
:1044300000F040FB7F1CFFB2092FF5D30025735D10
:104440004B223221204600F00FFB6D1CEDB20C2DEB
:10445000F5D3FEBD20464B380090192869D200984C
:10446000FCF74AF800223B46FBF75EFF0022954B23
:10447000FBF7C2FF00223B46FBF74DFFFCF75EF85F
:10448000C0B2FFF7D3F800278D4864223930C35DEE
:104490004B21204600F0E8FA7F1CFFB2142FF3D323
:1044A000662364224B21204600F004FB6023642233
:1044B0004B21204600F0FEFA64231A464B21204689
:1044C00000F0F8FA2D2364224B21204600F0F2FA86
:1044D0005D2364224B21204600F0ECFA00980C2862
:1044E00006D27C2357224B21204600F0E3FA09E054
:1044F000204657380D2805D27B23642257212046B9
:1045000000F0D8FA0027EB5D64224B21204600F032
:10451000ABFA7F1CFFB2092FF5D30025735D64222F
:104520004B21204600F0C6FA6D1CEDB20C2DF5D3E0
:10453000FEBD2046643819284FD2FBF7DDFF00226C
:104540003B46FBF7F1FE00225E4BFBF755FFFBF706
:10455000F5FFC0B2FFF76AF85F237D226421204691
:1045600000F0A8FA65237D226421204600F0A2FA1B
:104570002C237D226421204600F09CFA5C237D22BE
:104580006421204600F096FA2F237D2264212046E4
:1045900000F06AFA62237D226421204600F064FA6A
:1045A00089237D226421204600F05EFA0027EB5D1E
:1045B0007D226421204600F07DFA7F1CFFB2092F86
:1045C000F5D30025735D7D226421204600F04CFA6E
:1045D0006D1CEDB20C2DF5D3FEBD20467D3819289B
:1045E0003BD2FBF789FF00223B46FBF79DFE0022F2
:1045F000344BFBF701FF00223B46FBF78CFEFBF739
:104600009DFFC0B2FFF712F82E2396227D2120468F
:1046100000F02AFA882396227D21204600F024FA11
:10462000612396227D21204600F01EFA0027EB5DD3
:1046300096227D21204600F017FA7F1CFFB2092F39
:10464000F5D30025735D96227D21204600F032FAD5
:104650006D1CEDB20C2DF5D3FEBD20469638192801
:104660003ED2FBF749FF00223B46FBF75DFE0022EE
:10467000144BFBF7C1FEFBF761FFC0B2FEF7D6FF9C
:104680002F23AF229621204600F014FA8923AF226F
:104690009621204600F00EFA6223AF229621204692
:1046A00000F008FA0027EB5DAF229621204600F0CB
:1046B00001FA7F1CFFB2092FF5D305E000E06F403F
:1046C000584B0008000039400025735DAF22962149
:1046D000204600F0C9F96D1CEDB20C2DF5D3FEBDDE
:1046E0002046AF381928FAD2FBF706FF00223B46D6
:1046F000FBF71AFE00221A4BFBF77EFE00223B4618
:10470000FBF709FEFBF71AFFC0B2FEF78FFF2E235F
:10471000C822AF21204600F0CDF98823C822AF215E
:10472000204600F0C7F96123C822AF21204600F0DF
:10473000C1F90027EB5DC822AF21204600F094F9B3
:104740007F1CFFB2092FF5D30025735DC822AF216E
:10475000204600F0AFF96D1CEDB20C2DF5D3FEBD77
:10476000000039403EB50022019202920121490722
:104770001B4803688B43036043680B43436019483D
:10478000016A012319430162016A8907C90F0029DF
:10479000FAD00124A4044169FF252D022940436970
:1047A0002B409B08194343690325AD04AB430C43DD
:1047B0002343436169030B484038C36B0B43C36316
:1047C000C06B08400090072040020190029201A9AE
:1047D0000548FCF733FF002801D0FBF7E3FF3EBD9F
:1047E0008018024040100240007C004010B50D4887
:1047F000826802210A438260026901231A4302612E
:1048000043158269120C12041A438261026906235D
:104810009A430A43026142680A4342609620FEF7C7
:10482000ADFC10BD007C004008B5FBF7BDFFFCF7F8
:104830000BFCFEF759FCFFF715FD00F0E1F800F066
:10484000AFF800F093F8FFF78DFFFFF7CFFF00F010
:104850008DF83B49012008700220052109070969EC
:10486000884308D00020374F00253C46364E203480
:10487000002806D101E00120F5E7FEF713F8002833
:1048800018D03249012008717572062139733049F8
:104890002575A07565760D703D632A484030057317
:1048A00000F064F800233222192103200095FDF75F
:1048B000C5FF24E0FDF79CFFFCF77EFB0120F071B3
:1048C000307224494D753873A075657600F04EF846
:1048D0000023DB43C822002101200095FDF7AEFF35
:1048E0001E491D4808601E48642101700078B864A4
:1048F00016480571457175721E2030702575FDF7DB
:104900006BFBFCF74DF8174C174FFCF733FF307972
:10491000002800D035717079002807D075713C608F
:10492000FDF74EFAFCF746F8FEF75AF9B079002881
:10493000EBD0B571FCF76EFAFDF7C8FFE5E70000B4
:10494000C7000020CC000020200100202C01002006
:1049500011000020980100200048E801000A002012
:10496000200A0020AAAA00000030004010B53F2015
:10497000FBF7EEFF4820FBF7EBFF5320FBF7E8FFC8
:104980006C20FBF7E5FF8320FBF7E2FF9120FBF7AC
:10499000DFFFC020FBF7DCFFE020FBF7D9FF10BDF5
:1049A00010B586B00120C003FCF7D4FC142101A887
:1049B000FBF7BDFB00200490029017216A4691800E
:1049C0006321039110750C4C01A92046FCF752FE9F
:1049D0000120C0432061E16801200143E1602168BA
:1049E000014321600549C004086001211320FCF740
:1049F0007DFE06B010BD00000020004000E100E098
:104A000010B586B00120C002FCF7A4FC142101A857
:104A1000FBF78DFB00200490029017216A469180DD
:104A20003121039110750E4C01A92046FCF722FE9E
:104A3000606C0121C903084360640120C043206108
:104A4000E16801200143E1602168014321600549DB
:104A50004003086000210D20FCF748FE06B010BDA1
:104A6000002C014000E100E0FFB581B006460F4692
:104A7000901B012800D1761CD01BFBF73DFD04469E
:104A80000D46F01BFBF738FD0022094BFBF74CFCF1
:104A900022462B46FBF7B0FCFBF750FDC1B2FD29C7
:104AA00000D9FF21049800F029F805B0F0BD0000FE
:104AB00000E06F40FFB581B006460F46901B01280D
:104AC00000D1761CD01BFBF717FD04460D46F01BEA
:104AD000FBF712FD0022084BFBF726FC22462B4673
:104AE000FBF78AFCFBF72AFDC0B2FF21091A0498E4
:104AF00000F004F805B0F0BD00E06F4070B502466C
:104B00000D4614091607360F6C20FBF721FFC02055
:104B10002043FBF71DFFFFF785FB7820FBF7F8FE2E
:104B2000E0203043FBF7F4FE2846FBF7F1FEFFF7E9
:104B30008BFB70BD7D6B7E7F6D6C6E6F8083846937
:104B40006A7D8B82858687565B5A444B4A505169F1
:104B50007D8B87697D8B87675E3C6A688A70717A16
:104B600076792A2928272B63777874757331573221
:104B7000354155494C7E8285866B6660642D5D5952
:104B80003836334240545348464D6D7F805F652C24
:104B90005C3E3F343B3D3A375247454E4F433984A4
:104BA00083816E6F6C4C4D4E4F485657595B5A314E
:104BB0003638373F3E393A3B3D40444142435253F9
:104BC000545551504B4A484746453233343563308B
:104BD0002A2928272B773C5E7A688A70717273794C
:104BE00074757876696A7D8B828586874C4D4E4FC9
:104BF000485657595B5A313638373F3E393A3B3D74
:104C000040444142435253545551504B4A48474601
:104C1000453233343563302A2928272B773C5E7A96
:104C2000688A7071727379747578767D6B7E7F6D2A
:104C30006C6E6F80838463302A2928272B773C5E33
:104C40007A688A707172737974757876160D0000BF
:104C5000480D0000690D0000820D0000930D00005A
:104C6000A20D0000AF0D0000BB0D0000C60D00003E
:104C7000D10D0000DD0D0000E70D0000F10D00007A
:104C8000FB0D0000050E00000F0E0000190E0000C5
:104C9000230E00002C0E0000350E00003E0E00001A
:104CA000460E00004D0E0000550E00005C0E000088
:104CB000630E00006A0E0000700E0000750E00000A
:104CC000790E00007D0E0000800E0000830E0000B3
:104CD000860E0000890E00008C0E00008F0E000072
:104CE000920E0000950E0000980E00009B0E000032
:104CF0009E0E0000A10E0000A40E0000A70E0000F2
:104D0000A80E0000AA0E0000AD0E0000B00E0000BC
:104D1000B30E0000B60E0000B80E0000BB0E00007F
:104D2000BE0E0000C10E0000C40E0000C80E000040
:104D3000CC0E0000D10E0000D60E0000DB0E0000ED
:104D4000E00E0000E50E0000EB0E0000F10E00008A
:104D5000F70E0000FD0E0000030F0000090F000019
:104D6000100F0000170F00001E0F0000250F00009D
:104D70002C0F0000330F00003A0F0000410F00001D
:104D8000480F0000500F0000580F0000600F000097
:104D9000680F0000700F0000780F0000800F000007
:104DA000880F0000910F00009A0F0000A40F000070
:104DB000AE0F0000B80F0000C20F0000CB0F0000C4
:104DC000D40F0000DC0F0000E10F0000E60F000030
:104DD000EB0F0000FA0F000018100000FC4D000857
:104DE00000000020CC000000B82F0008C84E0008CA
:104DF000CC000020EC040000C82F000800366E0133
:104E000000000000000000000000000000000000A2
:104E1000A5320008DB320008F13200081F33000819
:104E20004D33000873330008A1330008D73300085E
:104E3000F533000833340008693400089F34000853
:104E4000B5340008E3340008113500083735000890
:104E5000653500089B350008B9350008F7350008AE
:104E600079370008AF370008C5370008F337000866
:104E7000213800084738000875380008AB380008AA
:104E8000C9380008073900083D390008733900089F
:104E900089390008B7390008E53900080B3A0008DD
:104EA000393A00086F3A00088D3A0008CB3A0008FA
:104EB00000000000000000000000000000000000F2
:084EC0000000000000000000EA
:04000005080000C12E
:00000001FF
